{
  "address": "0x04B5bc1eFec1B4Bc9e6210062AB570e4C2261B85",
  "abi": [
    {
      "inputs": [
        {
          "internalType": "address",
          "name": "_endpoint",
          "type": "address"
        },
        {
          "internalType": "address",
          "name": "_delegate",
          "type": "address"
        },
        {
          "internalType": "uint32",
          "name": "_rootEid",
          "type": "uint32"
        }
      ],
      "stateMutability": "nonpayable",
      "type": "constructor"
    },
    {
      "inputs": [],
      "name": "ErrorCreatingContract",
      "type": "error"
    },
    {
      "inputs": [],
      "name": "ErrorCreatingProxy",
      "type": "error"
    },
    {
      "inputs": [],
      "name": "InvalidDelegate",
      "type": "error"
    },
    {
      "inputs": [],
      "name": "InvalidEndpointCall",
      "type": "error"
    },
    {
      "inputs": [],
      "name": "LzTokenUnavailable",
      "type": "error"
    },
    {
      "inputs": [
        {
          "internalType": "uint32",
          "name": "eid",
          "type": "uint32"
        }
      ],
      "name": "NoPeer",
      "type": "error"
    },
    {
      "inputs": [
        {
          "internalType": "uint256",
          "name": "msgValue",
          "type": "uint256"
        }
      ],
      "name": "NotEnoughNative",
      "type": "error"
    },
    {
      "inputs": [
        {
          "internalType": "address",
          "name": "underlying",
          "type": "address"
        },
        {
          "internalType": "address",
          "name": "oft",
          "type": "address"
        }
      ],
      "name": "OFTExists",
      "type": "error"
    },
    {
      "inputs": [
        {
          "internalType": "address",
          "name": "addr",
          "type": "address"
        }
      ],
      "name": "OnlyEndpoint",
      "type": "error"
    },
    {
      "inputs": [
        {
          "internalType": "uint32",
          "name": "eid",
          "type": "uint32"
        },
        {
          "internalType": "bytes32",
          "name": "sender",
          "type": "bytes32"
        }
      ],
      "name": "OnlyPeer",
      "type": "error"
    },
    {
      "inputs": [
        {
          "internalType": "address",
          "name": "owner",
          "type": "address"
        }
      ],
      "name": "OwnableInvalidOwner",
      "type": "error"
    },
    {
      "inputs": [
        {
          "internalType": "address",
          "name": "account",
          "type": "address"
        }
      ],
      "name": "OwnableUnauthorizedAccount",
      "type": "error"
    },
    {
      "inputs": [],
      "name": "TargetAlreadyExists",
      "type": "error"
    },
    {
      "anonymous": false,
      "inputs": [
        {
          "indexed": true,
          "internalType": "address",
          "name": "underlying",
          "type": "address"
        },
        {
          "indexed": true,
          "internalType": "address",
          "name": "oft",
          "type": "address"
        }
      ],
      "name": "OFTCreated",
      "type": "event"
    },
    {
      "anonymous": false,
      "inputs": [
        {
          "indexed": true,
          "internalType": "address",
          "name": "previousOwner",
          "type": "address"
        },
        {
          "indexed": true,
          "internalType": "address",
          "name": "newOwner",
          "type": "address"
        }
      ],
      "name": "OwnershipTransferred",
      "type": "event"
    },
    {
      "anonymous": false,
      "inputs": [
        {
          "indexed": false,
          "internalType": "uint32",
          "name": "eid",
          "type": "uint32"
        },
        {
          "indexed": false,
          "internalType": "bytes32",
          "name": "peer",
          "type": "bytes32"
        }
      ],
      "name": "PeerSet",
      "type": "event"
    },
    {
      "inputs": [
        {
          "components": [
            {
              "internalType": "uint32",
              "name": "srcEid",
              "type": "uint32"
            },
            {
              "internalType": "bytes32",
              "name": "sender",
              "type": "bytes32"
            },
            {
              "internalType": "uint64",
              "name": "nonce",
              "type": "uint64"
            }
          ],
          "internalType": "struct Origin",
          "name": "origin",
          "type": "tuple"
        }
      ],
      "name": "allowInitializePath",
      "outputs": [
        {
          "internalType": "bool",
          "name": "",
          "type": "bool"
        }
      ],
      "stateMutability": "view",
      "type": "function"
    },
    {
      "inputs": [
        {
          "internalType": "address",
          "name": "_underlying",
          "type": "address"
        },
        {
          "internalType": "string",
          "name": "_name",
          "type": "string"
        },
        {
          "internalType": "string",
          "name": "_symbol",
          "type": "string"
        },
        {
          "internalType": "bytes32",
          "name": "_peer",
          "type": "bytes32"
        }
      ],
      "name": "createOFT",
      "outputs": [
        {
          "internalType": "address",
          "name": "oft",
          "type": "address"
        }
      ],
      "stateMutability": "nonpayable",
      "type": "function"
    },
    {
      "inputs": [],
      "name": "endpoint",
      "outputs": [
        {
          "internalType": "contract ILayerZeroEndpointV2",
          "name": "",
          "type": "address"
        }
      ],
      "stateMutability": "view",
      "type": "function"
    },
    {
      "inputs": [],
      "name": "getOFTLZEndpoint",
      "outputs": [
        {
          "internalType": "address",
          "name": "",
          "type": "address"
        }
      ],
      "stateMutability": "view",
      "type": "function"
    },
    {
      "inputs": [],
      "name": "getOFTName",
      "outputs": [
        {
          "internalType": "string",
          "name": "",
          "type": "string"
        }
      ],
      "stateMutability": "view",
      "type": "function"
    },
    {
      "inputs": [],
      "name": "getOFTSymbol",
      "outputs": [
        {
          "internalType": "string",
          "name": "",
          "type": "string"
        }
      ],
      "stateMutability": "view",
      "type": "function"
    },
    {
      "inputs": [],
      "name": "getRootEid",
      "outputs": [
        {
          "internalType": "uint32",
          "name": "",
          "type": "uint32"
        }
      ],
      "stateMutability": "view",
      "type": "function"
    },
    {
      "inputs": [],
      "name": "getRootPeer",
      "outputs": [
        {
          "internalType": "bytes32",
          "name": "",
          "type": "bytes32"
        }
      ],
      "stateMutability": "view",
      "type": "function"
    },
    {
      "inputs": [
        {
          "components": [
            {
              "internalType": "uint32",
              "name": "srcEid",
              "type": "uint32"
            },
            {
              "internalType": "bytes32",
              "name": "sender",
              "type": "bytes32"
            },
            {
              "internalType": "uint64",
              "name": "nonce",
              "type": "uint64"
            }
          ],
          "internalType": "struct Origin",
          "name": "",
          "type": "tuple"
        },
        {
          "internalType": "bytes",
          "name": "",
          "type": "bytes"
        },
        {
          "internalType": "address",
          "name": "_sender",
          "type": "address"
        }
      ],
      "name": "isComposeMsgSender",
      "outputs": [
        {
          "internalType": "bool",
          "name": "",
          "type": "bool"
        }
      ],
      "stateMutability": "view",
      "type": "function"
    },
    {
      "inputs": [
        {
          "components": [
            {
              "internalType": "uint32",
              "name": "srcEid",
              "type": "uint32"
            },
            {
              "internalType": "bytes32",
              "name": "sender",
              "type": "bytes32"
            },
            {
              "internalType": "uint64",
              "name": "nonce",
              "type": "uint64"
            }
          ],
          "internalType": "struct Origin",
          "name": "_origin",
          "type": "tuple"
        },
        {
          "internalType": "bytes32",
          "name": "_guid",
          "type": "bytes32"
        },
        {
          "internalType": "bytes",
          "name": "_message",
          "type": "bytes"
        },
        {
          "internalType": "address",
          "name": "_executor",
          "type": "address"
        },
        {
          "internalType": "bytes",
          "name": "_extraData",
          "type": "bytes"
        }
      ],
      "name": "lzReceive",
      "outputs": [],
      "stateMutability": "payable",
      "type": "function"
    },
    {
      "inputs": [
        {
          "internalType": "uint32",
          "name": "",
          "type": "uint32"
        },
        {
          "internalType": "bytes32",
          "name": "",
          "type": "bytes32"
        }
      ],
      "name": "nextNonce",
      "outputs": [
        {
          "internalType": "uint64",
          "name": "nonce",
          "type": "uint64"
        }
      ],
      "stateMutability": "view",
      "type": "function"
    },
    {
      "inputs": [],
      "name": "oAppVersion",
      "outputs": [
        {
          "internalType": "uint64",
          "name": "senderVersion",
          "type": "uint64"
        },
        {
          "internalType": "uint64",
          "name": "receiverVersion",
          "type": "uint64"
        }
      ],
      "stateMutability": "pure",
      "type": "function"
    },
    {
      "inputs": [
        {
          "internalType": "address",
          "name": "underlying",
          "type": "address"
        }
      ],
      "name": "ofts",
      "outputs": [
        {
          "internalType": "address",
          "name": "oft",
          "type": "address"
        }
      ],
      "stateMutability": "view",
      "type": "function"
    },
    {
      "inputs": [],
      "name": "owner",
      "outputs": [
        {
          "internalType": "address",
          "name": "",
          "type": "address"
        }
      ],
      "stateMutability": "view",
      "type": "function"
    },
    {
      "inputs": [
        {
          "internalType": "uint32",
          "name": "eid",
          "type": "uint32"
        }
      ],
      "name": "peers",
      "outputs": [
        {
          "internalType": "bytes32",
          "name": "peer",
          "type": "bytes32"
        }
      ],
      "stateMutability": "view",
      "type": "function"
    },
    {
      "inputs": [
        {
          "internalType": "address",
          "name": "underlying",
          "type": "address"
        }
      ],
      "name": "predictOFTAddress",
      "outputs": [
        {
          "internalType": "address",
          "name": "",
          "type": "address"
        }
      ],
      "stateMutability": "view",
      "type": "function"
    },
    {
      "inputs": [],
      "name": "renounceOwnership",
      "outputs": [],
      "stateMutability": "nonpayable",
      "type": "function"
    },
    {
      "inputs": [
        {
          "internalType": "address",
          "name": "ojlt",
          "type": "address"
        },
        {
          "internalType": "uint128",
          "name": "_gasLimit",
          "type": "uint128"
        }
      ],
      "name": "setDefaultRetireGasLimit",
      "outputs": [],
      "stateMutability": "nonpayable",
      "type": "function"
    },
    {
      "inputs": [
        {
          "internalType": "address",
          "name": "_delegate",
          "type": "address"
        }
      ],
      "name": "setDelegate",
      "outputs": [],
      "stateMutability": "nonpayable",
      "type": "function"
    },
    {
      "inputs": [
        {
          "internalType": "address",
          "name": "_oft",
          "type": "address"
        },
        {
          "internalType": "uint32",
          "name": "_eid",
          "type": "uint32"
        },
        {
          "internalType": "bytes32",
          "name": "_peer",
          "type": "bytes32"
        }
      ],
      "name": "setOFTPeer",
      "outputs": [],
      "stateMutability": "nonpayable",
      "type": "function"
    },
    {
      "inputs": [
        {
          "internalType": "uint32",
          "name": "_eid",
          "type": "uint32"
        },
        {
          "internalType": "bytes32",
          "name": "_peer",
          "type": "bytes32"
        }
      ],
      "name": "setPeer",
      "outputs": [],
      "stateMutability": "nonpayable",
      "type": "function"
    },
    {
      "inputs": [
        {
          "internalType": "address",
          "name": "newOwner",
          "type": "address"
        }
      ],
      "name": "transferOwnership",
      "outputs": [],
      "stateMutability": "nonpayable",
      "type": "function"
    }
  ],
  "transactionHash": "0xab2f72f4e8ef6dd3009d81898332af1219d658161516393f0ea455cc2587a706",
  "args": [
    "0x6EDCE65403992e310A62460808c4b910D972f10f",
    "0xE548557f3E8431be277EC74B396015030aF9bc46",
    40161
  ],
  "numDeployments": 2,
  "solcInputHash": "88fb4ba5b138e385188387fcfdd453fd",
  "bytecode": "0x60c0346200016557601f62005d1a38819003918201601f1916830192916001600160401b039182851184861017620001475781606092859260409788528339810103126200016557620000528262000180565b9083620000626020850162000180565b9301519263ffffffff8416840362000165576001600160a01b0390811692831562000169575f80546001600160a01b03198116861782558591908416907f8be0079c531659141344cd1fd0a4f28419497f9722a3daafe3b4186f6b6457e09080a3169182608052823b1562000165575f92602484928751958693849263ca5eb5e160e01b845260048401525af180156200015b5762000136575b505060a05251615b84908162000196823960805181818161026a01528181610596015281816107900152610f0c015260a051816104840152f35b8111620001475782525f80620000fc565b634e487b7160e01b5f52604160045260245ffd5b84513d5f823e3d90fd5b5f80fd5b8551631e4fbdf760e01b81525f6004820152602490fd5b51906001600160a01b0382168203620001655756fe6080604052600436101562000012575f80fd5b5f3560e01c806313137d6514620001a05780631534b256146200019a57806317442b7014620001945780633400288b146200018e57806344ac29eb14620001885780635c47943a14620001825780635cbbcf1e146200017c5780635e280f1114620001765780636c901be81462000170578063715018a6146200016a5780637d25a05e146200016457806382413eac146200015e5780638da5cb5b1462000158578063bb0b6a531462000152578063ca5eb5e1146200014c578063cf7d94141462000146578063d3dda44e1462000140578063d76e2b5c146200013a578063f2fde38b1462000134578063f936e646146200012e578063fe67ec9514620001285763ff7bd03d1462000122575f80fd5b62000c0f565b62000bce565b62000a57565b620008ea565b620008ad565b62000822565b620007ea565b6200075a565b6200071d565b620006f4565b6200068c565b62000662565b62000607565b620005c5565b6200057f565b62000542565b620004f2565b62000466565b620003da565b620003a8565b62000308565b620001ff565b6060906003190112620001b857600490565b5f80fd5b9181601f84011215620001b85782359167ffffffffffffffff8311620001b85760208381860195010111620001b857565b6001600160a01b03811603620001b857565b60e0366003190112620001b8576200021736620001a6565b67ffffffffffffffff608435818111620001b8576200023b903690600401620001bc565b50506200024a60a435620001ed565b60c435908111620001b85762000265903690600401620001bc565b5050337f00000000000000000000000000000000000000000000000000000000000000006001600160a01b031603620002f057620002ad620002a78262000c59565b62000d21565b906020810135809203620002bd57005b620002c89062000c59565b60405163309afaf360e21b815263ffffffff9190911660048201526024810191909152604490fd5b6040516391ac5e4f60e01b8152336004820152602490fd5b34620001b8575f6040366003190112620001b8576004356200032a81620001ed565b602435906fffffffffffffffffffffffffffffffff8216809203620001b8576200035362000d58565b6001600160a01b031690813b15620001b8575f9160248392604051948593849263df7482fd60e01b845260048401525af18015620003a25762000394575080f35b620003a0915062000993565b005b62000c68565b34620001b8575f366003190112620001b857604080516001815260026020820152f35b63ffffffff811603620001b857565b34620001b8576040366003190112620001b8577f238399d427b947898edb290f5ff0f9109849b1c3ba196a42e35f00c50a54b98b6004356200041c81620003cb565b602435906200042a62000d58565b63ffffffff81165f5260016020528160405f205562000461604051928392836020909392919363ffffffff60408201951681520152565b0390a1005b34620001b8575f366003190112620001b857602060405163ffffffff7f0000000000000000000000000000000000000000000000000000000000000000168152f35b5f5b838110620004ba5750505f910152565b8181015183820152602001620004aa565b90602091620004e681518092818552858086019101620004a8565b601f01601f1916010190565b34620001b8575f366003190112620001b8576200053e620005266200051662000d84565b6020808251830101910162000cbd565b505050604051918291602083526020830190620004cb565b0390f35b34620001b8575f366003190112620001b8576020620005736200056462000d84565b82808251830101910162000cbd565b92505050604051908152f35b34620001b8575f366003190112620001b8576040517f00000000000000000000000000000000000000000000000000000000000000006001600160a01b03168152602090f35b34620001b8576020366003190112620001b8576020600435620005e881620001ed565b6001600160a01b0390620005fe90821662000e00565b60405191168152f35b34620001b8575f366003190112620001b8576200062362000d58565b5f80546001600160a01b0319811682556001600160a01b03167f8be0079c531659141344cd1fd0a4f28419497f9722a3daafe3b4186f6b6457e08280a3005b34620001b8576040366003190112620001b85762000682600435620003cb565b60206040515f8152f35b34620001b85760a0366003190112620001b857620006aa36620001a6565b5060643567ffffffffffffffff8111620001b857620006ce903690600401620001bc565b50506020608435620006e081620001ed565b6040516001600160a01b0390911630148152f35b34620001b8575f366003190112620001b8575f546040516001600160a01b039091168152602090f35b34620001b8576020366003190112620001b85763ffffffff6004356200074381620003cb565b165f526001602052602060405f2054604051908152f35b34620001b8575f6020366003190112620001b8576004356200077c81620001ed565b6200078662000d58565b6001600160a01b037f000000000000000000000000000000000000000000000000000000000000000081169190823b15620001b85760245f9283604051958694859363ca5eb5e160e01b85521660048401525af18015620003a25762000394575080f35b34620001b8575f366003190112620001b85760206200080c6200056462000d84565b506040516001600160a01b039091168152915050f35b34620001b8575f6060366003190112620001b8576004356200084481620001ed565b602435906200085382620003cb565b6200085d62000d58565b6001600160a01b0316803b15620001b857604051633400288b60e01b815263ffffffff9290921660048301526044803560248401525f91839190829084905af18015620003a25762000394575080f35b34620001b8575f366003190112620001b8576200053e620008d16200051662000d84565b50509050604051918291602083526020830190620004cb565b34620001b8576020366003190112620001b8576004356200090b81620001ed565b6200091562000d58565b6001600160a01b0390811690811562000967575f54826bffffffffffffffffffffffff60a01b8216175f55167f8be0079c531659141344cd1fd0a4f28419497f9722a3daafe3b4186f6b6457e05f80a3005b604051631e4fbdf760e01b81525f6004820152602490fd5b634e487b7160e01b5f52604160045260245ffd5b67ffffffffffffffff8111620009a857604052565b6200097f565b6040810190811067ffffffffffffffff821117620009a857604052565b90601f8019910116810190811067ffffffffffffffff821117620009a857604052565b67ffffffffffffffff8111620009a857601f01601f191660200190565b81601f82011215620001b85780359062000a2582620009ee565b9262000a356040519485620009cb565b82845260208383010111620001b857815f926020809301838601378301015290565b34620001b8576080366003190112620001b85760043562000a7881620001ed565b67ffffffffffffffff602435818111620001b85762000a9c90369060040162000a0b565b90604435908111620001b85762000ab890369060040162000a0b565b9162000ac362000d58565b6001600160a01b038181165f81815260036020526040902054909491939190841662000b92576200053e9262000b0662000b349362000b53936064359162000ecd565b62000b1b62000b1462000fd2565b87620010ad565b92839160018060a01b03165f52600360205260405f2090565b80546001600160a01b0319166001600160a01b03909216919091179055565b6040519384938216907fa9ab3b830cf03eb96666f30521934e9afb8565a4c8c72249142cd1493d0d88cd5f80a36001600160a01b031682526020820190565b6001600160a01b038381165f8181526003602052604090819020549051637a1c3bdb60e01b815260048101929092529091166024820152604490fd5b34620001b8576020366003190112620001b857602060043562000bf181620001ed565b60018060a01b038091165f526003825260405f205416604051908152f35b34620001b8576060366003190112620001b857602062000c2f36620001a6565b63ffffffff813562000c4181620003cb565b165f526001825260405f205482604051920135148152f35b3562000c6581620003cb565b90565b6040513d5f823e3d90fd5b81601f82011215620001b857805162000c8c81620009ee565b9262000c9c6040519485620009cb565b81845260208284010111620001b85762000c659160208085019101620004a8565b919091608081840312620001b857805167ffffffffffffffff90818111620001b8578462000ced91840162000c73565b936020830151918211620001b85762000d0891830162000c73565b916060604083015162000d1b81620001ed565b92015190565b63ffffffff16805f52600160205260405f205490811562000d40575090565b6024906040519063f6ff4fb760e01b82526004820152fd5b5f546001600160a01b0316330362000d6c57565b60405163118cdaa760e01b8152336004820152602490fd5b604051905f825260025c601c830152815190602091601c60208286010191826040521162000db157509050565b60025f527f405787fa12a823e0f2b7631cc41b3ba8828b3321ca811111fa75cd3aa3bb5ace9280603c86015b855c8152019382851162000df75760010193819062000ddd565b50505f91925052565b60405190602082019060ff60f81b82523060601b602184015260358301527f21c35dbe1b344a2488cf3321d6ce542f8e9f305544ff09e4993a62319a497c1f605583015260558252608082019180831067ffffffffffffffff841117620009a8578262000ec19262000c6594604052825190209160a08101926135a560f21b84526bffffffffffffffffffffffff199060601b1660a282015260b6600160f81b9101526017815262000eb281620009ae565b5190206001600160a01b031690565b6001600160a01b031690565b919062000f4e90604051809362000f0a62000ef66020976080602086015260a0850190620004cb565b601f199485858303016040860152620004cb565b7f00000000000000000000000000000000000000000000000000000000000000006001600160a01b03166060840152608083019190915203908101835282620009cb565b80519163ffffffff831162000fc557601c82015160025d601c831162000f7357505050565b60025f5280601f7f405787fa12a823e0f2b7631cc41b3ba8828b3321ca811111fa75cd3aa3bb5ace94603c8501940101925b8051855d019282841162000fbf5760010192819062000fa5565b50505050565b6354ef47ee5f526004601cfd5b6200102e62000c656149ff6020906040519062000ff283820183620009cb565b808252828201906200115082396040516200103e848201923084528583526200101b83620009ae565b60405197889551809288880190620004a8565b84019151809386840190620004a8565b01038084520182620009cb565b604051906200105a82620009ae565b601082526f67363d3d37363d34f03d5260086018f360801b6020830152565b3d15620010a8573d906200108d82620009ee565b916200109d6040519384620009cb565b82523d5f602084013e565b606090565b9190620010b96200104b565b92620010c58162000e00565b93843b6200113d576020815191015ff56001600160a01b038116156200112b57815f92918360208194519301915af1620010fe62001079565b5015801562001121575b6200110f57565b6040516353de54b960e01b8152600490fd5b50813b1562001108565b60405163bbd2fe8760e01b8152600490fd5b60405163cd43efa160e01b8152600490fdfe6101a0604081815234620006e3575f90620049ff8038038091620000248287620007cd565b85396001600160a01b0393849162000040919081019062000805565b16815191632e23ca1d60e11b908184526004945f858781875afa948515620007a3575f95620007ad575b5081519283525f838781875afa928315620007a3575f9362000783575b5081516335db8ad760e21b8152965f888881885afa97881562000779575f9862000750575b5082516333df650560e21b8152966020808983818a5afa98891562000746575f9962000710575b5084516001600160401b039a9099908a87018c81118c821017620006fd578752600194858c52838c0192603160f81b84528a15620006e7575f80546001600160a01b031981168d1782558c91908416907f8be0079c531659141344cd1fd0a4f28419497f9722a3daafe3b4186f6b6457e09080a3169788608052883b15620006e3575f98898951809263ca5eb5e160e01b82528d898301528160249d8e925af18015620006d957620006b1575b508560a05280518d8111620005cf57600854918783811c93168015620006a6575b86841014620005b2578190601f9384811162000652575b508690848311600114620005ed578a92620005e1575b50505f19600383901b1c191690871b176008555b8151918d8311620005cf576009548781811c91168015620005c4575b86821014620005b257908183859493116200055c575b5085918311600114620004f7578892620004eb575b50505f19600383901b1c191690851b176009555b6200024889620008bd565b976101609889526200025a8b62000a6f565b996101809a8b52838151910120916101209b838d525190209161014098838a524660e052885193858501927f8b73c3c69bb8fe3d512ecc4cf759cc79239f7b179b0ffacaa9a75d522b39400f84528a86015260608501524660808501523060a085015260a0845260c08401809e858210911117620004d957508c88528251902060c05230610100908152600d80546001600160801b03191662030d401790556344ac29eb60e01b8d529b83818681855afa928315620004cf5790849291889462000485575b50508751632e5de78f60e11b815294859182905afa9283156200047b57908694939291869362000438575b50847f238399d427b947898edb290f5ff0f9109849b1c3ba196a42e35f00c50a54b98b9663ffffffff85931695868252845220558351928352820152a15193613e41958662000bbe873960805186818161070f01528181610edb0152818161188b015281816119a301528181612a79015281816137860152613c2f015260a051868181610b1f0152818161134901528181611db3015281816122820152818161282601528181612f400152818161324b0152613325015260c051866125a8015260e0518661266301525185612572015251846125f70152518361261d01525182611188015251816111b10152f35b82809650819392959794503d831162000473575b620004588183620007cd565b810103126200046f5751909385939092846200034a565b5080fd5b503d6200044c565b86513d87823e3d90fd5b9092809294503d8311620004c7575b620004a08185620007cd565b81010312620004c3575163ffffffff81168103620004c3578290915f806200031f565b8580fd5b503d62000494565b88513d89823e3d90fd5b634e487b7160e01b5f90815260418752fd5b015190505f8062000229565b600989528589208894509190601f1984168a5b888282106200054557505084116200052c575b505050811b016009556200023d565b01515f1960f88460031b161c191690555f80806200051d565b8385015186558b979095019493840193016200050a565b90919250600989528589208380860160051c820192888710620005a8575b9186958b929594930160051c01915b8281106200059957505062000214565b8b81558695508a910162000589565b925081926200057a565b634e487b7160e01b8952602287528a89fd5b90607f1690620001fe565b634e487b7160e01b8852604186528988fd5b015190505f80620001ce565b60088b52878b208a94509190601f1984168c5b8a8282106200063b575050841162000622575b505050811b01600855620001e2565b01515f1960f88460031b161c191690555f808062000613565b8385015186558d9790950194938401930162000600565b90915060088a52868a208480850160051c8201928986106200069c575b918b91869594930160051c01915b8281106200068d575050620001b8565b8c81558594508b91016200067d565b925081926200066f565b92607f1692620001a1565b9096508c8111620006c75787525f955f62000180565b88604186634e487b7160e01b5f52525ffd5b89513d5f823e3d90fd5b5f80fd5b8851631e4fbdf760e01b81525f81880152602490fd5b604185634e487b7160e01b5f525260245ffd5b8162000736929a503d8b116200073e575b6200072d8183620007cd565b81019062000805565b975f620000d3565b503d62000721565b85513d5f823e3d90fd5b620007719198503d805f833e620007688183620007cd565b81019062000849565b965f620000ac565b83513d5f823e3d90fd5b6200079b9193503d805f833e620007688183620007cd565b915f62000087565b82513d5f823e3d90fd5b620007c59195503d805f833e620007688183620007cd565b935f6200006a565b601f909101601f19168101906001600160401b03821190821017620007f157604052565b634e487b7160e01b5f52604160045260245ffd5b90816020910312620006e357516001600160a01b0381168103620006e35790565b5f5b838110620008385750505f910152565b818101518382015260200162000828565b602081830312620006e35780516001600160401b0391828211620006e357019082601f83011215620006e3578151908111620007f1576040519262000899601f8301601f191660200185620007cd565b81845260208284010111620006e357620008ba916020808501910162000826565b90565b8051602090818110156200093a5750601f825111620008f85780825192015190808310620008ea57501790565b825f19910360031b1b161790565b6044906200092c9260405193849263305a27a960e01b84528060048501528251928391826024870152868601910162000826565b601f01601f19168101030190fd5b906001600160401b038211620007f157600a54926001938481811c9116801562000a64575b8382101462000a5057601f811162000a19575b5081601f8411600114620009b157509282939183925f94620009a5575b50501b915f199060031b1c191617600a5560ff90565b015192505f806200098f565b919083601f198116600a5f52845f20945f905b88838310620009fe5750505010620009e5575b505050811b01600a5560ff90565b01515f1960f88460031b161c191690555f8080620009d7565b858701518855909601959485019487935090810190620009c4565b600a5f5284601f845f20920160051c820191601f860160051c015b82811062000a4457505062000972565b5f815501859062000a34565b634e487b7160e01b5f52602260045260245ffd5b90607f16906200095f565b80516020908181101562000a9c5750601f825111620008f85780825192015190808310620008ea57501790565b906001600160401b038211620007f157600b54926001938481811c9116801562000bb2575b8382101462000a5057601f811162000b7b575b5081601f841160011462000b1357509282939183925f9462000b07575b50501b915f199060031b1c191617600b5560ff90565b015192505f8062000af1565b919083601f198116600b5f52845f20945f905b8883831062000b60575050501062000b47575b505050811b01600b5560ff90565b01515f1960f88460031b161c191690555f808062000b39565b85870151885590960195948501948793509081019062000b26565b600b5f5284601f845f20920160051c820191601f860160051c015b82811062000ba657505062000ad4565b5f815501859062000b96565b90607f169062000ac156fe60806040526004361015610011575f80fd5b5f3560e01c806306fdde031461033a578063095ea7b3146103355780630d35b41514610330578063111ecdad1461032b57806313137d6514610326578063134d4f2514610321578063156a0d0f1461031c57806317442b701461031757806318160ddd146103125780631f5e13341461030d57806323b872dd14610308578063313ce567146102b35780633400288b146103035780633644e515146102fe5780633933f370146102f95780633b6f743b146102f457806352ae2879146102545780635535d461146102ef5780635a0dfe4d146102ea5780635cbbcf1e146102e55780635e280f11146102e05780636fc1b31e146102db57806370a08231146102d6578063715018a6146102d157806372490515146102cc5780637d25a05e146102c75780637ecebe00146102c257806382413eac146102bd57806384b0196e146102b8578063857749b0146102b35780638da5cb5b146102ae57806395d89b41146102a9578063963efcaa146102a45780639f68b9641461029f578063a9059cbb1461029a578063b731ea0a14610295578063b98bd07014610290578063bb0b6a531461028b578063bc70b35414610286578063bd815db014610281578063c7c7f5b31461027c578063ca5eb5e114610277578063d045a0dc14610272578063d42438851461026d578063d505accf14610268578063dd62ed3e14610263578063df7482fd1461025e578063f2fde38b14610259578063fc0c546a14610254578063fd40baaf1461024f5763ff7bd03d1461024a575f80fd5b611e33565b611d20565b610bb6565b611c92565b611c50565b611bf1565b611ab8565b611a48565b6118ee565b61185b565b61173f565b6115a2565b61154a565b611511565b611424565b6113b0565b611386565b61136c565b611332565b61128d565b611266565b6109b8565b611170565b611112565b6110d7565b6110b1565b61100c565b610fb5565b610f7a565b610f0a565b610ec6565b610e3e565b610df8565b610d79565b610ac3565b610a93565b610a71565b6109ec565b610978565b61095d565b610940565b61091f565b6108f9565b6108de565b6106f4565b610628565b610584565b610498565b6103a7565b5f91031261034957565b5f80fd5b5f5b83811061035e5750505f910152565b818101518382015260200161034f565b906020916103878151809281855285808601910161034d565b601f01601f1916010190565b9060206103a492818152019061036e565b90565b34610349575f366003190112610349576040515f6008546103c781610bdc565b8084529060209060019081811690811561045d5750600114610404575b610400856103f481870382610d58565b60405191829182610393565b0390f35b60085f90815293507ff3f7a9fe364faab93b216da50a3214154f22a0a2b415b23a84c8169e8b636ee35b83851061044a575050505081016020016103f4826104006103e4565b805486860184015293820193810161042e565b869550610400969350602092506103f494915060ff191682840152151560051b82010192936103e4565b6001600160a01b0381160361034957565b34610349576040366003190112610349576104c26004356104b881610487565b60243590336131a3565b602060405160018152f35b908160e09103126103495790565b9392916104f68560a081019360208091805184520151910152565b60409160a06040870152815180915260c086019160c08260051b880101936020809201935f915b848310610545575050505050509060606105439294019060208091805184520151910152565b565b90919293949584806105746001938d60bf1990820301875285838c51805184520151918185820152019061036e565b980193019301919493929061051d565b34610349576020366003190112610349576001600160401b03600435818111610349576105b59036906004016104cd565b906105be611eb0565b506105c7611eb0565b50604051906105d582610cb9565b5f8252602082015261040061060c604051936105f085610d07565b5f85526105fc81611ec8565b5060406060820135910135612279565b610614611e77565b9182526020820152604051938493846104db565b34610349575f366003190112610349576004546040516001600160a01b039091168152602090f35b606090600319011261034957600490565b9181601f84011215610349578235916001600160401b038311610349576020838186019501011161034957565b600319810160e081126103495760601361034957600491606435916001600160401b039060843582811161034957816106c991600401610661565b9390939260a4356106d981610487565b9260c435918211610349576106f091600401610661565b9091565b6106fd3661068e565b50929492506001600160a01b039190507f000000000000000000000000000000000000000000000000000000000000000082163381036108c6578335610742816109d3565b61074b816122d3565b906020860135809203610891575050610773610767838861321f565b6001600160a01b031690565b91610786610781828961322b565b61323d565b809761079187611ec8565b5061079c8286613912565b602883116107ea575b505050506107e56107c35f80516020613dec83398151915294611ec8565b956040519384931696836020909392919363ffffffff60408201951681520152565b0390a3005b90610815929161080f6107ff60408a01612309565b936108098a611ec8565b92613271565b9261328d565b90803b1561034957604051633e5ac80960e11b8152915f918391829084908290610844908c8a60048501612313565b03925af1801561088c575f80516020613dec833981519152946107e5926107c392610873575b889196506107a5565b8061088061088692610cd9565b8061033f565b5f61086a565b6121ea565b61089a816109d3565b60405163309afaf360e21b815263ffffffff9190911660048201526024810191909152604490fd5b0390fd5b6040516391ac5e4f60e01b8152336004820152602490fd5b34610349575f36600319011261034957602060405160028152f35b34610349575f366003190112610349576040805162b9270b60e21b815260016020820152f35b34610349575f36600319011261034957604080516001815260026020820152f35b34610349575f366003190112610349576020600754604051908152f35b34610349575f36600319011261034957602060405160018152f35b34610349576060366003190112610349576104c260043561099881610487565b6024356109a481610487565b604435916109b383338361233d565b61242d565b34610349575f36600319011261034957602060405160068152f35b63ffffffff81160361034957565b3590610543826109d3565b34610349576040366003190112610349577f238399d427b947898edb290f5ff0f9109849b1c3ba196a42e35f00c50a54b98b600435610a2a816109d3565b60243590610a36612544565b63ffffffff81165f5260016020528160405f2055610a6c604051928392836020909392919363ffffffff60408201951681520152565b0390a1005b34610349575f366003190112610349576020610a8b61256f565b604051908152f35b34610349575f3660031901126103495760206001600160801b03600d5416604051908152f35b8015150361034957565b34610349576040366003190112610349576004356001600160401b03811161034957610af39036906004016104cd565b60243590610b0082610ab9565b610b08611eb0565b506060810135813591610b1a836109d3565b610b517f0000000000000000000000000000000000000000000000000000000000000000610b4c816040850135613185565b61320c565b91808310610b9857610400610b7a8686610b6b87876127a9565b91610b75816109d3565b612adb565b60405191829182815181526020918201519181019190915260400190565b82604491604051916371c4efed60e01b835260048301526024820152fd5b34610349575f366003190112610349576020604051308152f35b61ffff81160361034957565b90600182811c92168015610c0a575b6020831014610bf657565b634e487b7160e01b5f52602260045260245ffd5b91607f1691610beb565b80545f9392610c2282610bdc565b918282526020936001916001811690815f14610c865750600114610c48575b5050505050565b90939495505f92919252835f2092845f945b838610610c7257505050500101905f80808080610c41565b805485870183015294019385908201610c5a565b60ff19168685015250505090151560051b010191505f80808080610c41565b634e487b7160e01b5f52604160045260245ffd5b604081019081106001600160401b03821117610cd457604052565b610ca5565b6001600160401b038111610cd457604052565b606081019081106001600160401b03821117610cd457604052565b602081019081106001600160401b03821117610cd457604052565b60a081019081106001600160401b03821117610cd457604052565b60c081019081106001600160401b03821117610cd457604052565b90601f801991011681019081106001600160401b03821117610cd457604052565b3461034957604036600319011261034957610400610ddd610de4610dd1600435610da2816109d3565b63ffffffff60243591610db483610bd0565b165f52600360205260405f209061ffff165f5260205260405f2090565b60405192838092610c14565b0382610d58565b60405191829160208352602083019061036e565b34610349576040366003190112610349576020610e34600435610e1a816109d3565b6024359063ffffffff165f52600160205260405f20541490565b6040519015158152f35b34610349575f366003190112610349575f546040516344ac29eb60e01b8152906001600160a01b03906020908390600490829085165afa91821561088c57602092610e90915f91610e99575b506122d3565b16604051908152f35b610eb99150843d8611610ebf575b610eb18183610d58565b810190612b47565b5f610e8a565b503d610ea7565b34610349575f366003190112610349576040517f00000000000000000000000000000000000000000000000000000000000000006001600160a01b03168152602090f35b34610349576020366003190112610349577ff0be4f1e87349231d80c36b33f9e8639658eeaf474014dee15a3e6a4d44141976020600435610f4a81610487565b610f52612544565b600480546001600160a01b0319166001600160a01b03929092169182179055604051908152a1005b3461034957602036600319011261034957600435610f9781610487565b60018060a01b03165f526005602052602060405f2054604051908152f35b34610349575f36600319011261034957610fcd612544565b5f80546001600160a01b0319811682556001600160a01b03167f8be0079c531659141344cd1fd0a4f28419497f9722a3daafe3b4186f6b6457e08280a3005b346103495760203660031901126103495760206110a8611082611092605560043561104f61103982611ed2565b916110476040519384610d58565b808352611ed2565b81870190601f1901368237604051948592600360f81b898501525f6021850152600160358501525180928585019061034d565b8101036035810184520182610d58565b61109a612ba4565b906110a3612c89565b612a0f565b51604051908152f35b34610349576040366003190112610349576110cd6004356109d3565b60206040515f8152f35b34610349576020366003190112610349576004356110f481610487565b60018060a01b03165f52600c602052602060405f2054604051908152f35b346103495760a03660031901126103495761112c36610650565b506064356001600160401b0381116103495761114c903690600401610661565b5050602060843561115c81610487565b6040516001600160a01b0390911630148152f35b34610349575f366003190112610349576112096111ac7f0000000000000000000000000000000000000000000000000000000000000000613500565b6111d57f00000000000000000000000000000000000000000000000000000000000000006135fe565b604051906111e282610d07565b5f8252611217602091604051958695600f60f81b875260e0602088015260e087019061036e565b90858203604087015261036e565b4660608501523060808501525f60a085015283810360c0850152602080845192838152019301915f5b82811061124f57505050500390f35b835185528695509381019392810192600101611240565b34610349575f366003190112610349575f546040516001600160a01b039091168152602090f35b34610349575f366003190112610349576040515f6009546112ad81610bdc565b8084529060209060019081811690811561045d57506001146112d957610400856103f481870382610d58565b60095f90815293507f6e1540171b6c0c960b71a7020d9f60077f6af931a8bbf590da0223dacf75c7af5b83851061131f575050505081016020016103f4826104006103e4565b8054868601840152938201938101611303565b34610349575f3660031901126103495760206040517f00000000000000000000000000000000000000000000000000000000000000008152f35b34610349575f3660031901126103495760206040515f8152f35b34610349576040366003190112610349576104c26004356113a681610487565b602435903361242d565b34610349575f366003190112610349576002546040516001600160a01b039091168152602090f35b906020600319830112610349576004356001600160401b039283821161034957806023830112156103495781600401359384116103495760248460051b83010111610349576024019190565b3461034957611432366113d8565b61143a612544565b5f5b81811061147557507fbe4864a8e820971c0247f5992e2da559595f7bf076a21cb5928d443d2a13b67491610a6c60405192839283612e1b565b8061150b6115066114896001948688612cd8565b6114a161149b60409283810190612123565b90612ef7565b6114b86114af85888a612cd8565b82810190612123565b92909163ffffffff6114cb878a8c612cd8565b356114d5816109d3565b165f526114f6602091600383525f20916114f0888b8d612cd8565b01612cfa565b61ffff165f5260205260405f2090565b612d53565b0161143c565b346103495760203660031901126103495763ffffffff600435611533816109d3565b165f526001602052602060405f2054604051908152f35b3461034957606036600319011261034957600435611567816109d3565b60243561157381610bd0565b604435906001600160401b038211610349576104009261159a610de4933690600401610661565b929091612059565b6115ab366113d8565b5f5b81811061161657604051638e9e709960e01b81525f81600481335afa801561088c576108c2915f916115f4575b50604051638351eea760e01b815291829160048301610393565b61161091503d805f833e6116088183610d58565b8101906121f5565b826115da565b6116218183856120fb565b9061165161164d61163184611ec8565b60208501359063ffffffff165f52600160205260405f20541490565b1590565b6116e557611663610100830183612123565b9261167060e08201612155565b9061167f610120820182612123565b959095303b15610349575f946116b460c092604051998a9788968795633411683760e21b875260a08a01358a60048901612170565b03920135305af191821561088c576001926116d2575b505b016115ad565b806108806116df92610cd9565b5f6116ca565b600191506116cc565b91608061054392949361172e604060c0830197805184526001600160401b0360208201511660208501520151604083019060208091805184520151910152565b019060208091805184520151910152565b6080366003190112610349576004356001600160401b0381116103495761176a9036906004016104cd565b6040366023190112610349576064359061178382610487565b61178b612253565b50611794611eb0565b5080356117a0816109d3565b6117ec6117b66060840135604085013533612f34565b9490926117c386866127a9565b906117cd836109d3565b604051926117da84610cb9565b60243584526044356020850152613036565b917f85496b760a4b7f8d66384b9df21b381f5d1b1e79f229a47aaf4c232edc2fe59a611816611e77565b9483865280602087015261182b855193611ec8565b6040805163ffffffff9290921682526020820195909552938401523392606090a3610400604051928392836116ee565b34610349575f60203660031901126103495760043561187981610487565b611881612544565b6001600160a01b037f000000000000000000000000000000000000000000000000000000000000000081169190823b156103495760245f9283604051958694859363ca5eb5e160e01b85521660048401525af1801561088c576118e2575080f35b6118ec9150610cd9565b005b6118f73661068e565b5050509290303303611a3657611910610767858361321f565b9361191e610781828461322b565b9161192884611ec8565b506119338387613912565b60288211611981575b50506119555f80516020613dec83398151915292611ec8565b6040805163ffffffff909216825260208201929092526001600160a01b039094169390819081016107e5565b90826119a09261080f61199660408801612309565b9361080988611ec8565b917f00000000000000000000000000000000000000000000000000000000000000006001600160a01b0316803b1561034957604051633e5ac80960e11b8152935f9185918290849082906119f9908b8d60048501612313565b03925af190811561088c575f80516020613dec8339815191529361195592611a23575b509261193c565b80610880611a3092610cd9565b5f611a1c565b60405163029a949d60e31b8152600490fd5b34610349576020366003190112610349577fd48d879cef83a1c0bdda516f27b13ddb1b3f8bbac1c9e1511bb2a659c24277606020600435611a8881610487565b611a90612544565b600280546001600160a01b0319166001600160a01b03929092169182179055604051908152a1005b346103495760e036600319011261034957600435611ad581610487565b602435611ae181610487565b6044359060643560843560ff8116810361034957814211611bd8576001600160a01b038581165f818152600c602090815260409182902080546001810190915582517f6e71edae12b1b97f4d1f60370fef10105fa2faae0126114a169c64845d6126c992810192835292830184905287851660608401526080830189905260a083015260c08083019690965294815291939092611b9c9290611b8460e083610d58565b611b9760c4359360a43593519020613133565b613159565b91821603611bae57506118ec926131a3565b6040516325c0072360e11b81526001600160a01b0391821660048201529084166024820152604490fd5b60405163313c898160e11b815260048101839052602490fd5b34610349576040366003190112610349576020611c47600435611c1381610487565b60243590611c2082610487565b60018060a01b03165f526006835260405f209060018060a01b03165f5260205260405f2090565b54604051908152f35b34610349576020366003190112610349576004356001600160801b03811680910361034957611c7d612544565b6001600160801b0319600d541617600d555f80f35b3461034957602036600319011261034957600435611caf81610487565b611cb7612544565b6001600160a01b03908116908115611d08575f54826bffffffffffffffffffffffff60a01b8216175f55167f8be0079c531659141344cd1fd0a4f28419497f9722a3daafe3b4186f6b6457e05f80a3005b604051631e4fbdf760e01b81525f6004820152602490fd5b608036600319011261034957600435611d3881610487565b602435611d4481610487565b604435606435916001600160401b0380841161034957611de1611de793611dd892611d76611e14973690600401610661565b949092611d81612253565b50611daf8180611d8f611eb0565b9c336001600160a01b03821603611e23575b611da9612c89565b50612f34565b50507f000000000000000000000000000000000000000000000000000000000000000090613185565b16923691611eff565b91612b5c565b611def612ba4565b60405190611dfc82610cb9565b3482525f60208301523392611e0f612c89565b613036565b610400604051928392836116ee565b611e2e82338361233d565b611da1565b34610349576060366003190112610349576020611e4f36610650565b63ffffffff8135611e5f816109d3565b165f526001825260405f205482604051920135148152f35b6040519061054382610cb9565b6040519060e082018281106001600160401b03821117610cd457604052565b6040519061054382610d22565b60405190611ebd82610cb9565b5f6020838281520152565b356103a4816109d3565b6001600160401b038111610cd457601f01601f191660200190565b60405190611efa82610d07565b5f8252565b929192611f0b82611ed2565b91611f196040519384610d58565b829481845281830111610349578281602093845f960137010152565b909291928360021161034957831161034957600201916001190190565b60209083610543939594956040519683611f75899551809288808901910161034d565b84019185830137015f83820152038085520183610d58565b908060209392818452848401375f828201840152601f01601f1916010190565b9160206103a4938181520191611f8d565b63ffffffff9093919293165f52600360205260405f2060015f52602052610ddd611ff160405f2060405192838092610c14565b80511561204b5783156120455760028410156120255750506108c2604051928392639a6d49cd60e01b845260048401611fad565b909280808461203a61203f946103a497612ef7565b611f35565b91611f52565b92509050565b5091906103a4913691611eff565b610dd1610ddd9263ffffffff61208993979597165f52600360205260405f209061ffff165f5260205260405f2090565b8051156120da5782156120455760028310156120c55750506108c2604051928392639a6d49cd60e01b8452602060048501526024840191611f8d565b909282808261203a6103a49661203f95612ef7565b50916103a4913691611eff565b634e487b7160e01b5f52603260045260245ffd5b919081101561211e5760051b8101359061013e1981360301821215610349570190565b6120e7565b903590601e198136030182121561034957018035906001600160401b0382116103495760200191813603831361034957565b356103a481610487565b6001600160401b0381160361034957565b9290936121cc926001600160401b0360406103a49a98999763ffffffff8135612198816109d3565b1688526020810135602089015201356121b08161215f565b166040860152606085015260e0608085015260e0840191611f8d565b6001600160a01b0390941660a082015280840360c090910152611f8d565b6040513d5f823e3d90fd5b602081830312610349578051906001600160401b038211610349570181601f8201121561034957805161222781611ed2565b926122356040519485610d58565b81845260208284010111610349576103a4916020808501910161034d565b6040519061226082610cec565b815f81525f60208201526040612274611eb0565b910152565b6122a890610b4c7f00000000000000000000000000000000000000000000000000000000000000008092613185565b9182918084106122b55750565b83604491604051916371c4efed60e01b835260048301526024820152fd5b63ffffffff16805f52600160205260405f20549081156122f1575090565b6024906040519063f6ff4fb760e01b82526004820152fd5b356103a48161215f565b6103a4939260809260018060a01b0316825260208201525f6040820152816060820152019061036e565b6001600160a01b038181165f81815260066020908152604080832087861684529091529020549294939291906001830161237a575b505050505050565b8483106123fe57156123e6578216156123ce576123c2926123ad91039360018060a01b03165f52600660205260405f2090565b9060018060a01b03165f5260205260405f2090565b555f8080808080612372565b604051634a1406b160e11b81525f6004820152602490fd5b60405163e602df0560e01b81525f6004820152602490fd5b604051637dc7a0d960e11b81526001600160a01b03851660048201526024810184905260448101869052606490fd5b916001600160a01b038084169290831561252c578116938415612514576001600160a01b0381165f908152600560205260409020548381106124e5576124e09284926124b07fddf252ad1be2c89b69c2b068fc378daa952ba7f163c4a11628f55a4df523b3ef966124ca94039160018060a01b03165f52600560205260405f2090565b556001600160a01b03165f90815260056020526040902090565b8054820190556040519081529081906020820190565b0390a3565b60405163391434e360e21b81526001600160a01b03929092166004830152602482015260448101839052606490fd5b60405163ec442f0560e01b81525f6004820152602490fd5b604051634b637e8f60e11b81525f6004820152602490fd5b5f546001600160a01b0316330361255757565b60405163118cdaa760e01b8152336004820152602490fd5b307f00000000000000000000000000000000000000000000000000000000000000006001600160a01b03161480612660575b156125ca577f000000000000000000000000000000000000000000000000000000000000000090565b60405160208101907f8b73c3c69bb8fe3d512ecc4cf759cc79239f7b179b0ffacaa9a75d522b39400f82527f000000000000000000000000000000000000000000000000000000000000000060408201527f000000000000000000000000000000000000000000000000000000000000000060608201524660808201523060a082015260a0815261265a81610d3d565b51902090565b507f000000000000000000000000000000000000000000000000000000000000000046146125a1565b9080601f83011215610349578160206103a493359101611eff565b91909160e081840312610349576126b9611e84565b926126c3826109e1565b845260208201356020850152604082013560408501526060820135606085015260808201356001600160401b03908181116103495782612704918501612689565b608086015260a08301358181116103495782612721918501612689565b60a086015260c08301359081116103495761273c9201612689565b60c0830152565b901561211e5790565b634e487b7160e01b5f52602160045260245ffd5b6006111561276a57565b61274c565b9081602091031261034957516103a481610ab9565b909161279b6103a49360408452604084019061036e565b91602081840391015261036e565b91906127c26127b836856126a4565b60c0015151151590565b1561295b5760c083016127e76127e26127db8387612123565b3691611eff565b6133e6565b901561294857806127f9600392612760565b036128f9576128889161285761284b61284b61282361281e6127db61286a978b612123565b613446565b937f000000000000000000000000000000000000000000000000000000000000000090613185565b6001600160401b031690565b60208601356001600160a01b0316612b5c565b9261288261287782611ec8565b916080810190612123565b91611fbe565b6004549091906001600160a01b0316806128a0575b50565b6020604051809263043a78eb60e01b825281806128c1888a60048401612784565b03915afa801561088c571561289d575b61289d9060203d6020116128f2575b6128ea8183610d58565b81019061276f565b503d6128e0565b61292061291261290c6108c29387612123565b90612743565b356001600160f81b03191690565b604051637b5f85ed60e11b81526001600160f81b031990911660048201529081906024820190565b6108c261292061291261290c8589612123565b6106f09192613314565b91908260409103126103495760405161297d81610cb9565b6020808294805184520151910152565b90604082820312610349576103a491612965565b906020909392936040835263ffffffff815116604084015281810151606084015260806129f56129df604084015160a08488015260e087019061036e565b6060840151868203603f190160a088015261036e565b910151151560c08401526001600160a01b03909416910152565b91612a759192612a1d611eb0565b50612a27816122d3565b916040948593612a46855194612a3c86610d22565b63ffffffff168552565b60208401528383015260608201525f6080820152815180938192631bb8518b60e31b83523090600484016129a1565b03817f00000000000000000000000000000000000000000000000000000000000000006001600160a01b03165afa91821561088c575f92612ab557505090565b6103a49250803d10612ad4575b612acc8183610d58565b81019061298d565b503d612ac2565b612b2c612a75939294612aec611eb0565b50612af6836122d3565b936040968795612b15875196612b0b88610d22565b63ffffffff168752565b602086015285850152606084015215156080830152565b815180938192631bb8518b60e31b83523090600484016129a1565b9081602091031261034957516103a4816109d3565b6055906103a49293604051948592600360f81b60208501526bffffffffffffffffffffffff199060601b1660218401526035830152611082815180926020868601910161034d565b60408051600360f01b602082015260028152612bbf81610cb9565b600d549061ffff92600384612bd384613b08565b1603612c68578051926001600160801b03199060801b16602084015260108352612bfc83610cb9565b600384612c0884613b08565b1603612c68578251848111612c4b578416600101938411612c46576103a492612c38915194859360208501613b54565b03601f198101835282610d58565b613171565b60449151906306dfcc6560e41b8252601060048301526024820152fd5b83612c74602493613b08565b9151633a51740d60e01b815291166004820152fd5b5f546040516344ac29eb60e01b815290602090829060049082906001600160a01b03165afa90811561088c575f91612cbf575090565b6103a4915060203d602011610ebf57610eb18183610d58565b919081101561211e5760051b81013590605e1981360301821215610349570190565b356103a481610bd0565b601f8211612d1157505050565b5f5260205f20906020601f840160051c83019310612d49575b601f0160051c01905b818110612d3e575050565b5f8155600101612d33565b9091508190612d2a565b9092916001600160401b038111610cd457612d7881612d728454610bdc565b84612d04565b5f601f8211600114612db6578190612da79394955f92612dab575b50508160011b915f199060031b1c19161790565b9055565b013590505f80612d93565b601f19821694612dc9845f5260205f2090565b915f5b878110612e03575083600195969710612dea575b505050811b019055565b01355f19600384901b60f8161c191690555f8080612de0565b90926020600181928686013581550194019101612dcc565b916020908082850183865252604091604085019460408360051b82010195855f925b858410612e4f57505050505050505090565b9091929394959697603f198282030184528835605e198436030181121561034957830160609063ffffffff8135612e85816109d3565b16835261ffff88820135612e9881610bd0565b168884015289810135601e19823603018112156103495701908782359201926001600160401b038311610349578236038413610349576001938993838386958f612ee59601520191611f8d565b9a019401940192969594939190612e3d565b9080600211610349576003823560f01c03612f10575050565b6108c2604051928392639a6d49cd60e01b8452602060048501526024840191611f8d565b919290612f6690610b4c7f00000000000000000000000000000000000000000000000000000000000000008092613185565b928084106122b5575082916001600160a01b038116908390821561252c576001600160a01b0381165f9081526005602052604090205482811061300657827fddf252ad1be2c89b69c2b068fc378daa952ba7f163c4a11628f55a4df523b3ef92612fe85f96956124e094039160018060a01b03165f52600560205260405f2090565b55612ff68160075403600755565b6040519081529081906020820190565b60405163391434e360e21b81526001600160a01b0392909216600483015260248201526044810191909152606490fd5b93929190613042612253565b5061304c816133e6565b8161311f575b50613061575b6103a4946136fd565b60158151106130e2576103a494602182015160601c61307f83613ba9565b60358451115f146130d45761309d6130978551613437565b85613a8c565b505b60405190815233907fb78597c9e0b67d6deb79cb7d2812f88d9442ebff6ae772d40b16d1e4ae7532b390602090a39450613058565b6130dc611eed565b5061309f565b60405162461bcd60e51b8152602060048201526015602482015274746f416464726573735f6f75744f66426f756e647360581b6044820152606490fd5b9050600681101561276a576003145f613052565b60429061313e61256f565b906040519161190160f01b8352600283015260228201522090565b916103a49391613168936137f9565b90929192613885565b634e487b7160e01b5f52601160045260245ffd5b811561318f570490565b634e487b7160e01b5f52601260045260245ffd5b6001600160a01b0380821692919083156123e65782169384156123ce57806132027f8c5be1e5ebec7d5bd14f71427d1e84f3dd0314c0f7b2291e5b200ac8c7c3b925946123ad60209560018060a01b03165f52600660205260405f2090565b55604051908152a3565b81810292918115918404141715612c4657565b90602011610349573590565b90602811610349576020013560c01c90565b6103a4906001600160401b037f0000000000000000000000000000000000000000000000000000000000000000911661320c565b9080602811610349576103a49136916027190190602801611eff565b604c91936103a4936040519586936001600160401b0360c01b9060c01b16602085015263ffffffff60e01b9060e01b166028840152602c8301526132da815180926020868601910161034d565b810103602c810184520182610d58565b90601f8201809211612c4657565b6001019081600111612c4657565b6035019081603511612c4657565b909161336561334a61284b613380957f000000000000000000000000000000000000000000000000000000000000000090613185565b61335a6127db60a0860186612123565b906020850135613984565b93909283945f146133d1576002905b61159a61287782611ec8565b60045490926001600160a01b0390911690838261339c57505050565b60405163043a78eb60e01b8152926020928492839182916133c09160048401612784565b03915afa801561088c576128d15750565b600190613374565b80511561211e5760200190565b905f906133f2836133d9565b5160f81c600510159283613418575b5061340b82612760565b811561341357565b5f9250565b6134239192506133d9565b5160f81c600681101561276a57905f613401565b603419810191908211612c4657565b60018151115f146134ed5780515f199182820190828211612c46576134758261346e816132ea565b1015613a0f565b61348a8151613483846132f8565b1115613a4c565b816134a357505050506040515f81526020810160405290565b600160405194601f8416801560051b9182828901019687010193010101905b8084106134da5750508252601f01601f191660405290565b90928351815260208091019301906134c2565b506040516134fa81610d07565b5f815290565b60ff811461353e5760ff811690601f821161352c576040519161352283610cb9565b8252602082015290565b604051632cd44ac360e21b8152600490fd5b50604051600a54815f61355083610bdc565b808352926020906001908181169081156135da575060011461357b575b50506103a492500382610d58565b915092600a5f527fc65a7bb8d6351c1cf70c95a316cc6a92839c986682d98bc35f958f4883f9d2a8935f925b8284106135c257506103a49450505081016020015f8061356d565b855487850183015294850194869450928101926135a7565b915050602092506103a494915060ff191682840152151560051b8201015f8061356d565b60ff81146136205760ff811690601f821161352c576040519161352283610cb9565b50604051600b54815f61363283610bdc565b808352926020906001908181169081156135da575060011461365c5750506103a492500382610d58565b915092600b5f527f0175b7a638427703f0dbe7bb9bbf987a2551717b34e79f33b5b1008d1fa01db9935f925b8284106136a357506103a49450505081016020015f8061356d565b85548785018301529485019486945092810192613688565b90608082820312610349576136f59060408051936136d885610cec565b8051855260208101516136ea8161215f565b602086015201612965565b604082015290565b613766608094926137829694613711612253565b50602061371e8651613bf6565b9501918251806137ea575b50613733856122d3565b925115159261374f613743611ea3565b63ffffffff9097168752565b602086015260408501526060840152151585830152565b6040518095819482936302637a4560e41b8452600484016129a1565b03917f00000000000000000000000000000000000000000000000000000000000000006001600160a01b03165af190811561088c575f916137c1575090565b6103a4915060803d6080116137e3575b6137db8183610d58565b8101906136bb565b503d6137d1565b6137f390613c18565b5f613729565b91907f7fffffffffffffffffffffffffffffff5d576e7357a4501ddfe92f46681b20a08411613870579160209360809260ff5f9560405194855216868401526040830152606082015282805260015afa1561088c575f516001600160a01b0381161561386657905f905f90565b505f906001905f90565b5050505f9160039190565b6004111561276a57565b61388e8161387b565b80613897575050565b6138a08161387b565b600181036138ba5760405163f645eedf60e01b8152600490fd5b6138c38161387b565b600281036138e45760405163fce698f760e01b815260048101839052602490fd5b806138f060039261387b565b146138f85750565b6040516335e2f38360e21b81526004810191909152602490fd5b6001600160a01b038116919082156125145760075490828201809211612c46575f926139756020927fddf252ad1be2c89b69c2b068fc378daa952ba7f163c4a11628f55a4df523b3ef9460075560018060a01b03165f52600560205260405f2090565b818154019055604051908152a3565b825115801593906139e2576139df9160689160405194859260208401526001600160401b0360c01b9060c01b1660408301523360488301526139cf815180926020868601910161034d565b8101036048810184520182610d58565b91565b50906040519160208301526001600160401b0360c01b9060c01b166040820152602881526139df81610cec565b15613a1657565b60405162461bcd60e51b815260206004820152600e60248201526d736c6963655f6f766572666c6f7760901b6044820152606490fd5b15613a5357565b60405162461bcd60e51b8152602060048201526011602482015270736c6963655f6f75744f66426f756e647360781b6044820152606490fd5b613a998261346e816132ea565b613aa7815161348384613306565b81613abe5750506040515f81526020810160405290565b60405191601f8116916035831560051b80858701019484860193010101905b808410613af55750508252601f01601f191660405290565b9092835181526020809101930190613add565b6002815110613b18576002015190565b60405162461bcd60e51b8152602060048201526014602482015273746f55696e7431365f6f75744f66426f756e647360601b6044820152606490fd5b602090613b6b60049594938281519485920161034d565b600160f81b910181815260f09290921b6001600160f01b03191660018301526003820152815191613ba49083908584019060200161034d565b010190565b6035815110613bb9576035015190565b60405162461bcd60e51b8152602060048201526015602482015274746f55696e743235365f6f75744f66426f756e647360581b6044820152606490fd5b803403613c005790565b6040516304fb820960e51b8152346004820152602490fd5b60405163393f876560e21b81526001600160a01b037f00000000000000000000000000000000000000000000000000000000000000008116926020929091908381600481885afa90811561088c575f91613d52575b5016928315613d40575f8091613ce09360405190868201926323b872dd60e01b84523360248401526044830152606482015260648152613cac81610d22565b519082875af13d15613d38573d90613cc382611ed2565b91613cd16040519384610d58565b82523d5f8584013e5b84613d88565b908151918215159182613d1c575b50509050613cf95750565b604051635274afe760e01b81526001600160a01b03919091166004820152602490fd5b61164d925080613d3094830101910161276f565b805f80613cee565b606090613cda565b6040516329b99a9560e11b8152600490fd5b90508381813d8311613d81575b613d698183610d58565b810103126103495751613d7b81610487565b5f613c6d565b503d613d5f565b90613daf5750805115613d9d57805190602001fd5b604051630a12f52160e11b8152600490fd5b81511580613de2575b613dc0575090565b604051639996b31560e01b81526001600160a01b039091166004820152602490fd5b50803b15613db856feefed6d3500546b29533b128a29e3a94d70788727f0507505ac12eaf2e578fd9ca2646970667358221220c0ed9509afea76f8fd21254660b5c2d2712da94046aa751d4a03817b7bab1e0864736f6c63430008180033a26469706673582212203344c88a078d1532f27988b877a8dfa914aae4b19da1737891a27cd92799aed664736f6c63430008180033",
  "devdoc": {
    "errors": {
      "OwnableInvalidOwner(address)": [
        {
          "details": "The owner is not a valid owner account. (eg. `address(0)`)"
        }
      ],
      "OwnableUnauthorizedAccount(address)": [
        {
          "details": "The caller account is not authorized to perform an operation."
        }
      ]
    },
    "kind": "dev",
    "methods": {
      "allowInitializePath((uint32,bytes32,uint64))": {
        "details": "This indicates to the endpoint that the OApp has enabled msgs for this particular path to be received.This defaults to assuming if a peer has been set, its initialized. Can be overridden by the OApp if there is other logic to determine this.",
        "params": {
          "origin": "The origin information containing the source endpoint and sender address."
        },
        "returns": {
          "_0": "Whether the path has been initialized."
        }
      },
      "isComposeMsgSender((uint32,bytes32,uint64),bytes,address)": {
        "details": "_origin The origin information containing the source endpoint and sender address.  - srcEid: The source chain endpoint ID.  - sender: The sender address on the src chain.  - nonce: The nonce of the message._message The lzReceive payload.Applications can optionally choose to implement separate composeMsg senders that are NOT the bridging layer.The default sender IS the OAppReceiver implementer.",
        "params": {
          "_sender": "The sender address."
        },
        "returns": {
          "_0": "isSender Is a valid sender."
        }
      },
      "lzReceive((uint32,bytes32,uint64),bytes32,bytes,address,bytes)": {
        "details": "Entry point for receiving messages or packets from the endpoint.Entry point for receiving msg/packet from the LayerZero endpoint.",
        "params": {
          "_executor": "The address of the executor for the received message.",
          "_extraData": "Additional arbitrary data provided by the corresponding executor.",
          "_guid": "The unique identifier for the received LayerZero message.",
          "_message": "The payload of the received message.",
          "_origin": "The origin information containing the source endpoint and sender address.  - srcEid: The source chain endpoint ID.  - sender: The sender address on the src chain.  - nonce: The nonce of the message."
        }
      },
      "nextNonce(uint32,bytes32)": {
        "details": "_srcEid The source endpoint ID._sender The sender address.The path nonce starts from 1. If 0 is returned it means that there is NO nonce ordered enforcement.Is required by the off-chain executor to determine the OApp expects msg execution is ordered.This is also enforced by the OApp.By default this is NOT enabled. ie. nextNonce is hardcoded to return 0.",
        "returns": {
          "nonce": "The next nonce."
        }
      },
      "oAppVersion()": {
        "returns": {
          "receiverVersion": "The version of the OAppReceiver.sol implementation.",
          "senderVersion": "The version of the OAppSender.sol implementation."
        }
      },
      "owner()": {
        "details": "Returns the address of the current owner."
      },
      "renounceOwnership()": {
        "details": "Leaves the contract without owner. It will not be possible to call `onlyOwner` functions. Can only be called by the current owner. NOTE: Renouncing ownership will leave the contract without an owner, thereby disabling any functionality that is only available to the owner."
      },
      "setDelegate(address)": {
        "details": "Only the owner/admin of the OApp can call this function.Provides the ability for a delegate to set configs, on behalf of the OApp, directly on the Endpoint contract.",
        "params": {
          "_delegate": "The address of the delegate to be set."
        }
      },
      "setPeer(uint32,bytes32)": {
        "details": "Only the owner/admin of the OApp can call this function.Indicates that the peer is trusted to send LayerZero messages to this OApp.Set this to bytes32(0) to remove the peer address.Peer is a bytes32 to accommodate non-evm chains.",
        "params": {
          "_eid": "The endpoint ID.",
          "_peer": "The address of the peer to be associated with the corresponding endpoint."
        }
      },
      "transferOwnership(address)": {
        "details": "Transfers ownership of the contract to a new account (`newOwner`). Can only be called by the current owner."
      }
    },
    "version": 1
  },
  "userdoc": {
    "kind": "user",
    "methods": {
      "allowInitializePath((uint32,bytes32,uint64))": {
        "notice": "Checks if the path initialization is allowed based on the provided origin."
      },
      "endpoint()": {
        "notice": "Retrieves the LayerZero endpoint associated with the OApp."
      },
      "isComposeMsgSender((uint32,bytes32,uint64),bytes,address)": {
        "notice": "Indicates whether an address is an approved composeMsg sender to the Endpoint."
      },
      "nextNonce(uint32,bytes32)": {
        "notice": "Retrieves the next nonce for a given source endpoint and sender address."
      },
      "oAppVersion()": {
        "notice": "Retrieves the OApp version information."
      },
      "peers(uint32)": {
        "notice": "Retrieves the peer (OApp) associated with a corresponding endpoint."
      },
      "setDelegate(address)": {
        "notice": "Sets the delegate address for the OApp."
      },
      "setPeer(uint32,bytes32)": {
        "notice": "Sets the peer address (OApp instance) for a corresponding endpoint."
      }
    },
    "version": 1
  },
  "storageLayout": {
    "storage": [
      {
        "astId": 5536,
        "contract": "contracts/SpokeBridge.sol:JasmineSpokeBridge",
        "label": "_owner",
        "offset": 0,
        "slot": "0",
        "type": "t_address"
      },
      {
        "astId": 727,
        "contract": "contracts/SpokeBridge.sol:JasmineSpokeBridge",
        "label": "peers",
        "offset": 0,
        "slot": "1",
        "type": "t_mapping(t_uint32,t_bytes32)"
      },
      {
        "astId": 11754,
        "contract": "contracts/SpokeBridge.sol:JasmineSpokeBridge",
        "label": "oftInitCode",
        "offset": 0,
        "slot": "2",
        "type": "t_struct(TransientBytes)13793_storage"
      },
      {
        "astId": 11758,
        "contract": "contracts/SpokeBridge.sol:JasmineSpokeBridge",
        "label": "ofts",
        "offset": 0,
        "slot": "3",
        "type": "t_mapping(t_address,t_address)"
      }
    ],
    "types": {
      "t_address": {
        "encoding": "inplace",
        "label": "address",
        "numberOfBytes": "20"
      },
      "t_bytes32": {
        "encoding": "inplace",
        "label": "bytes32",
        "numberOfBytes": "32"
      },
      "t_mapping(t_address,t_address)": {
        "encoding": "mapping",
        "key": "t_address",
        "label": "mapping(address => address)",
        "numberOfBytes": "32",
        "value": "t_address"
      },
      "t_mapping(t_uint32,t_bytes32)": {
        "encoding": "mapping",
        "key": "t_uint32",
        "label": "mapping(uint32 => bytes32)",
        "numberOfBytes": "32",
        "value": "t_bytes32"
      },
      "t_struct(TransientBytes)13793_storage": {
        "encoding": "inplace",
        "label": "struct TransientBytes",
        "members": [
          {
            "astId": 13792,
            "contract": "contracts/SpokeBridge.sol:JasmineSpokeBridge",
            "label": "__placeholder",
            "offset": 0,
            "slot": "0",
            "type": "t_uint256"
          }
        ],
        "numberOfBytes": "32"
      },
      "t_uint256": {
        "encoding": "inplace",
        "label": "uint256",
        "numberOfBytes": "32"
      },
      "t_uint32": {
        "encoding": "inplace",
        "label": "uint32",
        "numberOfBytes": "4"
      }
    }
  }
}