{
  "address": "0x08B6BbEff9c895A533fE85bC0Beb0F4874021210",
  "abi": [
    {
      "inputs": [
        {
          "internalType": "address",
          "name": "_endpoint",
          "type": "address"
        },
        {
          "internalType": "address",
          "name": "_delegate",
          "type": "address"
        },
        {
          "internalType": "uint32",
          "name": "_rootEid",
          "type": "uint32"
        }
      ],
      "stateMutability": "nonpayable",
      "type": "constructor"
    },
    {
      "inputs": [],
      "name": "ErrorCreatingContract",
      "type": "error"
    },
    {
      "inputs": [],
      "name": "ErrorCreatingProxy",
      "type": "error"
    },
    {
      "inputs": [],
      "name": "InvalidDelegate",
      "type": "error"
    },
    {
      "inputs": [],
      "name": "InvalidEndpointCall",
      "type": "error"
    },
    {
      "inputs": [],
      "name": "LzTokenUnavailable",
      "type": "error"
    },
    {
      "inputs": [
        {
          "internalType": "uint32",
          "name": "eid",
          "type": "uint32"
        }
      ],
      "name": "NoPeer",
      "type": "error"
    },
    {
      "inputs": [
        {
          "internalType": "uint256",
          "name": "msgValue",
          "type": "uint256"
        }
      ],
      "name": "NotEnoughNative",
      "type": "error"
    },
    {
      "inputs": [
        {
          "internalType": "address",
          "name": "underlying",
          "type": "address"
        },
        {
          "internalType": "address",
          "name": "oft",
          "type": "address"
        }
      ],
      "name": "OFTExists",
      "type": "error"
    },
    {
      "inputs": [
        {
          "internalType": "address",
          "name": "addr",
          "type": "address"
        }
      ],
      "name": "OnlyEndpoint",
      "type": "error"
    },
    {
      "inputs": [
        {
          "internalType": "uint32",
          "name": "eid",
          "type": "uint32"
        },
        {
          "internalType": "bytes32",
          "name": "sender",
          "type": "bytes32"
        }
      ],
      "name": "OnlyPeer",
      "type": "error"
    },
    {
      "inputs": [
        {
          "internalType": "address",
          "name": "owner",
          "type": "address"
        }
      ],
      "name": "OwnableInvalidOwner",
      "type": "error"
    },
    {
      "inputs": [
        {
          "internalType": "address",
          "name": "account",
          "type": "address"
        }
      ],
      "name": "OwnableUnauthorizedAccount",
      "type": "error"
    },
    {
      "inputs": [],
      "name": "TargetAlreadyExists",
      "type": "error"
    },
    {
      "anonymous": false,
      "inputs": [
        {
          "indexed": true,
          "internalType": "address",
          "name": "underlying",
          "type": "address"
        },
        {
          "indexed": true,
          "internalType": "address",
          "name": "oft",
          "type": "address"
        }
      ],
      "name": "OFTCreated",
      "type": "event"
    },
    {
      "anonymous": false,
      "inputs": [
        {
          "indexed": true,
          "internalType": "address",
          "name": "previousOwner",
          "type": "address"
        },
        {
          "indexed": true,
          "internalType": "address",
          "name": "newOwner",
          "type": "address"
        }
      ],
      "name": "OwnershipTransferred",
      "type": "event"
    },
    {
      "anonymous": false,
      "inputs": [
        {
          "indexed": false,
          "internalType": "uint32",
          "name": "eid",
          "type": "uint32"
        },
        {
          "indexed": false,
          "internalType": "bytes32",
          "name": "peer",
          "type": "bytes32"
        }
      ],
      "name": "PeerSet",
      "type": "event"
    },
    {
      "inputs": [
        {
          "components": [
            {
              "internalType": "uint32",
              "name": "srcEid",
              "type": "uint32"
            },
            {
              "internalType": "bytes32",
              "name": "sender",
              "type": "bytes32"
            },
            {
              "internalType": "uint64",
              "name": "nonce",
              "type": "uint64"
            }
          ],
          "internalType": "struct Origin",
          "name": "origin",
          "type": "tuple"
        }
      ],
      "name": "allowInitializePath",
      "outputs": [
        {
          "internalType": "bool",
          "name": "",
          "type": "bool"
        }
      ],
      "stateMutability": "view",
      "type": "function"
    },
    {
      "inputs": [
        {
          "internalType": "address",
          "name": "_underlying",
          "type": "address"
        },
        {
          "internalType": "string",
          "name": "_name",
          "type": "string"
        },
        {
          "internalType": "string",
          "name": "_symbol",
          "type": "string"
        },
        {
          "internalType": "bytes32",
          "name": "_peer",
          "type": "bytes32"
        }
      ],
      "name": "createOFT",
      "outputs": [],
      "stateMutability": "nonpayable",
      "type": "function"
    },
    {
      "inputs": [],
      "name": "endpoint",
      "outputs": [
        {
          "internalType": "contract ILayerZeroEndpointV2",
          "name": "",
          "type": "address"
        }
      ],
      "stateMutability": "view",
      "type": "function"
    },
    {
      "inputs": [],
      "name": "getOFTLZEndpoint",
      "outputs": [
        {
          "internalType": "address",
          "name": "",
          "type": "address"
        }
      ],
      "stateMutability": "view",
      "type": "function"
    },
    {
      "inputs": [],
      "name": "getOFTName",
      "outputs": [
        {
          "internalType": "string",
          "name": "",
          "type": "string"
        }
      ],
      "stateMutability": "view",
      "type": "function"
    },
    {
      "inputs": [],
      "name": "getOFTSymbol",
      "outputs": [
        {
          "internalType": "string",
          "name": "",
          "type": "string"
        }
      ],
      "stateMutability": "view",
      "type": "function"
    },
    {
      "inputs": [],
      "name": "getRootEid",
      "outputs": [
        {
          "internalType": "uint32",
          "name": "",
          "type": "uint32"
        }
      ],
      "stateMutability": "view",
      "type": "function"
    },
    {
      "inputs": [],
      "name": "getRootPeer",
      "outputs": [
        {
          "internalType": "bytes32",
          "name": "",
          "type": "bytes32"
        }
      ],
      "stateMutability": "view",
      "type": "function"
    },
    {
      "inputs": [
        {
          "components": [
            {
              "internalType": "uint32",
              "name": "srcEid",
              "type": "uint32"
            },
            {
              "internalType": "bytes32",
              "name": "sender",
              "type": "bytes32"
            },
            {
              "internalType": "uint64",
              "name": "nonce",
              "type": "uint64"
            }
          ],
          "internalType": "struct Origin",
          "name": "",
          "type": "tuple"
        },
        {
          "internalType": "bytes",
          "name": "",
          "type": "bytes"
        },
        {
          "internalType": "address",
          "name": "_sender",
          "type": "address"
        }
      ],
      "name": "isComposeMsgSender",
      "outputs": [
        {
          "internalType": "bool",
          "name": "",
          "type": "bool"
        }
      ],
      "stateMutability": "view",
      "type": "function"
    },
    {
      "inputs": [
        {
          "components": [
            {
              "internalType": "uint32",
              "name": "srcEid",
              "type": "uint32"
            },
            {
              "internalType": "bytes32",
              "name": "sender",
              "type": "bytes32"
            },
            {
              "internalType": "uint64",
              "name": "nonce",
              "type": "uint64"
            }
          ],
          "internalType": "struct Origin",
          "name": "_origin",
          "type": "tuple"
        },
        {
          "internalType": "bytes32",
          "name": "_guid",
          "type": "bytes32"
        },
        {
          "internalType": "bytes",
          "name": "_message",
          "type": "bytes"
        },
        {
          "internalType": "address",
          "name": "_executor",
          "type": "address"
        },
        {
          "internalType": "bytes",
          "name": "_extraData",
          "type": "bytes"
        }
      ],
      "name": "lzReceive",
      "outputs": [],
      "stateMutability": "payable",
      "type": "function"
    },
    {
      "inputs": [
        {
          "internalType": "uint32",
          "name": "",
          "type": "uint32"
        },
        {
          "internalType": "bytes32",
          "name": "",
          "type": "bytes32"
        }
      ],
      "name": "nextNonce",
      "outputs": [
        {
          "internalType": "uint64",
          "name": "nonce",
          "type": "uint64"
        }
      ],
      "stateMutability": "view",
      "type": "function"
    },
    {
      "inputs": [],
      "name": "oAppVersion",
      "outputs": [
        {
          "internalType": "uint64",
          "name": "senderVersion",
          "type": "uint64"
        },
        {
          "internalType": "uint64",
          "name": "receiverVersion",
          "type": "uint64"
        }
      ],
      "stateMutability": "pure",
      "type": "function"
    },
    {
      "inputs": [
        {
          "internalType": "address",
          "name": "underlying",
          "type": "address"
        }
      ],
      "name": "ofts",
      "outputs": [
        {
          "internalType": "address",
          "name": "oft",
          "type": "address"
        }
      ],
      "stateMutability": "view",
      "type": "function"
    },
    {
      "inputs": [],
      "name": "owner",
      "outputs": [
        {
          "internalType": "address",
          "name": "",
          "type": "address"
        }
      ],
      "stateMutability": "view",
      "type": "function"
    },
    {
      "inputs": [
        {
          "internalType": "uint32",
          "name": "eid",
          "type": "uint32"
        }
      ],
      "name": "peers",
      "outputs": [
        {
          "internalType": "bytes32",
          "name": "peer",
          "type": "bytes32"
        }
      ],
      "stateMutability": "view",
      "type": "function"
    },
    {
      "inputs": [
        {
          "internalType": "address",
          "name": "underlying",
          "type": "address"
        }
      ],
      "name": "predictOFTAddress",
      "outputs": [
        {
          "internalType": "address",
          "name": "",
          "type": "address"
        }
      ],
      "stateMutability": "view",
      "type": "function"
    },
    {
      "inputs": [],
      "name": "renounceOwnership",
      "outputs": [],
      "stateMutability": "nonpayable",
      "type": "function"
    },
    {
      "inputs": [],
      "name": "rootEid",
      "outputs": [
        {
          "internalType": "uint32",
          "name": "",
          "type": "uint32"
        }
      ],
      "stateMutability": "view",
      "type": "function"
    },
    {
      "inputs": [
        {
          "internalType": "address",
          "name": "_delegate",
          "type": "address"
        }
      ],
      "name": "setDelegate",
      "outputs": [],
      "stateMutability": "nonpayable",
      "type": "function"
    },
    {
      "inputs": [
        {
          "internalType": "address",
          "name": "_oft",
          "type": "address"
        },
        {
          "internalType": "uint32",
          "name": "_eid",
          "type": "uint32"
        },
        {
          "internalType": "bytes32",
          "name": "_peer",
          "type": "bytes32"
        }
      ],
      "name": "setOFTPeer",
      "outputs": [],
      "stateMutability": "nonpayable",
      "type": "function"
    },
    {
      "inputs": [
        {
          "internalType": "uint32",
          "name": "_eid",
          "type": "uint32"
        },
        {
          "internalType": "bytes32",
          "name": "_peer",
          "type": "bytes32"
        }
      ],
      "name": "setPeer",
      "outputs": [],
      "stateMutability": "nonpayable",
      "type": "function"
    },
    {
      "inputs": [
        {
          "internalType": "address",
          "name": "newOwner",
          "type": "address"
        }
      ],
      "name": "transferOwnership",
      "outputs": [],
      "stateMutability": "nonpayable",
      "type": "function"
    }
  ],
  "transactionHash": "0x158c0ef0160d584a0101e380243c68bc203c8cc98e7407b586ad2eb351149d00",
  "args": [
    "0x6EDCE65403992e310A62460808c4b910D972f10f",
    "0xD4447f8119A025004b720Be6264EbBAFd7220258",
    40245
  ],
  "numDeployments": 3,
  "solcInputHash": "09d5126a74c702dbfe5de3f20b0dfa69",
  "bytecode": "0x60c0346200016557601f620057c838819003918201601f1916830192916001600160401b039182851184861017620001475781606092859260409788528339810103126200016557620000528262000180565b9083620000626020850162000180565b9301519263ffffffff8416840362000165576001600160a01b0390811692831562000169575f80546001600160a01b03198116861782558591908416907f8be0079c531659141344cd1fd0a4f28419497f9722a3daafe3b4186f6b6457e09080a3169182608052823b1562000165575f92602484928751958693849263ca5eb5e160e01b845260048401525af180156200015b5762000136575b505060a052516156329081620001968239608051818181610264015281816104f0015281816106f90152610e6b015260a051816103430152f35b8111620001475782525f80620000fc565b634e487b7160e01b5f52604160045260245ffd5b84513d5f823e3d90fd5b5f80fd5b8551631e4fbdf760e01b81525f6004820152602490fd5b51906001600160a01b0382168203620001655756fe6080604052600436101562000012575f80fd5b5f3560e01c806313137d65146200019a57806317442b701462000194578063243f9bd314620001885780633400288b146200018e57806344ac29eb14620001885780635c47943a14620001825780635cbbcf1e146200017c5780635e280f1114620001765780636c901be81462000170578063715018a6146200016a5780637d25a05e146200016457806382413eac146200015e5780638da5cb5b1462000158578063bb0b6a531462000152578063ca5eb5e1146200014c578063cf7d94141462000146578063d3dda44e1462000140578063d76e2b5c146200013a578063f2fde38b1462000134578063f936e646146200012e578063fe67ec9514620001285763ff7bd03d1462000122575f80fd5b62000b73565b62000b32565b620009cf565b62000867565b6200082a565b6200079f565b62000767565b620006c3565b62000686565b6200065d565b620005f5565b620005cb565b62000570565b6200051f565b620004d9565b6200049c565b6200044c565b62000325565b62000376565b62000302565b620001f9565b6060906003190112620001b257600490565b5f80fd5b9181601f84011215620001b25782359167ffffffffffffffff8311620001b25760208381860195010111620001b257565b6001600160a01b03811603620001b257565b60e0366003190112620001b2576200021136620001a0565b67ffffffffffffffff608435818111620001b25762000235903690600401620001b6565b50506200024460a435620001e7565b60c435908111620001b2576200025f903690600401620001b6565b5050337f00000000000000000000000000000000000000000000000000000000000000006001600160a01b031603620002ea57620002a7620002a18262000bbd565b62000c85565b906020810135809203620002b757005b620002c29062000bbd565b60405163309afaf360e21b815263ffffffff9190911660048201526024810191909152604490fd5b6040516391ac5e4f60e01b8152336004820152602490fd5b34620001b2575f366003190112620001b257604080516001815260026020820152f35b34620001b2575f366003190112620001b257602060405163ffffffff7f0000000000000000000000000000000000000000000000000000000000000000168152f35b63ffffffff811603620001b257565b34620001b2576040366003190112620001b2577f238399d427b947898edb290f5ff0f9109849b1c3ba196a42e35f00c50a54b98b600435620003b88162000367565b60243590620003c662000cbc565b63ffffffff81165f5260016020528160405f2055620003fd604051928392836020909392919363ffffffff60408201951681520152565b0390a1005b5f5b838110620004145750505f910152565b818101518382015260200162000404565b90602091620004408151809281855285808601910162000402565b601f01601f1916010190565b34620001b2575f366003190112620001b25762000498620004806200047062000ce8565b6020808251830101910162000c16565b50505060405191829160208352602083019062000425565b0390f35b34620001b2575f366003190112620001b2576020620004cd620004be62000ce8565b82808251830101910162000c16565b92505050604051908152f35b34620001b2575f366003190112620001b2576040517f00000000000000000000000000000000000000000000000000000000000000006001600160a01b03168152602090f35b34620001b2576020366003190112620001b25760206200055e6004356200054681620001e7565b60601b6bffffffffffffffffffffffff191662000d64565b6040516001600160a01b039091168152f35b34620001b2575f366003190112620001b2576200058c62000cbc565b5f80546001600160a01b0319811682556001600160a01b03167f8be0079c531659141344cd1fd0a4f28419497f9722a3daafe3b4186f6b6457e08280a3005b34620001b2576040366003190112620001b257620005eb60043562000367565b60206040515f8152f35b34620001b25760a0366003190112620001b2576200061336620001a0565b5060643567ffffffffffffffff8111620001b25762000637903690600401620001b6565b505060206084356200064981620001e7565b6040516001600160a01b0390911630148152f35b34620001b2575f366003190112620001b2575f546040516001600160a01b039091168152602090f35b34620001b2576020366003190112620001b25763ffffffff600435620006ac8162000367565b165f526001602052602060405f2054604051908152f35b34620001b2575f6020366003190112620001b257600435620006e581620001e7565b620006ef62000cbc565b6001600160a01b037f000000000000000000000000000000000000000000000000000000000000000081169190823b15620001b25760245f9283604051958694859363ca5eb5e160e01b85521660048401525af18015620007615762000753575080f35b6200075f91506200090b565b005b62000c7a565b34620001b2575f366003190112620001b257602062000789620004be62000ce8565b506040516001600160a01b039091168152915050f35b34620001b2575f6060366003190112620001b257600435620007c181620001e7565b60243590620007d08262000367565b620007da62000cbc565b6001600160a01b0316803b15620001b257604051633400288b60e01b815263ffffffff9290921660048301526044803560248401525f91839190829084905af18015620007615762000753575080f35b34620001b2575f366003190112620001b257620004986200084e6200047062000ce8565b5050905060405191829160208352602083019062000425565b34620001b2576020366003190112620001b2576004356200088881620001e7565b6200089262000cbc565b6001600160a01b03908116908115620008df575f54826001600160601b0360a01b8216175f55167f8be0079c531659141344cd1fd0a4f28419497f9722a3daafe3b4186f6b6457e05f80a3005b604051631e4fbdf760e01b81525f6004820152602490fd5b634e487b7160e01b5f52604160045260245ffd5b67ffffffffffffffff81116200092057604052565b620008f7565b6040810190811067ffffffffffffffff8211176200092057604052565b90601f8019910116810190811067ffffffffffffffff8211176200092057604052565b67ffffffffffffffff81116200092057601f01601f191660200190565b81601f82011215620001b2578035906200099d8262000966565b92620009ad604051948562000943565b82845260208383010111620001b257815f926020809301838601378301015290565b34620001b2576080366003190112620001b257600435620009f081620001e7565b67ffffffffffffffff602435818111620001b25762000a1490369060040162000983565b90604435908111620001b25762000a3090369060040162000983565b9162000a3b62000cbc565b60018060a01b039182821693845f5260036020528360405f20541662000af6579162000a7462000ace9262000aaf946064359162000e2c565b62000a9662000a8262000f31565b6001600160601b03198360601b166200100c565b92839160018060a01b03165f52600360205260405f2090565b80546001600160a01b0319166001600160a01b03909216919091179055565b16907fa9ab3b830cf03eb96666f30521934e9afb8565a4c8c72249142cd1493d0d88cd5f80a3005b6001600160a01b038381165f8181526003602052604090819020549051637a1c3bdb60e01b815260048101929092529091166024820152604490fd5b34620001b2576020366003190112620001b257602060043562000b5581620001e7565b60018060a01b038091165f526003825260405f205416604051908152f35b34620001b2576060366003190112620001b257602062000b9336620001a0565b63ffffffff813562000ba58162000367565b165f526001825260405f205482604051920135148152f35b3562000bc98162000367565b90565b81601f82011215620001b257805162000be58162000966565b9262000bf5604051948562000943565b81845260208284010111620001b25762000bc9916020808501910162000402565b919091608081840312620001b257805167ffffffffffffffff90818111620001b2578462000c4691840162000bcc565b936020830151918211620001b25762000c6191830162000bcc565b916060604083015162000c7481620001e7565b92015190565b6040513d5f823e3d90fd5b63ffffffff16805f52600160205260405f205490811562000ca4575090565b6024906040519063f6ff4fb760e01b82526004820152fd5b5f546001600160a01b0316330362000cd057565b60405163118cdaa760e01b8152336004820152602490fd5b604051905f825260025c601c830152815190602091601c60208286010191826040521162000d1557509050565b60025f527f405787fa12a823e0f2b7631cc41b3ba8828b3321ca811111fa75cd3aa3bb5ace9280603c86015b855c8152019382851162000d5b5760010193819062000d41565b50505f91925052565b60405190602082019060ff60f81b82523060601b602184015260358301527f21c35dbe1b344a2488cf3321d6ce542f8e9f305544ff09e4993a62319a497c1f605583015260558252608082019180831067ffffffffffffffff84111762000920578262000e209262000bc994604052825190209160a08101926135a560f21b84526001600160601b03199060601b1660a282015260b6600160f81b9101526017815262000e118162000926565b5190206001600160a01b031690565b6001600160a01b031690565b919062000ead90604051809362000e6962000e556020976080602086015260a085019062000425565b601f19948585830301604086015262000425565b7f00000000000000000000000000000000000000000000000000000000000000006001600160a01b0316606084015260808301919091520390810183528262000943565b80519163ffffffff831162000f2457601c82015160025d601c831162000ed257505050565b60025f5280601f7f405787fa12a823e0f2b7631cc41b3ba8828b3321ca811111fa75cd3aa3bb5ace94603c8501940101925b8051855d019282841162000f1e5760010192819062000f04565b50505050565b6354ef47ee5f526004601cfd5b62000f8d62000bc961454e6020906040519062000f518382018362000943565b80825282820190620010af823960405162000f9d8482019230845285835262000f7a8362000926565b6040519788955180928888019062000402565b8401915180938684019062000402565b0103808452018262000943565b6040519062000fb98262000926565b601082526f67363d3d37363d34f03d5260086018f360801b6020830152565b3d1562001007573d9062000fec8262000966565b9162000ffc604051938462000943565b82523d5f602084013e565b606090565b91906200101862000faa565b92620010248162000d64565b93843b6200109c576020815191015ff56001600160a01b038116156200108a57815f92918360208194519301915af16200105d62000fd8565b5015801562001080575b6200106e57565b6040516353de54b960e01b8152600490fd5b50813b1562001067565b60405163bbd2fe8760e01b8152600490fd5b60405163cd43efa160e01b8152600490fdfe6101a0604081815234620006e3575f906200454e8038038091620000248287620007cd565b85396001600160a01b0393849162000040919081019062000805565b16815191632e23ca1d60e11b908184526004945f858781875afa948515620007a3575f95620007ad575b5081519283525f838781875afa928315620007a3575f9362000783575b5081516335db8ad760e21b8152965f888881885afa97881562000779575f9862000750575b5082516333df650560e21b8152966020808983818a5afa98891562000746575f9962000710575b5084516001600160401b039a9099908a87018c81118c821017620006fd578752600194858c52838c0192603160f81b84528a15620006e7575f80546001600160a01b031981168d1782558c91908416907f8be0079c531659141344cd1fd0a4f28419497f9722a3daafe3b4186f6b6457e09080a3169788608052883b15620006e3575f98898951809263ca5eb5e160e01b82528d898301528160249d8e925af18015620006d957620006b1575b5064e8d4a5100060a05280518d8111620005cf57600854918783811c93168015620006a6575b86841014620005b2578190601f9384811162000652575b508690848311600114620005ed578a92620005e1575b50505f19600383901b1c191690871b176008555b8151918d8311620005cf576009548781811c91168015620005c4575b86821014620005b257908183859493116200055c575b5085918311600114620004f7578892620004eb575b50505f19600383901b1c191690851b176009555b6200024d89620008bd565b976101609889526200025f8b62000a6f565b996101809a8b52838151910120916101209b838d525190209161014098838a524660e052885193858501927f8b73c3c69bb8fe3d512ecc4cf759cc79239f7b179b0ffacaa9a75d522b39400f84528a86015260608501524660808501523060a085015260a0845260c08401809e858210911117620004d957508c88528251902060c05230610100908152600d80546001600160901b03191664030d4000001790556344ac29eb60e01b8d529b83818681855afa928315620004cf5790849291889462000485575b50508751632e5de78f60e11b815294859182905afa9283156200047b57908694939291869362000438575b50847f238399d427b947898edb290f5ff0f9109849b1c3ba196a42e35f00c50a54b98b9663ffffffff85931695868252845220558351928352820152a15193613990958662000bbe873960805186818161078401528181610edf0152818161182a01528181611942015281816128ee01528181612e6501526134e2015260a051868181610b8c015281816112e401528181611e2c015281816122c2015281816126e901528181612ca401526131bf015260c051866125bd015260e05186612678015251856125870152518461260c0152518361263201525182611108015251816111310152f35b82809650819392959794503d831162000473575b620004588183620007cd565b810103126200046f57519093859390928462000351565b5080fd5b503d6200044c565b86513d87823e3d90fd5b9092809294503d8311620004c7575b620004a08185620007cd565b81010312620004c3575163ffffffff81168103620004c3578290915f8062000326565b8580fd5b503d62000494565b88513d89823e3d90fd5b634e487b7160e01b5f90815260418752fd5b015190505f806200022e565b600989528589208894509190601f1984168a5b888282106200054557505084116200052c575b505050811b0160095562000242565b01515f1960f88460031b161c191690555f80806200051d565b8385015186558b979095019493840193016200050a565b90919250600989528589208380860160051c820192888710620005a8575b9186958b929594930160051c01915b8281106200059957505062000219565b8b81558695508a910162000589565b925081926200057a565b634e487b7160e01b8952602287528a89fd5b90607f169062000203565b634e487b7160e01b8852604186528988fd5b015190505f80620001d3565b60088b52878b208a94509190601f1984168c5b8a8282106200063b575050841162000622575b505050811b01600855620001e7565b01515f1960f88460031b161c191690555f808062000613565b8385015186558d9790950194938401930162000600565b90915060088a52868a208480850160051c8201928986106200069c575b918b91869594930160051c01915b8281106200068d575050620001bd565b8c81558594508b91016200067d565b925081926200066f565b92607f1692620001a6565b9096508c8111620006c75787525f955f62000180565b88604186634e487b7160e01b5f52525ffd5b89513d5f823e3d90fd5b5f80fd5b8851631e4fbdf760e01b81525f81880152602490fd5b604185634e487b7160e01b5f525260245ffd5b8162000736929a503d8b116200073e575b6200072d8183620007cd565b81019062000805565b975f620000d3565b503d62000721565b85513d5f823e3d90fd5b620007719198503d805f833e620007688183620007cd565b81019062000849565b965f620000ac565b83513d5f823e3d90fd5b6200079b9193503d805f833e620007688183620007cd565b915f62000087565b82513d5f823e3d90fd5b620007c59195503d805f833e620007688183620007cd565b935f6200006a565b601f909101601f19168101906001600160401b03821190821017620007f157604052565b634e487b7160e01b5f52604160045260245ffd5b90816020910312620006e357516001600160a01b0381168103620006e35790565b5f5b838110620008385750505f910152565b818101518382015260200162000828565b602081830312620006e35780516001600160401b0391828211620006e357019082601f83011215620006e3578151908111620007f1576040519262000899601f8301601f191660200185620007cd565b81845260208284010111620006e357620008ba916020808501910162000826565b90565b8051602090818110156200093a5750601f825111620008f85780825192015190808310620008ea57501790565b825f19910360031b1b161790565b6044906200092c9260405193849263305a27a960e01b84528060048501528251928391826024870152868601910162000826565b601f01601f19168101030190fd5b906001600160401b038211620007f157600a54926001938481811c9116801562000a64575b8382101462000a5057601f811162000a19575b5081601f8411600114620009b157509282939183925f94620009a5575b50501b915f199060031b1c191617600a5560ff90565b015192505f806200098f565b919083601f198116600a5f52845f20945f905b88838310620009fe5750505010620009e5575b505050811b01600a5560ff90565b01515f1960f88460031b161c191690555f8080620009d7565b858701518855909601959485019487935090810190620009c4565b600a5f5284601f845f20920160051c820191601f860160051c015b82811062000a4457505062000972565b5f815501859062000a34565b634e487b7160e01b5f52602260045260245ffd5b90607f16906200095f565b80516020908181101562000a9c5750601f825111620008f85780825192015190808310620008ea57501790565b906001600160401b038211620007f157600b54926001938481811c9116801562000bb2575b8382101462000a5057601f811162000b7b575b5081601f841160011462000b1357509282939183925f9462000b07575b50501b915f199060031b1c191617600b5560ff90565b015192505f8062000af1565b919083601f198116600b5f52845f20945f905b8883831062000b60575050501062000b47575b505050811b01600b5560ff90565b01515f1960f88460031b161c191690555f808062000b39565b85870151885590960195948501948793509081019062000b26565b600b5f5284601f845f20920160051c820191601f860160051c015b82811062000ba657505062000ad4565b5f815501859062000b96565b90607f169062000ac156fe60806040526004361015610011575f80fd5b5f3560e01c806306fdde031461034f5780630711beba1461034a578063095ea7b3146103455780630d35b41514610340578063111ecdad1461033b57806313137d6514610336578063134d4f2514610331578063156a0d0f1461032c57806317442b701461032757806318160ddd146103225780631f5e13341461031d57806323b872dd14610318578063313ce567146103135780633400288b1461030e5780633644e515146103095780633933f370146103045780633b6f743b146102ff57806352ae28791461025f5780635535d461146102fa5780635a0dfe4d146102f55780635cbbcf1e146102f05780635e280f11146102eb5780636fc1b31e146102e657806370a08231146102e1578063715018a6146102dc57806375da531f146102d75780637d25a05e146102d25780637ecebe00146102cd57806382413eac146102c857806384b0196e146102c3578063857749b0146102be5780638da5cb5b146102b957806395d89b41146102b4578063963efcaa146102af5780639f68b964146102aa578063a9059cbb146102a5578063b731ea0a146102a0578063b98bd0701461029b578063bb0b6a5314610296578063bc70b35414610291578063bd815db01461028c578063c7c7f5b314610287578063ca5eb5e114610282578063d045a0dc1461027d578063d424388514610278578063d505accf14610273578063dd62ed3e1461026e578063df7482fd14610269578063f2fde38b14610264578063fc0c546a1461025f578063fd40baaf1461025a5763ff7bd03d14610255575f80fd5b611ef8565b611cd0565b610c23565b611c42565b611bef565b611b90565b611a57565b6119e7565b61188d565b6117fa565b6116da565b61153d565b6114e5565b6114ac565b6113bf565b61134b565b611321565b611307565b6112cd565b611228565b611201565b6111e6565b6110f0565b611092565b611057565b611031565b611010565b610fb9565b610f7e565b610f0e565b610eca565b610e9f565b610e59565b610dda565b610b30565b610afd565b610adb565b610a56565b610a2d565b6109ed565b6109d2565b6109b5565b610994565b61096e565b610953565b610769565b61069d565b6105f9565b61050d565b6104a8565b6103bc565b5f91031261035e57565b5f80fd5b5f5b8381106103735750505f910152565b8181015183820152602001610364565b9060209161039c81518092818552858086019101610362565b601f01601f1916010190565b9060206103b9928181520190610383565b90565b3461035e575f36600319011261035e576040515f6008546103dc81610c3d565b808452906020906001908181169081156104725750600114610419575b6104158561040981870382610db9565b604051918291826103a8565b0390f35b60085f90815293507ff3f7a9fe364faab93b216da50a3214154f22a0a2b415b23a84c8169e8b636ee35b83851061045f57505050508101602001610409826104156103f9565b8054868601840152938201938101610443565b8695506104159693506020925061040994915060ff191682840152151560051b82010192936103f9565b61ffff81160361035e57565b3461035e57602036600319011261035e5761ffff6004356104c88161049c565b6104d061228e565b166103e881116104ea5761ffff19600d541617600d555f80f35b60405163b4fa3fb360e01b8152600490fd5b6001600160a01b0381160361035e57565b3461035e57604036600319011261035e5761053760043561052d816104fc565b6024359033613117565b602060405160018152f35b908160e091031261035e5790565b93929161056b8560a081019360208091805184520151910152565b60409160a06040870152815180915260c086019160c08260051b880101936020809201935f915b8483106105ba575050505050509060606105b89294019060208091805184520151910152565b565b90919293949584806105e96001938d60bf1990820301875285838c518051845201519181858201520190610383565b9801930193019194939290610592565b3461035e57602036600319011261035e576001600160401b0360043581811161035e5761062a903690600401610542565b90610633611f75565b5061063c611f75565b506040519061064a82610d1a565b5f825260208201526104156106816040519361066585610d68565b5f855261067181611f8d565b50604060608201359101356122b9565b610689611f3c565b918252602082015260405193849384610550565b3461035e575f36600319011261035e576004546040516001600160a01b039091168152602090f35b606090600319011261035e57600490565b9181601f8401121561035e578235916001600160401b03831161035e576020838186019501011161035e57565b600319810160e0811261035e5760601361035e57600491606435916001600160401b039060843582811161035e578161073e916004016106d6565b9390939260a43561074e816104fc565b9260c43591821161035e57610765916004016106d6565b9091565b61077236610703565b50929492506001600160a01b039190507f0000000000000000000000000000000000000000000000000000000000000000821633810361093b5783356107b781610a48565b6107c081612313565b9060208601358092036109065750506107e86107dc8388613193565b6001600160a01b031690565b916107fb6107f6828961319f565b6131b1565b809761080687611f8d565b506108118286613865565b6028831161085f575b5050505061085a6108385f8051602061393b83398151915294611f8d565b956040519384931696836020909392919363ffffffff60408201951681520152565b0390a3005b9061088a929161088461087460408a01612349565b9361087e8a611f8d565b926131e5565b92613201565b90803b1561035e57604051633e5ac80960e11b8152915f9183918290849082906108b9908c8a60048501612353565b03925af18015610901575f8051602061393b8339815191529461085a92610838926108e8575b8891965061081a565b806108f56108fb92610d3a565b80610354565b5f6108df565b6121ed565b61090f81610a48565b60405163309afaf360e21b815263ffffffff9190911660048201526024810191909152604490fd5b0390fd5b6040516391ac5e4f60e01b8152336004820152602490fd5b3461035e575f36600319011261035e57602060405160028152f35b3461035e575f36600319011261035e576040805162b9270b60e21b815260016020820152f35b3461035e575f36600319011261035e57604080516001815260026020820152f35b3461035e575f36600319011261035e576020600754604051908152f35b3461035e575f36600319011261035e57602060405160018152f35b3461035e57606036600319011261035e57610537600435610a0d816104fc565b602435610a19816104fc565b60443591610a2883338361237d565b61246d565b3461035e575f36600319011261035e57602060405160128152f35b63ffffffff81160361035e57565b3461035e57604036600319011261035e577f238399d427b947898edb290f5ff0f9109849b1c3ba196a42e35f00c50a54b98b600435610a9481610a48565b60243590610aa061228e565b63ffffffff81165f5260016020528160405f2055610ad6604051928392836020909392919363ffffffff60408201951681520152565b0390a1005b3461035e575f36600319011261035e576020610af5612584565b604051908152f35b3461035e575f36600319011261035e5760206001600160801b03600d5460101c16604051908152f35b8015150361035e57565b3461035e57604036600319011261035e576004356001600160401b03811161035e57610b60903690600401610542565b60243590610b6d82610b26565b610b75611f75565b506060810135813591610b8783610a48565b610bbe7f0000000000000000000000000000000000000000000000000000000000000000610bb98160408501356130f9565b613180565b91808310610c0557610415610be78686610bd887876126d8565b91610be281610a48565b612950565b60405191829182815181526020918201519181019190915260400190565b82604491604051916371c4efed60e01b835260048301526024820152fd5b3461035e575f36600319011261035e576020604051308152f35b90600182811c92168015610c6b575b6020831014610c5757565b634e487b7160e01b5f52602260045260245ffd5b91607f1691610c4c565b80545f9392610c8382610c3d565b918282526020936001916001811690815f14610ce75750600114610ca9575b5050505050565b90939495505f92919252835f2092845f945b838610610cd357505050500101905f80808080610ca2565b805485870183015294019385908201610cbb565b60ff19168685015250505090151560051b010191505f80808080610ca2565b634e487b7160e01b5f52604160045260245ffd5b604081019081106001600160401b03821117610d3557604052565b610d06565b6001600160401b038111610d3557604052565b606081019081106001600160401b03821117610d3557604052565b602081019081106001600160401b03821117610d3557604052565b60a081019081106001600160401b03821117610d3557604052565b60c081019081106001600160401b03821117610d3557604052565b90601f801991011681019081106001600160401b03821117610d3557604052565b3461035e57604036600319011261035e57610415610e3e610e45610e32600435610e0381610a48565b63ffffffff60243591610e158361049c565b165f52600360205260405f209061ffff165f5260205260405f2090565b60405192838092610c75565b0382610db9565b604051918291602083526020830190610383565b3461035e57604036600319011261035e576020610e95600435610e7b81610a48565b6024359063ffffffff165f52600160205260405f20541490565b6040519015158152f35b3461035e575f36600319011261035e5760206001600160a01b03610ec16129d1565b16604051908152f35b3461035e575f36600319011261035e576040517f00000000000000000000000000000000000000000000000000000000000000006001600160a01b03168152602090f35b3461035e57602036600319011261035e577ff0be4f1e87349231d80c36b33f9e8639658eeaf474014dee15a3e6a4d44141976020600435610f4e816104fc565b610f5661228e565b600480546001600160a01b0319166001600160a01b03929092169182179055604051908152a1005b3461035e57602036600319011261035e57600435610f9b816104fc565b60018060a01b03165f526005602052602060405f2054604051908152f35b3461035e575f36600319011261035e57610fd161228e565b5f80546001600160a01b0319811682556001600160a01b03167f8be0079c531659141344cd1fd0a4f28419497f9722a3daafe3b4186f6b6457e08280a3005b3461035e575f36600319011261035e57602061ffff600d5416604051908152f35b3461035e57604036600319011261035e5761104d600435610a48565b60206040515f8152f35b3461035e57602036600319011261035e57600435611074816104fc565b60018060a01b03165f52600c602052602060405f2054604051908152f35b3461035e5760a036600319011261035e576110ac366106c5565b506064356001600160401b03811161035e576110cc9036906004016106d6565b505060206084356110dc816104fc565b6040516001600160a01b0390911630148152f35b3461035e575f36600319011261035e5761118961112c7f00000000000000000000000000000000000000000000000000000000000000006132ee565b6111557f00000000000000000000000000000000000000000000000000000000000000006133ec565b6040519061116282610d68565b5f8252611197602091604051958695600f60f81b875260e0602088015260e0870190610383565b908582036040870152610383565b4660608501523060808501525f60a085015283810360c0850152602080845192838152019301915f5b8281106111cf57505050500390f35b8351855286955093810193928101926001016111c0565b3461035e575f36600319011261035e57602060405160068152f35b3461035e575f36600319011261035e575f546040516001600160a01b039091168152602090f35b3461035e575f36600319011261035e576040515f60095461124881610c3d565b808452906020906001908181169081156104725750600114611274576104158561040981870382610db9565b60095f90815293507f6e1540171b6c0c960b71a7020d9f60077f6af931a8bbf590da0223dacf75c7af5b8385106112ba57505050508101602001610409826104156103f9565b805486860184015293820193810161129e565b3461035e575f36600319011261035e5760206040517f00000000000000000000000000000000000000000000000000000000000000008152f35b3461035e575f36600319011261035e5760206040515f8152f35b3461035e57604036600319011261035e57610537600435611341816104fc565b602435903361246d565b3461035e575f36600319011261035e576002546040516001600160a01b039091168152602090f35b90602060031983011261035e576004356001600160401b039283821161035e578060238301121561035e57816004013593841161035e5760248460051b8301011161035e576024019190565b3461035e576113cd36611373565b6113d561228e565b5f5b81811061141057507fbe4864a8e820971c0247f5992e2da559595f7bf076a21cb5928d443d2a13b67491610ad660405192839283612b7f565b806114a66114a16114246001948688612a3c565b61143c61143660409283810190612126565b90612c5b565b61145361144a85888a612a3c565b82810190612126565b92909163ffffffff611466878a8c612a3c565b3561147081610a48565b165f52611491602091600383525f209161148b888b8d612a3c565b01612a5e565b61ffff165f5260205260405f2090565b612ab7565b016113d7565b3461035e57602036600319011261035e5763ffffffff6004356114ce81610a48565b165f526001602052602060405f2054604051908152f35b3461035e57606036600319011261035e5760043561150281610a48565b60243561150e8161049c565b604435906001600160401b03821161035e5761041592611535610e459336906004016106d6565b929091612054565b61154636611373565b5f5b8181106115b157604051638e9e709960e01b81525f81600481335afa801561090157610937915f9161158f575b50604051638351eea760e01b8152918291600483016103a8565b6115ab91503d805f833e6115a38183610db9565b8101906121f8565b82611575565b6115bc8183856120fe565b906115ec6115e86115cc84611f8d565b60208501359063ffffffff165f52600160205260405f20541490565b1590565b611680576115fe610100830183612126565b9261160b60e08201612158565b9061161a610120820182612126565b959095303b1561035e575f9461164f60c092604051998a9788968795633411683760e21b875260a08a01358a60048901612173565b03920135305af19182156109015760019261166d575b505b01611548565b806108f561167a92610d3a565b5f611665565b60019150611667565b9160806105b89294936116c9604060c0830197805184526001600160401b0360208201511660208501520151604083019060208091805184520151910152565b019060208091805184520151910152565b608036600319011261035e576004356001600160401b03811161035e57611705903690600401610542565b604036602319011261035e576064359061171e826104fc565b611726612256565b5061172f611f75565b50803561173b81610a48565b6117876117516060840135604085013533612c98565b94909261175e86866126d8565b9061176883610a48565b6040519261177584610d1a565b60243584526044356020850152612ddc565b917f85496b760a4b7f8d66384b9df21b381f5d1b1e79f229a47aaf4c232edc2fe59a6117b1611f3c565b948386528060208701526117c6855193611f8d565b6040805163ffffffff9092168252602082019590955293840152339280606081015b0390a361041560405192839283611689565b3461035e575f602036600319011261035e57600435611818816104fc565b61182061228e565b6001600160a01b037f000000000000000000000000000000000000000000000000000000000000000081169190823b1561035e5760245f9283604051958694859363ca5eb5e160e01b85521660048401525af1801561090157611881575080f35b61188b9150610d3a565b005b61189636610703565b50505092903033036119d5576118af6107dc8583613193565b936118bd6107f6828461319f565b916118c784611f8d565b506118d28387613865565b60288211611920575b50506118f45f8051602061393b83398151915292611f8d565b6040805163ffffffff909216825260208201929092526001600160a01b0390941693908190810161085a565b908261193f9261088461193560408801612349565b9361087e88611f8d565b917f00000000000000000000000000000000000000000000000000000000000000006001600160a01b0316803b1561035e57604051633e5ac80960e11b8152935f918591829084908290611998908b8d60048501612353565b03925af1908115610901575f8051602061393b833981519152936118f4926119c2575b50926118db565b806108f56119cf92610d3a565b5f6119bb565b60405163029a949d60e31b8152600490fd5b3461035e57602036600319011261035e577fd48d879cef83a1c0bdda516f27b13ddb1b3f8bbac1c9e1511bb2a659c24277606020600435611a27816104fc565b611a2f61228e565b600280546001600160a01b0319166001600160a01b03929092169182179055604051908152a1005b3461035e5760e036600319011261035e57600435611a74816104fc565b602435611a80816104fc565b6044359060643560843560ff8116810361035e57814211611b77576001600160a01b038581165f818152600c602090815260409182902080546001810190915582517f6e71edae12b1b97f4d1f60370fef10105fa2faae0126114a169c64845d6126c992810192835292830184905287851660608401526080830189905260a083015260c08083019690965294815291939092611b3b9290611b2360e083610db9565b611b3660c4359360a43593519020612ed8565b612efe565b91821603611b4d575061188b92613117565b6040516325c0072360e11b81526001600160a01b0391821660048201529084166024820152604490fd5b60405163313c898160e11b815260048101839052602490fd5b3461035e57604036600319011261035e576020611be6600435611bb2816104fc565b60243590611bbf826104fc565b60018060a01b03165f526006835260405f209060018060a01b03165f5260205260405f2090565b54604051908152f35b3461035e57602036600319011261035e576004356001600160801b038116810361035e57611c1b61228e565b62010000600160901b03600d549160101b169062010000600160901b03191617600d555f80f35b3461035e57602036600319011261035e57600435611c5f816104fc565b611c6761228e565b6001600160a01b03908116908115611cb8575f54826bffffffffffffffffffffffff60a01b8216175f55167f8be0079c531659141344cd1fd0a4f28419497f9722a3daafe3b4186f6b6457e05f80a3005b604051631e4fbdf760e01b81525f6004820152602490fd5b3461035e57608036600319011261035e57600435611ced816104fc565b602435611cf9816104fc565b606435916044356001600160401b03841161035e577f85496b760a4b7f8d66384b9df21b381f5d1b1e79f229a47aaf4c232edc2fe59a611e9e611d43611e1e9636906004016106d6565b9095611d4d612256565b50611d56611f75565b506001600160a01b03861695611d8790338803611ee8575b86611d7881612f2a565b91611d81612f5c565b50612c98565b989097611dc7611dad611d98612fab565b600d5460101c6001600160801b031690612fc5565b948592611db8612f5c565b99611dc16129d1565b966130aa565b611dde611dd2611f49565b63ffffffff9099168952565b602088019384528960408901528a6060890152816080890152611dff61227c565b908160a08a015260c0890152611e19885163ffffffff1690565b612884565b905191611e89611e5d611e517f00000000000000000000000000000000000000000000000000000000000000008c6130f9565b6001600160401b031690565b60408051602081019690965260c09190911b6001600160c01b0319169085015260288452604884610db9565b3392611e99875163ffffffff1690565b612ddc565b93611ea7611f3c565b958187528060208801526117e8611ec48751955163ffffffff1690565b916040519384938460409194939263ffffffff606083019616825260208201520152565b611ef387338361237d565b611d6e565b3461035e57606036600319011261035e576020611f14366106c5565b63ffffffff8135611f2481610a48565b165f526001825260405f205482604051920135148152f35b604051906105b882610d1a565b6040519060e082018281106001600160401b03821117610d3557604052565b604051906105b882610d83565b60405190611f8282610d1a565b5f6020838281520152565b356103b981610a48565b6001600160401b038111610d3557601f01601f191660200190565b929192611fbe82611f97565b91611fcc6040519384610db9565b82948184528183011161035e578281602093845f960137010152565b602090836105b893959495604051968361200b8995518092888089019101610362565b84019185830137015f83820152038085520183610db9565b908060209392818452848401375f828201840152601f01601f1916010190565b9160206103b9938181520191612023565b610e32610e3e9263ffffffff61208193165f52600360205260405f209061ffff165f5260205260405f2090565b8051156120de5782156120d85760028310156120b45750610937604051928392639a6d49cd60e01b845260048401612043565b6120be8383612c5b565b8260021161035e576103b992600119019160020190611fe8565b91505090565b506103b9913691611fb2565b634e487b7160e01b5f52603260045260245ffd5b91908110156121215760051b8101359061013e198136030182121561035e570190565b6120ea565b903590601e198136030182121561035e57018035906001600160401b03821161035e5760200191813603831361035e57565b356103b9816104fc565b6001600160401b0381160361035e57565b9290936121cf926001600160401b0360406103b99a98999763ffffffff813561219b81610a48565b1688526020810135602089015201356121b381612162565b166040860152606085015260e0608085015260e0840191612023565b6001600160a01b0390941660a082015280840360c090910152612023565b6040513d5f823e3d90fd5b60208183031261035e578051906001600160401b03821161035e570181601f8201121561035e57805161222a81611f97565b926122386040519485610db9565b8184526020828401011161035e576103b99160208085019101610362565b6040519061226382610d4d565b815f81525f60208201526040612277611f75565b910152565b6040519061228982610d68565b5f8252565b5f546001600160a01b031633036122a157565b60405163118cdaa760e01b8152336004820152602490fd5b6122e890610bb97f000000000000000000000000000000000000000000000000000000000000000080926130f9565b9182918084106122f55750565b83604491604051916371c4efed60e01b835260048301526024820152fd5b63ffffffff16805f52600160205260405f2054908115612331575090565b6024906040519063f6ff4fb760e01b82526004820152fd5b356103b981612162565b6103b9939260809260018060a01b0316825260208201525f60408201528160608201520190610383565b6001600160a01b038181165f8181526006602090815260408083208786168452909152902054929493929190600183016123ba575b505050505050565b84831061243e57156124265782161561240e57612402926123ed91039360018060a01b03165f52600660205260405f2090565b9060018060a01b03165f5260205260405f2090565b555f80808080806123b2565b604051634a1406b160e11b81525f6004820152602490fd5b60405163e602df0560e01b81525f6004820152602490fd5b604051637dc7a0d960e11b81526001600160a01b03851660048201526024810184905260448101869052606490fd5b916001600160a01b038084169290831561256c578116938415612554576001600160a01b0381165f90815260056020526040902054838110612525576125209284926124f07fddf252ad1be2c89b69c2b068fc378daa952ba7f163c4a11628f55a4df523b3ef9661250a94039160018060a01b03165f52600560205260405f2090565b556001600160a01b03165f90815260056020526040902090565b8054820190556040519081529081906020820190565b0390a3565b60405163391434e360e21b81526001600160a01b03929092166004830152602482015260448101839052606490fd5b60405163ec442f0560e01b81525f6004820152602490fd5b604051634b637e8f60e11b81525f6004820152602490fd5b307f00000000000000000000000000000000000000000000000000000000000000006001600160a01b03161480612675575b156125df577f000000000000000000000000000000000000000000000000000000000000000090565b60405160208101907f8b73c3c69bb8fe3d512ecc4cf759cc79239f7b179b0ffacaa9a75d522b39400f82527f000000000000000000000000000000000000000000000000000000000000000060408201527f000000000000000000000000000000000000000000000000000000000000000060608201524660808201523060a082015260a0815261266f81610d9e565b51902090565b507f000000000000000000000000000000000000000000000000000000000000000046146125b6565b9081602091031261035e57516103b981610b26565b90916126ca6103b993604084526040840190610383565b916020818403910152610383565b909161273061270e611e51612756957f0000000000000000000000000000000000000000000000000000000000000000906130f9565b61272561271e60a0860186612126565b3691611fb2565b90602085013561325e565b93909283945f146127d2576002905b61153561274b82611f8d565b916080810190612126565b60045490926001600160a01b0390911690838261277257505050565b60405163043a78eb60e01b81529260209284928391829161279691600484016126b3565b03915afa8015610901576127a75750565b6127c89060203d6020116127cb575b6127c08183610db9565b81019061269e565b50565b503d6127b6565b60019061273f565b919082604091031261035e576040516127f281610d1a565b6020808294805184520151910152565b9060408282031261035e576103b9916127da565b906020909392936040835263ffffffff8151166040840152818101516060840152608061286a612854604084015160a08488015260e0870190610383565b6060840151868203603f190160a0880152610383565b910151151560c08401526001600160a01b03909416910152565b916128ea9192612892611f75565b5061289c81612313565b9160409485936128bb8551946128b186610d83565b63ffffffff168552565b60208401528383015260608201525f6080820152815180938192631bb8518b60e31b8352309060048401612816565b03817f00000000000000000000000000000000000000000000000000000000000000006001600160a01b03165afa918215610901575f9261292a57505090565b6103b99250803d10612949575b6129418183610db9565b810190612802565b503d612937565b6129a16128ea939294612961611f75565b5061296b83612313565b93604096879561298a87519661298088610d83565b63ffffffff168752565b602086015285850152606084015215156080830152565b815180938192631bb8518b60e31b8352309060048401612816565b9081602091031261035e57516103b981610a48565b5f546040516344ac29eb60e01b815290602090829060049082906001600160a01b03165afa8015610901576103b9915f91612a0d575b50612313565b612a2f915060203d602011612a35575b612a278183610db9565b8101906129bc565b5f612a07565b503d612a1d565b91908110156121215760051b81013590605e198136030182121561035e570190565b356103b98161049c565b601f8211612a7557505050565b5f5260205f20906020601f840160051c83019310612aad575b601f0160051c01905b818110612aa2575050565b5f8155600101612a97565b9091508190612a8e565b9092916001600160401b038111610d3557612adc81612ad68454610c3d565b84612a68565b5f601f8211600114612b1a578190612b0b9394955f92612b0f575b50508160011b915f199060031b1c19161790565b9055565b013590505f80612af7565b601f19821694612b2d845f5260205f2090565b915f5b878110612b67575083600195969710612b4e575b505050811b019055565b01355f19600384901b60f8161c191690555f8080612b44565b90926020600181928686013581550194019101612b30565b916020908082850183865252604091604085019460408360051b82010195855f925b858410612bb357505050505050505090565b9091929394959697603f198282030184528835605e198436030181121561035e57830160609063ffffffff8135612be981610a48565b16835261ffff88820135612bfc8161049c565b168884015289810135601e198236030181121561035e5701908782359201926001600160401b03831161035e57823603841361035e576001938993838386958f612c499601520191612023565b9a019401940192969594939190612ba1565b908060021161035e576003823560f01c03612c74575050565b610937604051928392639a6d49cd60e01b8452602060048501526024840191612023565b919290612cca90610bb97f000000000000000000000000000000000000000000000000000000000000000080926130f9565b928084106122f5575082916001600160a01b038116908390821561256c576001600160a01b0381165f90815260056020526040902054828110612d6a57827fddf252ad1be2c89b69c2b068fc378daa952ba7f163c4a11628f55a4df523b3ef92612d4c5f969561252094039160018060a01b03165f52600560205260405f2090565b55612d5a8160075403600755565b6040519081529081906020820190565b60405163391434e360e21b81526001600160a01b0392909216600483015260248201526044810191909152606490fd5b9060808282031261035e57612dd4906040805193612db785610d4d565b805185526020810151612dc981612162565b6020860152016127da565b604082015290565b612e4560809492612e619694612df0612256565b506020612dfd86516134a9565b950191825180612ec9575b50612e1285612313565b9251151592612e2e612e22611f68565b63ffffffff9097168752565b602086015260408501526060840152151585830152565b6040518095819482936302637a4560e41b845260048401612816565b03917f00000000000000000000000000000000000000000000000000000000000000006001600160a01b03165af1908115610901575f91612ea0575090565b6103b9915060803d608011612ec2575b612eba8183610db9565b810190612d9a565b503d612eb0565b612ed2906134cb565b5f612e08565b604290612ee3612584565b906040519161190160f01b8352600283015260228201522090565b916103b99391612f0d9361363b565b909291926136bd565b634e487b7160e01b5f52601160045260245ffd5b600d5461ffff919082168015612f56576127100391808311612f51576103b992169061374a565b612f16565b50905090565b5f546040516344ac29eb60e01b815290602090829060049082906001600160a01b03165afa908115610901575f91612f92575090565b6103b9915060203d602011612a3557612a278183610db9565b604051600360f01b6020820152600281526103b981610d1a565b9061ffff91600383612fd6836137c4565b160361306a57604051916001600160801b03199060801b1660208301526010825261300082610d1a565b60038361300c836137c4565b160361306a57815183811161304b578316600101928311612f515761303d6103b99260405194859360208501613810565b03601f198101835282610db9565b604490604051906306dfcc6560e41b8252601060048301526024820152fd5b826130766024926137c4565b604051633a51740d60e01b815291166004820152fd5b6004111561309657565b634e487b7160e01b5f52602160045260245ffd5b83605592946103b994604051968794600160f81b60208701526bffffffffffffffffffffffff199060601b16602186015260358501528484013781015f83820152036035810184520182610db9565b8115613103570490565b634e487b7160e01b5f52601260045260245ffd5b6001600160a01b03808216929190831561242657821693841561240e57806131767f8c5be1e5ebec7d5bd14f71427d1e84f3dd0314c0f7b2291e5b200ac8c7c3b925946123ed60209560018060a01b03165f52600660205260405f2090565b55604051908152a3565b81810292918115918404141715612f5157565b9060201161035e573590565b9060281161035e576020013560c01c90565b6103b9906001600160401b037f00000000000000000000000000000000000000000000000000000000000000009116613180565b908060281161035e576103b99136916027190190602801611fb2565b604c91936103b9936040519586936001600160401b0360c01b9060c01b16602085015263ffffffff60e01b9060e01b166028840152602c83015261324e8151809260208686019101610362565b810103602c810184520182610db9565b825115801593906132bc576132b99160689160405194859260208401526001600160401b0360c01b9060c01b1660408301523360488301526132a98151809260208686019101610362565b8101036048810184520182610db9565b91565b506132b99061303d60405193849260208401909160289282526001600160401b0360c01b9060c01b1660208201520190565b60ff811461332c5760ff811690601f821161331a576040519161331083610d1a565b8252602082015290565b604051632cd44ac360e21b8152600490fd5b50604051600a54815f61333e83610c3d565b808352926020906001908181169081156133c85750600114613369575b50506103b992500382610db9565b915092600a5f527fc65a7bb8d6351c1cf70c95a316cc6a92839c986682d98bc35f958f4883f9d2a8935f925b8284106133b057506103b99450505081016020015f8061335b565b85548785018301529485019486945092810192613395565b915050602092506103b994915060ff191682840152151560051b8201015f8061335b565b60ff811461340e5760ff811690601f821161331a576040519161331083610d1a565b50604051600b54815f61342083610c3d565b808352926020906001908181169081156133c8575060011461344a5750506103b992500382610db9565b915092600b5f527f0175b7a638427703f0dbe7bb9bbf987a2551717b34e79f33b5b1008d1fa01db9935f925b82841061349157506103b99450505081016020015f8061335b565b85548785018301529485019486945092810192613476565b8034036134b35790565b6040516304fb820960e51b8152346004820152602490fd5b60405163393f876560e21b81526001600160a01b037f00000000000000000000000000000000000000000000000000000000000000008116926020929091908381600481885afa908115610901575f91613605575b50169283156135f3575f80916135939360405190868201926323b872dd60e01b8452336024840152604483015260648201526064815261355f81610d83565b519082875af13d156135eb573d9061357682611f97565b916135846040519384610db9565b82523d5f8584013e5b846138d7565b9081519182151591826135cf575b505090506135ac5750565b604051635274afe760e01b81526001600160a01b03919091166004820152602490fd5b6115e89250806135e394830101910161269e565b805f806135a1565b60609061358d565b6040516329b99a9560e11b8152600490fd5b90508381813d8311613634575b61361c8183610db9565b8101031261035e575161362e816104fc565b5f613520565b503d613612565b91907f7fffffffffffffffffffffffffffffff5d576e7357a4501ddfe92f46681b20a084116136b2579160209360809260ff5f9560405194855216868401526040830152606082015282805260015afa15610901575f516001600160a01b038116156136a857905f905f90565b505f906001905f90565b5050505f9160039190565b6136c68161308c565b806136cf575050565b6136d88161308c565b600181036136f25760405163f645eedf60e01b8152600490fd5b6136fb8161308c565b6002810361371c5760405163fce698f760e01b815260048101839052602490fd5b8061372860039261308c565b146137305750565b6040516335e2f38360e21b81526004810191909152602490fd5b90808202905f19818409908280831092039180830392146137b95761271090828211156137a7577fbc01a36e2eb1c432ca57a786c226809d495182a9930be0ded288ce703afb7e91940990828211900360fc1b910360041c170290565b60405163227bc15360e01b8152600490fd5b505061271091500490565b60028151106137d4576002015190565b60405162461bcd60e51b8152602060048201526014602482015273746f55696e7431365f6f75744f66426f756e647360601b6044820152606490fd5b602090613827600495949382815194859201610362565b600160f81b910181815260f09290921b6001600160f01b0319166001830152600382015281519161386090839085840190602001610362565b010190565b6001600160a01b038116919082156125545760075490828201809211612f51575f926138c86020927fddf252ad1be2c89b69c2b068fc378daa952ba7f163c4a11628f55a4df523b3ef9460075560018060a01b03165f52600560205260405f2090565b818154019055604051908152a3565b906138fe57508051156138ec57805190602001fd5b604051630a12f52160e11b8152600490fd5b81511580613931575b61390f575090565b604051639996b31560e01b81526001600160a01b039091166004820152602490fd5b50803b1561390756feefed6d3500546b29533b128a29e3a94d70788727f0507505ac12eaf2e578fd9ca26469706673582212205f54935d8e27f9dade2b591d977b0ffb210a22e8f85a1f515c1c1abe44fd95b464736f6c63430008180033a26469706673582212204237d5783f4cccbf4908c8d20ed04ba46e3be8958cf963425e2828eca105497364736f6c63430008180033",
  "devdoc": {
    "errors": {
      "OwnableInvalidOwner(address)": [
        {
          "details": "The owner is not a valid owner account. (eg. `address(0)`)"
        }
      ],
      "OwnableUnauthorizedAccount(address)": [
        {
          "details": "The caller account is not authorized to perform an operation."
        }
      ]
    },
    "kind": "dev",
    "methods": {
      "allowInitializePath((uint32,bytes32,uint64))": {
        "details": "This indicates to the endpoint that the OApp has enabled msgs for this particular path to be received.This defaults to assuming if a peer has been set, its initialized. Can be overridden by the OApp if there is other logic to determine this.",
        "params": {
          "origin": "The origin information containing the source endpoint and sender address."
        },
        "returns": {
          "_0": "Whether the path has been initialized."
        }
      },
      "isComposeMsgSender((uint32,bytes32,uint64),bytes,address)": {
        "details": "_origin The origin information containing the source endpoint and sender address.  - srcEid: The source chain endpoint ID.  - sender: The sender address on the src chain.  - nonce: The nonce of the message._message The lzReceive payload.Applications can optionally choose to implement separate composeMsg senders that are NOT the bridging layer.The default sender IS the OAppReceiver implementer.",
        "params": {
          "_sender": "The sender address."
        },
        "returns": {
          "_0": "isSender Is a valid sender."
        }
      },
      "lzReceive((uint32,bytes32,uint64),bytes32,bytes,address,bytes)": {
        "details": "Entry point for receiving messages or packets from the endpoint.Entry point for receiving msg/packet from the LayerZero endpoint.",
        "params": {
          "_executor": "The address of the executor for the received message.",
          "_extraData": "Additional arbitrary data provided by the corresponding executor.",
          "_guid": "The unique identifier for the received LayerZero message.",
          "_message": "The payload of the received message.",
          "_origin": "The origin information containing the source endpoint and sender address.  - srcEid: The source chain endpoint ID.  - sender: The sender address on the src chain.  - nonce: The nonce of the message."
        }
      },
      "nextNonce(uint32,bytes32)": {
        "details": "_srcEid The source endpoint ID._sender The sender address.The path nonce starts from 1. If 0 is returned it means that there is NO nonce ordered enforcement.Is required by the off-chain executor to determine the OApp expects msg execution is ordered.This is also enforced by the OApp.By default this is NOT enabled. ie. nextNonce is hardcoded to return 0.",
        "returns": {
          "nonce": "The next nonce."
        }
      },
      "oAppVersion()": {
        "returns": {
          "receiverVersion": "The version of the OAppReceiver.sol implementation.",
          "senderVersion": "The version of the OAppSender.sol implementation."
        }
      },
      "owner()": {
        "details": "Returns the address of the current owner."
      },
      "renounceOwnership()": {
        "details": "Leaves the contract without owner. It will not be possible to call `onlyOwner` functions. Can only be called by the current owner. NOTE: Renouncing ownership will leave the contract without an owner, thereby disabling any functionality that is only available to the owner."
      },
      "setDelegate(address)": {
        "details": "Only the owner/admin of the OApp can call this function.Provides the ability for a delegate to set configs, on behalf of the OApp, directly on the Endpoint contract.",
        "params": {
          "_delegate": "The address of the delegate to be set."
        }
      },
      "setPeer(uint32,bytes32)": {
        "details": "Only the owner/admin of the OApp can call this function.Indicates that the peer is trusted to send LayerZero messages to this OApp.Set this to bytes32(0) to remove the peer address.Peer is a bytes32 to accommodate non-evm chains.",
        "params": {
          "_eid": "The endpoint ID.",
          "_peer": "The address of the peer to be associated with the corresponding endpoint."
        }
      },
      "transferOwnership(address)": {
        "details": "Transfers ownership of the contract to a new account (`newOwner`). Can only be called by the current owner."
      }
    },
    "version": 1
  },
  "userdoc": {
    "events": {
      "OFTCreated(address,address)": {
        "notice": "TODO: docs"
      }
    },
    "kind": "user",
    "methods": {
      "allowInitializePath((uint32,bytes32,uint64))": {
        "notice": "Checks if the path initialization is allowed based on the provided origin."
      },
      "endpoint()": {
        "notice": "Retrieves the LayerZero endpoint associated with the OApp."
      },
      "isComposeMsgSender((uint32,bytes32,uint64),bytes,address)": {
        "notice": "Indicates whether an address is an approved composeMsg sender to the Endpoint."
      },
      "nextNonce(uint32,bytes32)": {
        "notice": "Retrieves the next nonce for a given source endpoint and sender address."
      },
      "oAppVersion()": {
        "notice": "Retrieves the OApp version information."
      },
      "peers(uint32)": {
        "notice": "Retrieves the peer (OApp) associated with a corresponding endpoint."
      },
      "rootEid()": {
        "notice": "LayerZero endpoint ID of the root chain"
      },
      "setDelegate(address)": {
        "notice": "Sets the delegate address for the OApp."
      },
      "setPeer(uint32,bytes32)": {
        "notice": "Sets the peer address (OApp instance) for a corresponding endpoint."
      }
    },
    "version": 1
  },
  "storageLayout": {
    "storage": [
      {
        "astId": 5510,
        "contract": "contracts/JasmineSpokeBridge.sol:JasmineSpokeBridge",
        "label": "_owner",
        "offset": 0,
        "slot": "0",
        "type": "t_address"
      },
      {
        "astId": 701,
        "contract": "contracts/JasmineSpokeBridge.sol:JasmineSpokeBridge",
        "label": "peers",
        "offset": 0,
        "slot": "1",
        "type": "t_mapping(t_uint32,t_bytes32)"
      },
      {
        "astId": 11728,
        "contract": "contracts/JasmineSpokeBridge.sol:JasmineSpokeBridge",
        "label": "oftInitCode",
        "offset": 0,
        "slot": "2",
        "type": "t_struct(TransientBytes)12759_storage"
      },
      {
        "astId": 11732,
        "contract": "contracts/JasmineSpokeBridge.sol:JasmineSpokeBridge",
        "label": "ofts",
        "offset": 0,
        "slot": "3",
        "type": "t_mapping(t_address,t_address)"
      }
    ],
    "types": {
      "t_address": {
        "encoding": "inplace",
        "label": "address",
        "numberOfBytes": "20"
      },
      "t_bytes32": {
        "encoding": "inplace",
        "label": "bytes32",
        "numberOfBytes": "32"
      },
      "t_mapping(t_address,t_address)": {
        "encoding": "mapping",
        "key": "t_address",
        "label": "mapping(address => address)",
        "numberOfBytes": "32",
        "value": "t_address"
      },
      "t_mapping(t_uint32,t_bytes32)": {
        "encoding": "mapping",
        "key": "t_uint32",
        "label": "mapping(uint32 => bytes32)",
        "numberOfBytes": "32",
        "value": "t_bytes32"
      },
      "t_struct(TransientBytes)12759_storage": {
        "encoding": "inplace",
        "label": "struct TransientBytes",
        "members": [
          {
            "astId": 12758,
            "contract": "contracts/JasmineSpokeBridge.sol:JasmineSpokeBridge",
            "label": "__placeholder",
            "offset": 0,
            "slot": "0",
            "type": "t_uint256"
          }
        ],
        "numberOfBytes": "32"
      },
      "t_uint256": {
        "encoding": "inplace",
        "label": "uint256",
        "numberOfBytes": "32"
      },
      "t_uint32": {
        "encoding": "inplace",
        "label": "uint32",
        "numberOfBytes": "4"
      }
    }
  }
}