{
  "address": "0x7C7459a54957B1D9931D8bd5af4dF3eCaF1a629d",
  "abi": [
    {
      "inputs": [
        {
          "internalType": "address",
          "name": "_endpoint",
          "type": "address"
        },
        {
          "internalType": "address",
          "name": "_delegate",
          "type": "address"
        }
      ],
      "stateMutability": "nonpayable",
      "type": "constructor"
    },
    {
      "inputs": [
        {
          "internalType": "address",
          "name": "underlying",
          "type": "address"
        },
        {
          "internalType": "address",
          "name": "adapter",
          "type": "address"
        }
      ],
      "name": "AdapterExists",
      "type": "error"
    },
    {
      "inputs": [],
      "name": "ErrorCreatingContract",
      "type": "error"
    },
    {
      "inputs": [],
      "name": "ErrorCreatingProxy",
      "type": "error"
    },
    {
      "inputs": [],
      "name": "InvalidDelegate",
      "type": "error"
    },
    {
      "inputs": [],
      "name": "InvalidEndpointCall",
      "type": "error"
    },
    {
      "inputs": [],
      "name": "LzTokenUnavailable",
      "type": "error"
    },
    {
      "inputs": [
        {
          "internalType": "uint32",
          "name": "eid",
          "type": "uint32"
        }
      ],
      "name": "NoPeer",
      "type": "error"
    },
    {
      "inputs": [
        {
          "internalType": "uint256",
          "name": "msgValue",
          "type": "uint256"
        }
      ],
      "name": "NotEnoughNative",
      "type": "error"
    },
    {
      "inputs": [
        {
          "internalType": "address",
          "name": "addr",
          "type": "address"
        }
      ],
      "name": "OnlyEndpoint",
      "type": "error"
    },
    {
      "inputs": [
        {
          "internalType": "uint32",
          "name": "eid",
          "type": "uint32"
        },
        {
          "internalType": "bytes32",
          "name": "sender",
          "type": "bytes32"
        }
      ],
      "name": "OnlyPeer",
      "type": "error"
    },
    {
      "inputs": [
        {
          "internalType": "address",
          "name": "owner",
          "type": "address"
        }
      ],
      "name": "OwnableInvalidOwner",
      "type": "error"
    },
    {
      "inputs": [
        {
          "internalType": "address",
          "name": "account",
          "type": "address"
        }
      ],
      "name": "OwnableUnauthorizedAccount",
      "type": "error"
    },
    {
      "inputs": [],
      "name": "TargetAlreadyExists",
      "type": "error"
    },
    {
      "anonymous": false,
      "inputs": [
        {
          "indexed": true,
          "internalType": "address",
          "name": "underlying",
          "type": "address"
        },
        {
          "indexed": true,
          "internalType": "address",
          "name": "adapter",
          "type": "address"
        }
      ],
      "name": "OFTAdapterCreated",
      "type": "event"
    },
    {
      "anonymous": false,
      "inputs": [
        {
          "indexed": true,
          "internalType": "address",
          "name": "previousOwner",
          "type": "address"
        },
        {
          "indexed": true,
          "internalType": "address",
          "name": "newOwner",
          "type": "address"
        }
      ],
      "name": "OwnershipTransferred",
      "type": "event"
    },
    {
      "anonymous": false,
      "inputs": [
        {
          "indexed": false,
          "internalType": "uint32",
          "name": "eid",
          "type": "uint32"
        },
        {
          "indexed": false,
          "internalType": "bytes32",
          "name": "peer",
          "type": "bytes32"
        }
      ],
      "name": "PeerSet",
      "type": "event"
    },
    {
      "inputs": [
        {
          "internalType": "address",
          "name": "underlying",
          "type": "address"
        }
      ],
      "name": "adapters",
      "outputs": [
        {
          "internalType": "address",
          "name": "oftAdapter",
          "type": "address"
        }
      ],
      "stateMutability": "view",
      "type": "function"
    },
    {
      "inputs": [
        {
          "components": [
            {
              "internalType": "uint32",
              "name": "srcEid",
              "type": "uint32"
            },
            {
              "internalType": "bytes32",
              "name": "sender",
              "type": "bytes32"
            },
            {
              "internalType": "uint64",
              "name": "nonce",
              "type": "uint64"
            }
          ],
          "internalType": "struct Origin",
          "name": "origin",
          "type": "tuple"
        }
      ],
      "name": "allowInitializePath",
      "outputs": [
        {
          "internalType": "bool",
          "name": "",
          "type": "bool"
        }
      ],
      "stateMutability": "view",
      "type": "function"
    },
    {
      "inputs": [
        {
          "internalType": "address",
          "name": "underlying",
          "type": "address"
        }
      ],
      "name": "createAdapter",
      "outputs": [
        {
          "internalType": "address",
          "name": "adapter",
          "type": "address"
        }
      ],
      "stateMutability": "nonpayable",
      "type": "function"
    },
    {
      "inputs": [],
      "name": "endpoint",
      "outputs": [
        {
          "internalType": "contract ILayerZeroEndpointV2",
          "name": "",
          "type": "address"
        }
      ],
      "stateMutability": "view",
      "type": "function"
    },
    {
      "inputs": [
        {
          "components": [
            {
              "internalType": "uint32",
              "name": "srcEid",
              "type": "uint32"
            },
            {
              "internalType": "bytes32",
              "name": "sender",
              "type": "bytes32"
            },
            {
              "internalType": "uint64",
              "name": "nonce",
              "type": "uint64"
            }
          ],
          "internalType": "struct Origin",
          "name": "",
          "type": "tuple"
        },
        {
          "internalType": "bytes",
          "name": "",
          "type": "bytes"
        },
        {
          "internalType": "address",
          "name": "_sender",
          "type": "address"
        }
      ],
      "name": "isComposeMsgSender",
      "outputs": [
        {
          "internalType": "bool",
          "name": "",
          "type": "bool"
        }
      ],
      "stateMutability": "view",
      "type": "function"
    },
    {
      "inputs": [
        {
          "components": [
            {
              "internalType": "uint32",
              "name": "srcEid",
              "type": "uint32"
            },
            {
              "internalType": "bytes32",
              "name": "sender",
              "type": "bytes32"
            },
            {
              "internalType": "uint64",
              "name": "nonce",
              "type": "uint64"
            }
          ],
          "internalType": "struct Origin",
          "name": "_origin",
          "type": "tuple"
        },
        {
          "internalType": "bytes32",
          "name": "_guid",
          "type": "bytes32"
        },
        {
          "internalType": "bytes",
          "name": "_message",
          "type": "bytes"
        },
        {
          "internalType": "address",
          "name": "_executor",
          "type": "address"
        },
        {
          "internalType": "bytes",
          "name": "_extraData",
          "type": "bytes"
        }
      ],
      "name": "lzReceive",
      "outputs": [],
      "stateMutability": "payable",
      "type": "function"
    },
    {
      "inputs": [
        {
          "internalType": "uint32",
          "name": "",
          "type": "uint32"
        },
        {
          "internalType": "bytes32",
          "name": "",
          "type": "bytes32"
        }
      ],
      "name": "nextNonce",
      "outputs": [
        {
          "internalType": "uint64",
          "name": "nonce",
          "type": "uint64"
        }
      ],
      "stateMutability": "view",
      "type": "function"
    },
    {
      "inputs": [],
      "name": "oAppVersion",
      "outputs": [
        {
          "internalType": "uint64",
          "name": "senderVersion",
          "type": "uint64"
        },
        {
          "internalType": "uint64",
          "name": "receiverVersion",
          "type": "uint64"
        }
      ],
      "stateMutability": "pure",
      "type": "function"
    },
    {
      "inputs": [],
      "name": "owner",
      "outputs": [
        {
          "internalType": "address",
          "name": "",
          "type": "address"
        }
      ],
      "stateMutability": "view",
      "type": "function"
    },
    {
      "inputs": [
        {
          "internalType": "uint32",
          "name": "eid",
          "type": "uint32"
        }
      ],
      "name": "peers",
      "outputs": [
        {
          "internalType": "bytes32",
          "name": "peer",
          "type": "bytes32"
        }
      ],
      "stateMutability": "view",
      "type": "function"
    },
    {
      "inputs": [
        {
          "internalType": "address",
          "name": "underlying",
          "type": "address"
        }
      ],
      "name": "predictAdapterAddress",
      "outputs": [
        {
          "internalType": "address",
          "name": "",
          "type": "address"
        }
      ],
      "stateMutability": "view",
      "type": "function"
    },
    {
      "inputs": [],
      "name": "renounceOwnership",
      "outputs": [],
      "stateMutability": "nonpayable",
      "type": "function"
    },
    {
      "inputs": [
        {
          "internalType": "address",
          "name": "_adapter",
          "type": "address"
        },
        {
          "internalType": "uint32",
          "name": "_eid",
          "type": "uint32"
        },
        {
          "internalType": "bytes32",
          "name": "_peer",
          "type": "bytes32"
        }
      ],
      "name": "setAdapterPeer",
      "outputs": [],
      "stateMutability": "nonpayable",
      "type": "function"
    },
    {
      "inputs": [
        {
          "internalType": "address",
          "name": "_delegate",
          "type": "address"
        }
      ],
      "name": "setDelegate",
      "outputs": [],
      "stateMutability": "nonpayable",
      "type": "function"
    },
    {
      "inputs": [
        {
          "internalType": "uint32",
          "name": "_eid",
          "type": "uint32"
        },
        {
          "internalType": "bytes32",
          "name": "_peer",
          "type": "bytes32"
        }
      ],
      "name": "setPeer",
      "outputs": [],
      "stateMutability": "nonpayable",
      "type": "function"
    },
    {
      "inputs": [
        {
          "internalType": "address",
          "name": "newOwner",
          "type": "address"
        }
      ],
      "name": "transferOwnership",
      "outputs": [],
      "stateMutability": "nonpayable",
      "type": "function"
    }
  ],
  "transactionHash": "0x2feef3c0fe25eb4a8d548e89dae1424bfd4b3aaceb3fddafe006233c3b73a89f",
  "args": [
    "0x6EDCE65403992e310A62460808c4b910D972f10f",
    "0xD4447f8119A025004b720Be6264EbBAFd7220258"
  ],
  "numDeployments": 1,
  "solcInputHash": "09d5126a74c702dbfe5de3f20b0dfa69",
  "bytecode": "0x60a03461013557613718906001600160401b03601f38849003908101601f191683019082821184831017610117578084916040968794855283398101031261013557602061004c83610150565b926001600160a01b039182916100629101610150565b16928315610139575f80546001600160a01b03198116861782558591908416907f8be0079c531659141344cd1fd0a4f28419497f9722a3daafe3b4186f6b6457e09080a3169182608052823b15610135575f92602484928651958693849263ca5eb5e160e01b845260048401525af1801561012b57610108575b82516135b390816101658239608051818181610218015281816103d8015281816107630152610aec0152f35b81116101175781525f806100dc565b634e487b7160e01b5f52604160045260245ffd5b83513d5f823e3d90fd5b5f80fd5b8451631e4fbdf760e01b81525f6004820152602490fd5b51906001600160a01b03821682036101355756fe6080604052600436101562000012575f80fd5b5f3560e01c806313137d65146200013457806317442b70146200012e5780632532096714620001285780633400288b14620001225780635e280f11146200011c5780636caa4fd11462000116578063715018a614620001105780637d25a05e146200010a57806382413eac14620001045780638da5cb5b14620000fe578063acf461f914620000f8578063bb0b6a5314620000f2578063ca5eb5e114620000ec578063e5711ffc14620000e6578063f2fde38b14620000e05763ff7bd03d14620000da575f80fd5b6200088b565b620007fa565b620007bd565b62000731565b620006f4565b620005b7565b6200058e565b62000527565b620004fd565b620004a2565b62000407565b620003c1565b62000335565b620002d9565b620002b6565b620001af565b60609060031901126200014c57600490565b5f80fd5b9181601f840112156200014c5782359167ffffffffffffffff83116200014c57602083818601950101116200014c57565b60a435906001600160a01b03821682036200014c57565b600435906001600160a01b03821682036200014c57565b60e03660031901126200014c57620001c7366200013a565b67ffffffffffffffff6084358181116200014c57620001eb90369060040162000150565b5050620001f762000181565b5060c4359081116200014c576200021390369060040162000150565b5050337f00000000000000000000000000000000000000000000000000000000000000006001600160a01b0316036200029e576200025b6200025582620008d5565b6200095e565b9060208101358092036200026b57005b6200027690620008d5565b60405163309afaf360e21b815263ffffffff9190911660048201526024810191909152604490fd5b6040516391ac5e4f60e01b8152336004820152602490fd5b346200014c575f3660031901126200014c57604080516001815260026020820152f35b346200014c5760203660031901126200014c576020620003146bffffffffffffffffffffffff196200030a62000198565b60601b1662000995565b6040516001600160a01b039091168152f35b63ffffffff8116036200014c57565b346200014c5760403660031901126200014c577f238399d427b947898edb290f5ff0f9109849b1c3ba196a42e35f00c50a54b98b600435620003778162000326565b602435906200038562000a50565b63ffffffff81165f5260016020528160405f2055620003bc604051928392836020909392919363ffffffff60408201951681520152565b0390a1005b346200014c575f3660031901126200014c576040517f00000000000000000000000000000000000000000000000000000000000000006001600160a01b03168152602090f35b346200014c575f60603660031901126200014c576200042562000198565b60243590620004348262000326565b6200043e62000a50565b6001600160a01b0316803b156200014c57604051633400288b60e01b815263ffffffff9290921660048301526044803560248401525f91839190829084905af180156200049c576200048e575080f35b6200049a9150620008f8565b005b62000953565b346200014c575f3660031901126200014c57620004be62000a50565b5f80546001600160a01b0319811682556001600160a01b03167f8be0079c531659141344cd1fd0a4f28419497f9722a3daafe3b4186f6b6457e08280a3005b346200014c5760403660031901126200014c576200051d60043562000326565b60206040515f8152f35b346200014c5760a03660031901126200014c5762000545366200013a565b5060643567ffffffffffffffff81116200014c576200056990369060040162000150565b50506084356001600160a01b038116908190036200014c576020906040519030148152f35b346200014c575f3660031901126200014c575f546040516001600160a01b039091168152602090f35b346200014c5760203660031901126200014c57620005d462000198565b620005de62000a50565b6001600160a01b038181165f818152600260205260409020549092908216620006b1576200064f6200066e82620006366200061d620006ad9562000aa7565b6bffffffffffffffffffffffff198360601b1662000bce565b92839160018060a01b03165f52600260205260405f2090565b80546001600160a01b0319166001600160a01b03909216919091179055565b6040519384938216907f7b266fdd82702074c05cddea1ec07dae2db6a870c274ca3166f3ae1f7dfe52745f80a36001600160a01b031682526020820190565b0390f35b6001600160a01b038181165f908152600260205260409020541660405163738f6e4f60e11b81526001600160a01b03928316600482015291166024820152604490fd5b346200014c5760203660031901126200014c5763ffffffff6004356200071a8162000326565b165f526001602052602060405f2054604051908152f35b346200014c575f60203660031901126200014c576200074f62000198565b6200075962000a50565b6001600160a01b037f000000000000000000000000000000000000000000000000000000000000000081169190823b156200014c5760245f9283604051958694859363ca5eb5e160e01b85521660048401525af180156200049c576200048e575080f35b346200014c5760203660031901126200014c5760206001600160a01b0380620007e562000198565b165f526002825260405f205416604051908152f35b346200014c5760203660031901126200014c576200081762000198565b6200082162000a50565b6001600160a01b0390811690811562000873575f54826bffffffffffffffffffffffff60a01b8216175f55167f8be0079c531659141344cd1fd0a4f28419497f9722a3daafe3b4186f6b6457e05f80a3005b604051631e4fbdf760e01b81525f6004820152602490fd5b346200014c5760603660031901126200014c576020620008ab366200013a565b63ffffffff8135620008bd8162000326565b165f526001825260405f205482604051920135148152f35b35620008e18162000326565b90565b634e487b7160e01b5f52604160045260245ffd5b67ffffffffffffffff81116200090d57604052565b620008e4565b6080810190811067ffffffffffffffff8211176200090d57604052565b90601f8019910116810190811067ffffffffffffffff8211176200090d57604052565b6040513d5f823e3d90fd5b63ffffffff16805f52600160205260405f20549081156200097d575090565b6024906040519063f6ff4fb760e01b82526004820152fd5b604051602081019160ff60f81b83523060601b602183015260358201527f21c35dbe1b344a2488cf3321d6ce542f8e9f305544ff09e4993a62319a497c1f605582015260558152620009e78162000913565b519020604080516135a560f21b6020820190815260609390931b6bffffffffffffffffffffffff19166022820152600160f81b6036820152601781529081019167ffffffffffffffff8311828410176200090d576040929092525190206001600160a01b031690565b5f546001600160a01b0316330362000a6457565b60405163118cdaa760e01b8152336004820152602490fd5b908151915f5b83811062000a93575050015f815290565b806020809284010151818501520162000a82565b620008e162000b379162000b3e61290d916040519262000acb602082018562000930565b80845262000c7160208501396040519060018060a01b0380911660208301527f00000000000000000000000000000000000000000000000000000000000000001660408201523060608201526060815262000b268162000913565b604051948593602085019062000a7c565b9062000a7c565b03601f19810183528262000930565b604051906040820182811067ffffffffffffffff8211176200090d57604052601082526f67363d3d37363d34f03d5260086018f360801b6020830152565b3d1562000bc9573d9067ffffffffffffffff82116200090d576040519162000bbe601f8201601f19166020018462000930565b82523d5f602084013e565b606090565b919062000bda62000b4d565b9262000be68162000995565b93843b62000c5e576020815191015ff56001600160a01b0381161562000c4c57815f92918360208194519301915af162000c1f62000b8b565b5015801562000c42575b62000c3057565b6040516353de54b960e01b8152600490fd5b50813b1562000c29565b60405163bbd2fe8760e01b8152600490fd5b60405163cd43efa160e01b8152600490fdfe60e0604090808252346200023d575f6060826200290d8038038091620000268285620002a6565b8339810103126200023d576200003c82620002de565b9062000058846200005060208601620002de565b9401620002de565b845163313ce56760e01b81526001600160a01b0393841694600494919290919060208487818a5afa9384156200029c575f9462000257575b50811691821562000241575f80546001600160a01b03198116851782558491908416907f8be0079c531659141344cd1fd0a4f28419497f9722a3daafe3b4186f6b6457e09080a3169081608052813b156200023d575f91602483928951948593849263ca5eb5e160e01b84528a8401525af18015620002335762000202575b5060ff1660068110620001f2576005190160ff8111620001df5760ff1691604d8311620001cc575050600a0a60a05260c052516126199081620002f482396080518181816104dd015281816105de015281816107e90152818161095f015281816109b501528181611400015281816115fc015261186b015260a051818181610383015281816106c70152818161123a0152818161154b01526121e3015260c0518181816101fa015281816103e60152818161070a01526117480152f35b634e487b7160e01b825260119052602490fd5b506011602492634e487b7160e01b835252fd5b84516301e9714b60e41b81528390fd5b9091506001600160401b038111620002205784525f9060ff6200010f565b604183634e487b7160e01b5f525260245ffd5b86513d5f823e3d90fd5b5f80fd5b8751631e4fbdf760e01b81525f81880152602490fd5b9093506020813d60201162000293575b816200027660209383620002a6565b810103126200023d575160ff811681036200023d57928162000090565b3d915062000267565b88513d5f823e3d90fd5b601f909101601f19168101906001600160401b03821190821017620002ca57604052565b634e487b7160e01b5f52604160045260245ffd5b51906001600160a01b03821682036200023d5756fe6080806040526004361015610012575f80fd5b5f9060e05f35811c9182630d35b41514611ac957508163111ecdad14611aa157816313137d651461184d578163134d4f2514611831578163156a0d0f1461180a57816317442b70146117e85781631f5e1334146117cc57816329dc1467146117145781633400288b146116a55781633b6f743b146114da57816352ae2879146114bf5781635535d461146114725781635a0dfe4d1461142f5781635e280f11146113ea5781636fc1b31e1461137c578163715018a6146113235781637d25a05e146112fd57816382413eac146112a0578163857749b0146112845781638da5cb5b1461125d578163963efcaa146112225781639f68b96414611206578163ac9650d814611092578163b731ea0a14611069578163b98bd07014610d9b578163bb0b6a5314610d66578163bc70b35414610cfc578163bd815db014610a89578163c7c7f5b314610649578163ca5eb5e1146105b1578163d045a0dc1461032457508063d4243885146102b6578063f2fde38b14610229578063fc0c546a146101e45763ff7bd03d146101a1575f80fd5b346101e15760603660031901126101e15760043563ffffffff81168091036101dd57816040916020935260018352205460405190602435148152f35b5f80fd5b80fd5b50346101e157806003193601126101e1576040517f00000000000000000000000000000000000000000000000000000000000000006001600160a01b03168152602090f35b50346101e15760203660031901126101e157610243611c9a565b61024b61218f565b6001600160a01b0390811690811561029d575f54826bffffffffffffffffffffffff60a01b8216175f55167f8be0079c531659141344cd1fd0a4f28419497f9722a3daafe3b4186f6b6457e05f80a380f35b604051631e4fbdf760e01b815260048101849052602490fd5b50346101e15760203660031901126101e1577fd48d879cef83a1c0bdda516f27b13ddb1b3f8bbac1c9e1511bb2a659c242776060206102f3611c9a565b6102fb61218f565b600280546001600160a01b0319166001600160a01b03929092169182179055604051908152a180f35b905061032f36611cb0565b505050939290919230330361059f5785908560201161059b576001600160a01b0384358116966103ad92906103648188611f53565b6001600160c01b03199591869190358281169160088110610585575b507f000000000000000000000000000000000000000000000000000000000000000092505060c01c6124a6565b966103b787611f42565b5061040a60405163a9059cbb60e01b60208201528b6024820152896044820152604481526103e481611e1d565b7f0000000000000000000000000000000000000000000000000000000000000000612572565b60288211610458575b858a8a7fefed6d3500546b29533b128a29e3a94d70788727f0507505ac12eaf2e578fd9c60408c6104438d611f42565b9063ffffffff8351921682526020820152a380f35b6040870135906001600160401b0382168203610581576104db9361049261048b85604c966104858d611f42565b95611f64565b3691611f9c565b9160405197889460c01b16602085015263ffffffff60e01b911b16602883015288602c8301526104cb8151809260208686019101611c27565b810103602c810185520183611e38565b7f000000000000000000000000000000000000000000000000000000000000000016803b1561057d576105428392918392604051948580948193633e5ac80960e11b83528d60048401528c6024840152836044840152608060648401526084830190611c48565b03925af180156105725761055a575b80808080610413565b61056390611db9565b61056e57845f610551565b8480fd5b6040513d84823e3d90fd5b8280fd5b8680fd5b8391925060080360031b1b161685905f80610380565b5080fd5b60405163029a949d60e31b8152600490fd5b82346101e15760203660031901126101e157806105cc611c9a565b6105d461218f565b6001600160a01b037f000000000000000000000000000000000000000000000000000000000000000081169190823b15610644576024849283604051958694859363ca5eb5e160e01b85521660048401525af18015610572576106345750f35b61063d90611db9565b6101e15780f35b505050fd5b826003199160808336011261059b57600435926001600160401b03841161057d5783360301126101e15760403660231901126101e1576064356001600160a01b03811690036101dd5761069a612127565b505f60206040516106aa81611d8a565b82815201526064820135916106c181600401611f42565b506106f97f00000000000000000000000000000000000000000000000000000000000000006106f4816044850135612488565b6124a6565b92808410610a6b575061072e8330337f0000000000000000000000000000000000000000000000000000000000000000612530565b61073b83826004016121d2565b61074a83600496939601611f42565b9060405161075781611d8a565b6024358152604435602082015261076c612127565b50805191823403610a5357602082015180610944575b50908392916107e5986020610798608097612159565b93015115159263ffffffff604051966107b088611dcc565b1686526020860152604085015260608401528383015260405180809881946302637a4560e41b8352606435906004840161238c565b03917f00000000000000000000000000000000000000000000000000000000000000006001600160a01b03165af19283156109385780936108c4575b5060c093506040519061083382611d8a565b808252602082019281845261084c855191600401611f42565b9163ffffffff6040519316835280602084015260408301527f85496b760a4b7f8d66384b9df21b381f5d1b1e79f229a47aaf4c232edc2fe59a60603393a360206040805194805186526001600160401b03838201511683870152015180516040860152015160608401525160808301525160a0820152f35b90925060803d608011610931575b6108dc8186611e38565b84019360808186031261059b57604051916108f683611de7565b815183526020820151906001600160401b03821682036101e15750602083015260c09461092591604001612364565b60408201529184610821565b503d6108d2565b604051903d90823e3d90fd5b60405163393f876560e21b81529094939291906020816004817f00000000000000000000000000000000000000000000000000000000000000006001600160a01b03165afa908115610a48578991610a02575b506001600160a01b03169889156109f0576107e5996080966109e5917f00000000000000000000000000000000000000000000000000000000000000006001600160a01b0316903390612530565b985090919293610782565b6040516329b99a9560e11b8152600490fd5b90506020813d602011610a40575b81610a1d60209383611e38565b81010312610a3c57516001600160a01b0381168103610a3c578a610997565b8880fd5b3d9150610a10565b6040513d8b823e3d90fd5b6040516304fb820960e51b8152346004820152602490fd5b83604491604051916371c4efed60e01b835260048301526024820152fd5b8260209060031992828436011261059b576001600160401b0393600435858111610cf857610abb903690600401611efb565b9290845b848110610b9a57604051638e9e709960e01b815288908890888082600481335afa938415610b8d578194610b17575b505050610b13604051928392638351eea760e01b845260048401526024830190611c48565b0390fd5b90919293503d8083853e610b2b8185611e38565b830192848185031261057d57805191821161057d570182601f8201121561059b57805191610b5883611f81565b93610b666040519586611e38565b8385528584840101116101e1575090610b8491848085019101611c27565b90828080610aee565b50604051903d90823e3d90fd5b8060051b82013561013e1983360301811215610581578201610bbb81611f42565b90610bdb89820135809363ffffffff165f52600160205260405f20541490565b15610cee57610bee610100820182611fd2565b868301356001600160a01b038116929190839003610cea57610c14610120850185611fd2565b929091303b15610ce657604051633411683760e21b8152968f9063ffffffff610c3c89611d30565b1660048a015260248901526040870135908116809103610ce25787958e979587958e610c8a8f97899760c099610c9e9860448b015260a08d013560648b015260848a015260e489019161202c565b9360a48701528584030160c486015261202c565b03920135305af18015610cd757908791610cbf575b50506001905b01610abf565b610cc890611db9565b610cd3578589610cb3565b8580fd5b6040513d89823e3d90fd5b8d80fd5b8c80fd5b8a80fd5b5050600190610cb9565b8380fd5b82346101e15760603660031901126101e157610d16611d1d565b610d1e611d41565b91604435906001600160401b0382116101e157610d62610d4e8585610d463660048801611c6d565b92909161204c565b604051918291602083526020830190611c48565b0390f35b82346101e15760203660031901126101e157604060209163ffffffff610d8a611d1d565b168152600183522054604051908152f35b82346101e15760208060031936011261059b576001600160401b03600435818111610cf85791610dd084933690600401611efb565b929091610ddb61218f565b845b848110610ed25750604051938082860183875252604085019160408260051b87010194809488915b848310610e3657897fbe4864a8e820971c0247f5992e2da559595f7bf076a21cb5928d443d2a13b6748a8a038ba180f35b90919293949596603f198982030187528735605e1983360301811215610cea57820160609063ffffffff610e6982611d30565b1683528681013561ffff81168091036101dd57878401526040810135601e1982360301811215610ce6570190868235920192858311610ce6578236038413610ce6576001938893838386956040610ec3960152019161202c565b99019701959493019190610e05565b9493610ef7610ef1610ee78884889698612429565b6040810190611fd2565b9061244b565b610f05610ee7878385612429565b63ffffffff610f20610f1b8a86889c969c612429565b611f42565b168752600386526040872086610f37848688612429565b013561ffff8116809103610a3c575f52865260405f209085811161105557610f5f8254611d52565b601f90818111611015575b5088908211600114610fb1578190899a6001969798999a92610fa6575b50505f19600383901b1c191690841b1790555b01939093929192610ddd565b013590508a80610f87565b601f19821699838a52888a20918a5b8c8110610ffe57508360019798999a9b9c10610fe5575b505050831b83019055610f9a565b01355f19600384901b60f8161c19169055898080610fd7565b90928a600181928686013581550194019101610fc0565b838a52888a208280850160051c8201928b861061104c575b0160051c01905b8181106110415750610f6a565b8a8155600101611034565b9250819261102d565b634e487b7160e01b88526041600452602488fd5b82346101e157806003193601126101e1576002546040516001600160a01b039091168152602090f35b82346101e15760208060031936011261059b576004356001600160401b03811161057d576110c583913690600401611efb565b6040516110d181611e02565b838152848101906110e183611f2b565b936110ef6040519586611e38565b8385526110fb84611f2b565b601f1901865b8181106111f7575050855b8481106111725787878760405191838301848452825180915260408401948060408360051b870101940192955b8287106111465785850386f35b909192938280611162600193603f198a82030186528851611c48565b9601920196019592919092611139565b806111d888808b6111b86111c46111939d9e9d60019860051b8a018a611fd2565b8b8d60409693965195838794868601998a37840191858301938a855251938491611c27565b01038084520182611e38565b5190305af46111d16123fa565b90306124cd565b6111e28289612004565b526111ed8188612004565b500196959661110c565b60608782018a01528801611101565b82346101e157806003193601126101e157602090604051908152f35b82346101e157806003193601126101e15760206040517f00000000000000000000000000000000000000000000000000000000000000008152f35b82346101e157806003193601126101e157546040516001600160a01b039091168152602090f35b82346101e157806003193601126101e157602060405160068152f35b82346101e157366003190160a0811261059b576060136101e1576064356001600160401b03811161059b576112d9903690600401611c6d565b50506084356001600160a01b038116908190036101dd576020906040519030148152f35b82346101e15760403660031901126101e15760209061131a611d1d565b50604051908152f35b82346101e157806003193601126101e15761133c61218f565b5f80546001600160a01b0319811682556001600160a01b03167f8be0079c531659141344cd1fd0a4f28419497f9722a3daafe3b4186f6b6457e08280a380f35b82346101e15760203660031901126101e1577ff0be4f1e87349231d80c36b33f9e8639658eeaf474014dee15a3e6a4d441419760206113b9611c9a565b6113c161218f565b600480546001600160a01b0319166001600160a01b03929092169182179055604051908152a180f35b82346101e157806003193601126101e1576040517f00000000000000000000000000000000000000000000000000000000000000006001600160a01b03168152602090f35b82346101e15760403660031901126101e157602061146861144e611d1d565b6024359063ffffffff165f52600160205260405f20541490565b6040519015158152f35b82346101e15760403660031901126101e15761ffff6040611491611d1d565b9263ffffffff61149f611d41565b9416815260036020522091165f52602052610d62610d4e60405f20611e59565b82346101e157806003193601126101e1576020604051308152f35b90503461059b576003199060403683011261057d57600435906001600160401b038211610cf8578160040192823603011261057d5760243590811515809203610cf8575f602060405161152c81611d8a565b828152015261157460446106f460648401359361154887611f42565b507f00000000000000000000000000000000000000000000000000000000000000009283910135612488565b908082106116875750916040916115996115916115f895846121d2565b919093611f42565b925f602086516115a881611d8a565b82815201526115b684612159565b63ffffffff8651956115c787611dcc565b16855260208501528484015260608301526080820152815180938192631bb8518b60e31b835230906004840161238c565b03817f00000000000000000000000000000000000000000000000000000000000000006001600160a01b03165afa908115610572578291611649575b60408260208251918051835201516020820152f35b905060403d604011611680575b6116608183611e38565b8101916040828403126101e1575060409161167a91612364565b5f611634565b503d611656565b60449250604051916371c4efed60e01b835260048301526024820152fd5b82346101e15760403660031901126101e1577f238399d427b947898edb290f5ff0f9109849b1c3ba196a42e35f00c50a54b98b6116e0611d1d565b602435906116ec61218f565b63ffffffff16808452600160209081526040808620849055805192835290820192909252a180f35b82346101e15760c03660031901126101e1578061172f611c9a565b6064359060ff82168092036117c8576001600160a01b037f00000000000000000000000000000000000000000000000000000000000000008116803b1561056e5784928360e492604051968795869463d505accf60e01b865216600485015230602485015260243560448501526044356064850152608484015260843560a484015260a43560c48401525af18015610572576106345750f35b5050fd5b82346101e157806003193601126101e157602060405160018152f35b82346101e157806003193601126101e157604080516001815260026020820152f35b82346101e157806003193601126101e1576040805162b9270b60e21b815260016020820152f35b82346101e157806003193601126101e157602060405160028152f35b905061185836611cb0565b509195939491506001600160a01b0390507f00000000000000000000000000000000000000000000000000000000000000008116338103611a89576118a461189f84611f42565b612159565b9460209586850135809103611a5857508786116101dd576118cd92853516976103648187611f53565b956118d786611f42565b5061190360405163a9059cbb60e01b8a8201528b6024820152886044820152604481526103e481611e1d565b60288211611950575b8a8a8a7fefed6d3500546b29533b128a29e3a94d70788727f0507505ac12eaf2e578fd9c60408c8c61193d8d611f42565b9163ffffffff845193168352820152a380f35b6040860135906001600160401b03821682036101dd576119b49361197d61048b85604c966104858c611f42565b9160405197889460c01b168b85015263ffffffff60e01b911b16602883015287602c8301526104cb815180928b8686019101611c27565b803b156101dd576119f95f92918392604051948580948193633e5ac80960e11b83528d60048401528c6024840152836044840152608060648401526084830190611c48565b03925af18015611a4d57611a11575b8080808061190c565b7fefed6d3500546b29533b128a29e3a94d70788727f0507505ac12eaf2e578fd9c9391965091611a42604093611db9565b5f9691935091611a08565b6040513d5f823e3d90fd5b611a6185611f42565b60405163309afaf360e21b815263ffffffff9190911660048201526024810191909152604490fd5b6040516391ac5e4f60e01b8152336004820152602490fd5b346101dd575f3660031901126101dd576004546040516001600160a01b039091168152602090f35b346101dd576020916003199183833601126101dd57600435916001600160401b03938484116101dd5783360301126101dd578381611b075f93611d8a565b82815201525f83604051611b1a81611d8a565b828152015260405190611b2c82611d8a565b5f825283820192835260405191611b4283611e02565b5f8352611b5f60446106f460648501359461154881600401611f42565b91808310611c0957509360405194611b7686611d8a565b8286528186019283526040519460a0860191518652518286015260a06040860152835180915260c08501918060c08360051b8801019501925f905b838210611bcc57885160608901528551608089015287870388f35b90919293958380611bfa60019360bf198c82030186526040838c518051845201519181858201520190611c48565b98019201920190939291611bb1565b82604491604051916371c4efed60e01b835260048301526024820152fd5b5f5b838110611c385750505f910152565b8181015183820152602001611c29565b90602091611c6181518092818552858086019101611c27565b601f01601f1916010190565b9181601f840112156101dd578235916001600160401b0383116101dd57602083818601950101116101dd57565b600435906001600160a01b03821682036101dd57565b600319810160e081126101dd576060136101dd57600491606435916001600160401b03906084358281116101dd5781611ceb91600401611c6d565b9093909260a4356001600160a01b03811681036101dd579260c4359182116101dd57611d1991600401611c6d565b9091565b6004359063ffffffff821682036101dd57565b359063ffffffff821682036101dd57565b6024359061ffff821682036101dd57565b90600182811c92168015611d80575b6020831014611d6c57565b634e487b7160e01b5f52602260045260245ffd5b91607f1691611d61565b604081019081106001600160401b03821117611da557604052565b634e487b7160e01b5f52604160045260245ffd5b6001600160401b038111611da557604052565b60a081019081106001600160401b03821117611da557604052565b606081019081106001600160401b03821117611da557604052565b602081019081106001600160401b03821117611da557604052565b608081019081106001600160401b03821117611da557604052565b90601f801991011681019081106001600160401b03821117611da557604052565b9060405191825f8254611e6b81611d52565b908184526020946001916001811690815f14611ed95750600114611e9b575b505050611e9992500383611e38565b565b5f90815285812095935091905b818310611ec1575050611e9993508201015f8080611e8a565b85548884018501529485019487945091830191611ea8565b92505050611e9994925060ff191682840152151560051b8201015f8080611e8a565b9181601f840112156101dd578235916001600160401b0383116101dd576020808501948460051b0101116101dd57565b6001600160401b038111611da55760051b60200190565b3563ffffffff811681036101dd5790565b906028116101dd5760200190600890565b90929192836028116101dd5783116101dd57602801916027190190565b6001600160401b038111611da557601f01601f191660200190565b929192611fa882611f81565b91611fb66040519384611e38565b8294818452818301116101dd578281602093845f960137010152565b903590601e19813603018212156101dd57018035906001600160401b0382116101dd576020019181360383136101dd57565b80518210156120185760209160051b010190565b634e487b7160e01b5f52603260045260245ffd5b908060209392818452848401375f828201840152601f01601f1916010190565b63ffffffff9094919394165f526020926003845261ffff60405f2091165f52835261207960405f20611e59565b8051156121195784156121125760028510156120b4575050610b1390604051938493639a6d49cd60e01b85526004850152602484019161202c565b91926120c3858596939661244b565b816002116101dd5761210f92601e926001199260405196836120ee8995518092858089019101611c27565b8401916002868501920190830137015f848201520390810184520182611e38565b90565b9350915050565b509261210f92503691611f9c565b6040519061213482611de7565b815f81525f6020820152604080519161214c83611d8a565b5f83525f60208401520152565b63ffffffff16805f52600160205260405f2054908115612177575090565b6024906040519063f6ff4fb760e01b82526004820152fd5b5f546001600160a01b031633036121a257565b60405163118cdaa760e01b8152336004820152602490fd5b908160209103126101dd575180151581036101dd5790565b9091602061229761220882850135957f000000000000000000000000000000000000000000000000000000000000000090612488565b61221861048b60a0870187611fd2565b80511580159791906123325761227291606891604051948592888401526001600160401b0360c01b9060c01b16604083015233604883015261226281518092898686019101611c27565b8101036048810184520182611e38565b935b84955f1461232a576002905b610d4661228c82611f42565b916080810190611fd2565b6004549093906001600160a01b0316806122b057505050565b6122dd83916122ef9360405180958194829363043a78eb60e01b8452604060048501526044840190611c48565b8281036003190160248401528a611c48565b03915afa8015611a4d57612301575050565b8161232092903d10612323575b6123188183611e38565b8101906121ba565b50565b503d61230e565b600190612280565b509060405191848301526001600160401b0360c01b9060c01b1660408201526028815261235e81611de7565b93612274565b91908260409103126101dd5760405161237c81611d8a565b6020808294805184520151910152565b906020909392936040835263ffffffff815116604084015281810151606084015260806123e06123ca604084015160a08488015260e0870190611c48565b6060840151868203603f190160a0880152611c48565b910151151560c08401526001600160a01b03909416910152565b3d15612424573d9061240b82611f81565b916124196040519384611e38565b82523d5f602084013e565b606090565b91908110156120185760051b81013590605e19813603018212156101dd570190565b90806002116101dd576003823560f01c03612464575050565b610b13604051928392639a6d49cd60e01b845260206004850152602484019161202c565b8115612492570490565b634e487b7160e01b5f52601260045260245ffd5b818102929181159184041417156124b957565b634e487b7160e01b5f52601160045260245ffd5b906124f457508051156124e257805190602001fd5b604051630a12f52160e11b8152600490fd5b81511580612527575b612505575090565b604051639996b31560e01b81526001600160a01b039091166004820152602490fd5b50803b156124fd565b6040516323b872dd60e01b60208201526001600160a01b039283166024820152929091166044830152606480830193909352918152611e999161257282611dcc565b5f8061259a9260018060a01b03169360208151910182865af16125936123fa565b90836124cd565b80519081151591826125c8575b50506125b05750565b60249060405190635274afe760e01b82526004820152fd5b6125db92506020809183010191016121ba565b155f806125a756fea26469706673582212209afb0628b6f2c1b3bc3899da933760b566253ed1c661fdfc2e31b4a6e43ced5364736f6c63430008180033a26469706673582212208c628b0353d37eaa59d664098df38e8a859aa5894c175990783f08306405484464736f6c63430008180033",
  "devdoc": {
    "errors": {
      "OwnableInvalidOwner(address)": [
        {
          "details": "The owner is not a valid owner account. (eg. `address(0)`)"
        }
      ],
      "OwnableUnauthorizedAccount(address)": [
        {
          "details": "The caller account is not authorized to perform an operation."
        }
      ]
    },
    "kind": "dev",
    "methods": {
      "allowInitializePath((uint32,bytes32,uint64))": {
        "details": "This indicates to the endpoint that the OApp has enabled msgs for this particular path to be received.This defaults to assuming if a peer has been set, its initialized. Can be overridden by the OApp if there is other logic to determine this.",
        "params": {
          "origin": "The origin information containing the source endpoint and sender address."
        },
        "returns": {
          "_0": "Whether the path has been initialized."
        }
      },
      "isComposeMsgSender((uint32,bytes32,uint64),bytes,address)": {
        "details": "_origin The origin information containing the source endpoint and sender address.  - srcEid: The source chain endpoint ID.  - sender: The sender address on the src chain.  - nonce: The nonce of the message._message The lzReceive payload.Applications can optionally choose to implement separate composeMsg senders that are NOT the bridging layer.The default sender IS the OAppReceiver implementer.",
        "params": {
          "_sender": "The sender address."
        },
        "returns": {
          "_0": "isSender Is a valid sender."
        }
      },
      "lzReceive((uint32,bytes32,uint64),bytes32,bytes,address,bytes)": {
        "details": "Entry point for receiving messages or packets from the endpoint.Entry point for receiving msg/packet from the LayerZero endpoint.",
        "params": {
          "_executor": "The address of the executor for the received message.",
          "_extraData": "Additional arbitrary data provided by the corresponding executor.",
          "_guid": "The unique identifier for the received LayerZero message.",
          "_message": "The payload of the received message.",
          "_origin": "The origin information containing the source endpoint and sender address.  - srcEid: The source chain endpoint ID.  - sender: The sender address on the src chain.  - nonce: The nonce of the message."
        }
      },
      "nextNonce(uint32,bytes32)": {
        "details": "_srcEid The source endpoint ID._sender The sender address.The path nonce starts from 1. If 0 is returned it means that there is NO nonce ordered enforcement.Is required by the off-chain executor to determine the OApp expects msg execution is ordered.This is also enforced by the OApp.By default this is NOT enabled. ie. nextNonce is hardcoded to return 0.",
        "returns": {
          "nonce": "The next nonce."
        }
      },
      "oAppVersion()": {
        "returns": {
          "receiverVersion": "The version of the OAppReceiver.sol implementation.",
          "senderVersion": "The version of the OAppSender.sol implementation."
        }
      },
      "owner()": {
        "details": "Returns the address of the current owner."
      },
      "renounceOwnership()": {
        "details": "Leaves the contract without owner. It will not be possible to call `onlyOwner` functions. Can only be called by the current owner. NOTE: Renouncing ownership will leave the contract without an owner, thereby disabling any functionality that is only available to the owner."
      },
      "setDelegate(address)": {
        "details": "Only the owner/admin of the OApp can call this function.Provides the ability for a delegate to set configs, on behalf of the OApp, directly on the Endpoint contract.",
        "params": {
          "_delegate": "The address of the delegate to be set."
        }
      },
      "setPeer(uint32,bytes32)": {
        "details": "Only the owner/admin of the OApp can call this function.Indicates that the peer is trusted to send LayerZero messages to this OApp.Set this to bytes32(0) to remove the peer address.Peer is a bytes32 to accommodate non-evm chains.",
        "params": {
          "_eid": "The endpoint ID.",
          "_peer": "The address of the peer to be associated with the corresponding endpoint."
        }
      },
      "transferOwnership(address)": {
        "details": "Transfers ownership of the contract to a new account (`newOwner`). Can only be called by the current owner."
      }
    },
    "version": 1
  },
  "userdoc": {
    "events": {
      "OFTAdapterCreated(address,address)": {
        "notice": "TODO: docs"
      }
    },
    "kind": "user",
    "methods": {
      "allowInitializePath((uint32,bytes32,uint64))": {
        "notice": "Checks if the path initialization is allowed based on the provided origin."
      },
      "endpoint()": {
        "notice": "Retrieves the LayerZero endpoint associated with the OApp."
      },
      "isComposeMsgSender((uint32,bytes32,uint64),bytes,address)": {
        "notice": "Indicates whether an address is an approved composeMsg sender to the Endpoint."
      },
      "nextNonce(uint32,bytes32)": {
        "notice": "Retrieves the next nonce for a given source endpoint and sender address."
      },
      "oAppVersion()": {
        "notice": "Retrieves the OApp version information."
      },
      "peers(uint32)": {
        "notice": "Retrieves the peer (OApp) associated with a corresponding endpoint."
      },
      "setDelegate(address)": {
        "notice": "Sets the delegate address for the OApp."
      },
      "setPeer(uint32,bytes32)": {
        "notice": "Sets the peer address (OApp instance) for a corresponding endpoint."
      }
    },
    "version": 1
  },
  "storageLayout": {
    "storage": [
      {
        "astId": 5510,
        "contract": "contracts/JasmineHubBridge.sol:JasmineHubBridge",
        "label": "_owner",
        "offset": 0,
        "slot": "0",
        "type": "t_address"
      },
      {
        "astId": 701,
        "contract": "contracts/JasmineHubBridge.sol:JasmineHubBridge",
        "label": "peers",
        "offset": 0,
        "slot": "1",
        "type": "t_mapping(t_uint32,t_bytes32)"
      },
      {
        "astId": 11543,
        "contract": "contracts/JasmineHubBridge.sol:JasmineHubBridge",
        "label": "adapters",
        "offset": 0,
        "slot": "2",
        "type": "t_mapping(t_address,t_address)"
      }
    ],
    "types": {
      "t_address": {
        "encoding": "inplace",
        "label": "address",
        "numberOfBytes": "20"
      },
      "t_bytes32": {
        "encoding": "inplace",
        "label": "bytes32",
        "numberOfBytes": "32"
      },
      "t_mapping(t_address,t_address)": {
        "encoding": "mapping",
        "key": "t_address",
        "label": "mapping(address => address)",
        "numberOfBytes": "32",
        "value": "t_address"
      },
      "t_mapping(t_uint32,t_bytes32)": {
        "encoding": "mapping",
        "key": "t_uint32",
        "label": "mapping(uint32 => bytes32)",
        "numberOfBytes": "32",
        "value": "t_bytes32"
      },
      "t_uint32": {
        "encoding": "inplace",
        "label": "uint32",
        "numberOfBytes": "4"
      }
    }
  }
}