{
  "address": "0xb033466330F6E83b34fB37641aCdC9BC185E6D57",
  "abi": [
    {
      "inputs": [
        {
          "internalType": "address",
          "name": "_endpoint",
          "type": "address"
        },
        {
          "internalType": "address",
          "name": "_delegate",
          "type": "address"
        }
      ],
      "stateMutability": "nonpayable",
      "type": "constructor"
    },
    {
      "inputs": [
        {
          "internalType": "address",
          "name": "underlying",
          "type": "address"
        },
        {
          "internalType": "address",
          "name": "adapter",
          "type": "address"
        }
      ],
      "name": "AdapterExists",
      "type": "error"
    },
    {
      "inputs": [],
      "name": "ErrorCreatingContract",
      "type": "error"
    },
    {
      "inputs": [],
      "name": "ErrorCreatingProxy",
      "type": "error"
    },
    {
      "inputs": [],
      "name": "InvalidDelegate",
      "type": "error"
    },
    {
      "inputs": [],
      "name": "InvalidEndpointCall",
      "type": "error"
    },
    {
      "inputs": [],
      "name": "LzTokenUnavailable",
      "type": "error"
    },
    {
      "inputs": [
        {
          "internalType": "uint32",
          "name": "eid",
          "type": "uint32"
        }
      ],
      "name": "NoPeer",
      "type": "error"
    },
    {
      "inputs": [
        {
          "internalType": "uint256",
          "name": "msgValue",
          "type": "uint256"
        }
      ],
      "name": "NotEnoughNative",
      "type": "error"
    },
    {
      "inputs": [
        {
          "internalType": "address",
          "name": "addr",
          "type": "address"
        }
      ],
      "name": "OnlyEndpoint",
      "type": "error"
    },
    {
      "inputs": [
        {
          "internalType": "uint32",
          "name": "eid",
          "type": "uint32"
        },
        {
          "internalType": "bytes32",
          "name": "sender",
          "type": "bytes32"
        }
      ],
      "name": "OnlyPeer",
      "type": "error"
    },
    {
      "inputs": [
        {
          "internalType": "address",
          "name": "owner",
          "type": "address"
        }
      ],
      "name": "OwnableInvalidOwner",
      "type": "error"
    },
    {
      "inputs": [
        {
          "internalType": "address",
          "name": "account",
          "type": "address"
        }
      ],
      "name": "OwnableUnauthorizedAccount",
      "type": "error"
    },
    {
      "inputs": [],
      "name": "TargetAlreadyExists",
      "type": "error"
    },
    {
      "anonymous": false,
      "inputs": [
        {
          "indexed": true,
          "internalType": "address",
          "name": "underlying",
          "type": "address"
        },
        {
          "indexed": true,
          "internalType": "address",
          "name": "adapter",
          "type": "address"
        }
      ],
      "name": "OFTAdapterCreated",
      "type": "event"
    },
    {
      "anonymous": false,
      "inputs": [
        {
          "indexed": true,
          "internalType": "address",
          "name": "previousOwner",
          "type": "address"
        },
        {
          "indexed": true,
          "internalType": "address",
          "name": "newOwner",
          "type": "address"
        }
      ],
      "name": "OwnershipTransferred",
      "type": "event"
    },
    {
      "anonymous": false,
      "inputs": [
        {
          "indexed": false,
          "internalType": "uint32",
          "name": "eid",
          "type": "uint32"
        },
        {
          "indexed": false,
          "internalType": "bytes32",
          "name": "peer",
          "type": "bytes32"
        }
      ],
      "name": "PeerSet",
      "type": "event"
    },
    {
      "inputs": [
        {
          "internalType": "address",
          "name": "underlying",
          "type": "address"
        }
      ],
      "name": "adapters",
      "outputs": [
        {
          "internalType": "address",
          "name": "oftAdapter",
          "type": "address"
        }
      ],
      "stateMutability": "view",
      "type": "function"
    },
    {
      "inputs": [
        {
          "components": [
            {
              "internalType": "uint32",
              "name": "srcEid",
              "type": "uint32"
            },
            {
              "internalType": "bytes32",
              "name": "sender",
              "type": "bytes32"
            },
            {
              "internalType": "uint64",
              "name": "nonce",
              "type": "uint64"
            }
          ],
          "internalType": "struct Origin",
          "name": "origin",
          "type": "tuple"
        }
      ],
      "name": "allowInitializePath",
      "outputs": [
        {
          "internalType": "bool",
          "name": "",
          "type": "bool"
        }
      ],
      "stateMutability": "view",
      "type": "function"
    },
    {
      "inputs": [
        {
          "internalType": "address",
          "name": "underlying",
          "type": "address"
        }
      ],
      "name": "createAdapter",
      "outputs": [
        {
          "internalType": "address",
          "name": "adapter",
          "type": "address"
        }
      ],
      "stateMutability": "nonpayable",
      "type": "function"
    },
    {
      "inputs": [],
      "name": "endpoint",
      "outputs": [
        {
          "internalType": "contract ILayerZeroEndpointV2",
          "name": "",
          "type": "address"
        }
      ],
      "stateMutability": "view",
      "type": "function"
    },
    {
      "inputs": [
        {
          "components": [
            {
              "internalType": "uint32",
              "name": "srcEid",
              "type": "uint32"
            },
            {
              "internalType": "bytes32",
              "name": "sender",
              "type": "bytes32"
            },
            {
              "internalType": "uint64",
              "name": "nonce",
              "type": "uint64"
            }
          ],
          "internalType": "struct Origin",
          "name": "",
          "type": "tuple"
        },
        {
          "internalType": "bytes",
          "name": "",
          "type": "bytes"
        },
        {
          "internalType": "address",
          "name": "_sender",
          "type": "address"
        }
      ],
      "name": "isComposeMsgSender",
      "outputs": [
        {
          "internalType": "bool",
          "name": "",
          "type": "bool"
        }
      ],
      "stateMutability": "view",
      "type": "function"
    },
    {
      "inputs": [
        {
          "components": [
            {
              "internalType": "uint32",
              "name": "srcEid",
              "type": "uint32"
            },
            {
              "internalType": "bytes32",
              "name": "sender",
              "type": "bytes32"
            },
            {
              "internalType": "uint64",
              "name": "nonce",
              "type": "uint64"
            }
          ],
          "internalType": "struct Origin",
          "name": "_origin",
          "type": "tuple"
        },
        {
          "internalType": "bytes32",
          "name": "_guid",
          "type": "bytes32"
        },
        {
          "internalType": "bytes",
          "name": "_message",
          "type": "bytes"
        },
        {
          "internalType": "address",
          "name": "_executor",
          "type": "address"
        },
        {
          "internalType": "bytes",
          "name": "_extraData",
          "type": "bytes"
        }
      ],
      "name": "lzReceive",
      "outputs": [],
      "stateMutability": "payable",
      "type": "function"
    },
    {
      "inputs": [
        {
          "internalType": "uint32",
          "name": "",
          "type": "uint32"
        },
        {
          "internalType": "bytes32",
          "name": "",
          "type": "bytes32"
        }
      ],
      "name": "nextNonce",
      "outputs": [
        {
          "internalType": "uint64",
          "name": "nonce",
          "type": "uint64"
        }
      ],
      "stateMutability": "view",
      "type": "function"
    },
    {
      "inputs": [],
      "name": "oAppVersion",
      "outputs": [
        {
          "internalType": "uint64",
          "name": "senderVersion",
          "type": "uint64"
        },
        {
          "internalType": "uint64",
          "name": "receiverVersion",
          "type": "uint64"
        }
      ],
      "stateMutability": "pure",
      "type": "function"
    },
    {
      "inputs": [],
      "name": "owner",
      "outputs": [
        {
          "internalType": "address",
          "name": "",
          "type": "address"
        }
      ],
      "stateMutability": "view",
      "type": "function"
    },
    {
      "inputs": [
        {
          "internalType": "uint32",
          "name": "eid",
          "type": "uint32"
        }
      ],
      "name": "peers",
      "outputs": [
        {
          "internalType": "bytes32",
          "name": "peer",
          "type": "bytes32"
        }
      ],
      "stateMutability": "view",
      "type": "function"
    },
    {
      "inputs": [
        {
          "internalType": "address",
          "name": "underlying",
          "type": "address"
        }
      ],
      "name": "predictAdapterAddress",
      "outputs": [
        {
          "internalType": "address",
          "name": "",
          "type": "address"
        }
      ],
      "stateMutability": "view",
      "type": "function"
    },
    {
      "inputs": [],
      "name": "renounceOwnership",
      "outputs": [],
      "stateMutability": "nonpayable",
      "type": "function"
    },
    {
      "inputs": [
        {
          "internalType": "address",
          "name": "_adapter",
          "type": "address"
        },
        {
          "internalType": "uint32",
          "name": "_eid",
          "type": "uint32"
        },
        {
          "internalType": "bytes32",
          "name": "_peer",
          "type": "bytes32"
        }
      ],
      "name": "setAdapterPeer",
      "outputs": [],
      "stateMutability": "nonpayable",
      "type": "function"
    },
    {
      "inputs": [
        {
          "internalType": "address",
          "name": "_delegate",
          "type": "address"
        }
      ],
      "name": "setDelegate",
      "outputs": [],
      "stateMutability": "nonpayable",
      "type": "function"
    },
    {
      "inputs": [
        {
          "internalType": "uint32",
          "name": "_eid",
          "type": "uint32"
        },
        {
          "internalType": "bytes32",
          "name": "_peer",
          "type": "bytes32"
        }
      ],
      "name": "setPeer",
      "outputs": [],
      "stateMutability": "nonpayable",
      "type": "function"
    },
    {
      "inputs": [
        {
          "internalType": "address",
          "name": "newOwner",
          "type": "address"
        }
      ],
      "name": "transferOwnership",
      "outputs": [],
      "stateMutability": "nonpayable",
      "type": "function"
    }
  ],
  "transactionHash": "0x1920ddbaa49c2e6ce6bf8950f69e3e1afe7aa183a552210b68749d00ee872fe9",
  "args": [
    "0x6EDCE65403992e310A62460808c4b910D972f10f",
    "0xD4447f8119A025004b720Be6264EbBAFd7220258"
  ],
  "numDeployments": 1,
  "solcInputHash": "418fcaafcd13277ae656b703b261110a",
  "bytecode": "0x60a03461013557613bb1906001600160401b03601f38849003908101601f191683019082821184831017610117578084916040968794855283398101031261013557602061004c83610150565b926001600160a01b039182916100629101610150565b16928315610139575f80546001600160a01b03198116861782558591908416907f8be0079c531659141344cd1fd0a4f28419497f9722a3daafe3b4186f6b6457e09080a3169182608052823b15610135575f92602484928651958693849263ca5eb5e160e01b845260048401525af1801561012b57610108575b8251613a4c90816101658239608051818181610218015281816103d8015281816107630152610aec0152f35b81116101175781525f806100dc565b634e487b7160e01b5f52604160045260245ffd5b83513d5f823e3d90fd5b5f80fd5b8451631e4fbdf760e01b81525f6004820152602490fd5b51906001600160a01b03821682036101355756fe6080604052600436101562000012575f80fd5b5f3560e01c806313137d65146200013457806317442b70146200012e5780632532096714620001285780633400288b14620001225780635e280f11146200011c5780636caa4fd11462000116578063715018a614620001105780637d25a05e146200010a57806382413eac14620001045780638da5cb5b14620000fe578063acf461f914620000f8578063bb0b6a5314620000f2578063ca5eb5e114620000ec578063e5711ffc14620000e6578063f2fde38b14620000e05763ff7bd03d14620000da575f80fd5b6200088b565b620007fa565b620007bd565b62000731565b620006f4565b620005b7565b6200058e565b62000527565b620004fd565b620004a2565b62000407565b620003c1565b62000335565b620002d9565b620002b6565b620001af565b60609060031901126200014c57600490565b5f80fd5b9181601f840112156200014c5782359167ffffffffffffffff83116200014c57602083818601950101116200014c57565b60a435906001600160a01b03821682036200014c57565b600435906001600160a01b03821682036200014c57565b60e03660031901126200014c57620001c7366200013a565b67ffffffffffffffff6084358181116200014c57620001eb90369060040162000150565b5050620001f762000181565b5060c4359081116200014c576200021390369060040162000150565b5050337f00000000000000000000000000000000000000000000000000000000000000006001600160a01b0316036200029e576200025b6200025582620008d5565b6200095e565b9060208101358092036200026b57005b6200027690620008d5565b60405163309afaf360e21b815263ffffffff9190911660048201526024810191909152604490fd5b6040516391ac5e4f60e01b8152336004820152602490fd5b346200014c575f3660031901126200014c57604080516001815260026020820152f35b346200014c5760203660031901126200014c576020620003146bffffffffffffffffffffffff196200030a62000198565b60601b1662000995565b6040516001600160a01b039091168152f35b63ffffffff8116036200014c57565b346200014c5760403660031901126200014c577f238399d427b947898edb290f5ff0f9109849b1c3ba196a42e35f00c50a54b98b600435620003778162000326565b602435906200038562000a50565b63ffffffff81165f5260016020528160405f2055620003bc604051928392836020909392919363ffffffff60408201951681520152565b0390a1005b346200014c575f3660031901126200014c576040517f00000000000000000000000000000000000000000000000000000000000000006001600160a01b03168152602090f35b346200014c575f60603660031901126200014c576200042562000198565b60243590620004348262000326565b6200043e62000a50565b6001600160a01b0316803b156200014c57604051633400288b60e01b815263ffffffff9290921660048301526044803560248401525f91839190829084905af180156200049c576200048e575080f35b6200049a9150620008f8565b005b62000953565b346200014c575f3660031901126200014c57620004be62000a50565b5f80546001600160a01b0319811682556001600160a01b03167f8be0079c531659141344cd1fd0a4f28419497f9722a3daafe3b4186f6b6457e08280a3005b346200014c5760403660031901126200014c576200051d60043562000326565b60206040515f8152f35b346200014c5760a03660031901126200014c5762000545366200013a565b5060643567ffffffffffffffff81116200014c576200056990369060040162000150565b50506084356001600160a01b038116908190036200014c576020906040519030148152f35b346200014c575f3660031901126200014c575f546040516001600160a01b039091168152602090f35b346200014c5760203660031901126200014c57620005d462000198565b620005de62000a50565b6001600160a01b038181165f818152600260205260409020549092908216620006b1576200064f6200066e82620006366200061d620006ad9562000aa7565b6bffffffffffffffffffffffff198360601b1662000bce565b92839160018060a01b03165f52600260205260405f2090565b80546001600160a01b0319166001600160a01b03909216919091179055565b6040519384938216907f7b266fdd82702074c05cddea1ec07dae2db6a870c274ca3166f3ae1f7dfe52745f80a36001600160a01b031682526020820190565b0390f35b6001600160a01b038181165f908152600260205260409020541660405163738f6e4f60e11b81526001600160a01b03928316600482015291166024820152604490fd5b346200014c5760203660031901126200014c5763ffffffff6004356200071a8162000326565b165f526001602052602060405f2054604051908152f35b346200014c575f60203660031901126200014c576200074f62000198565b6200075962000a50565b6001600160a01b037f000000000000000000000000000000000000000000000000000000000000000081169190823b156200014c5760245f9283604051958694859363ca5eb5e160e01b85521660048401525af180156200049c576200048e575080f35b346200014c5760203660031901126200014c5760206001600160a01b0380620007e562000198565b165f526002825260405f205416604051908152f35b346200014c5760203660031901126200014c576200081762000198565b6200082162000a50565b6001600160a01b0390811690811562000873575f54826bffffffffffffffffffffffff60a01b8216175f55167f8be0079c531659141344cd1fd0a4f28419497f9722a3daafe3b4186f6b6457e05f80a3005b604051631e4fbdf760e01b81525f6004820152602490fd5b346200014c5760603660031901126200014c576020620008ab366200013a565b63ffffffff8135620008bd8162000326565b165f526001825260405f205482604051920135148152f35b35620008e18162000326565b90565b634e487b7160e01b5f52604160045260245ffd5b67ffffffffffffffff81116200090d57604052565b620008e4565b6080810190811067ffffffffffffffff8211176200090d57604052565b90601f8019910116810190811067ffffffffffffffff8211176200090d57604052565b6040513d5f823e3d90fd5b63ffffffff16805f52600160205260405f20549081156200097d575090565b6024906040519063f6ff4fb760e01b82526004820152fd5b604051602081019160ff60f81b83523060601b602183015260358201527f21c35dbe1b344a2488cf3321d6ce542f8e9f305544ff09e4993a62319a497c1f605582015260558152620009e78162000913565b519020604080516135a560f21b6020820190815260609390931b6bffffffffffffffffffffffff19166022820152600160f81b6036820152601781529081019167ffffffffffffffff8311828410176200090d576040929092525190206001600160a01b031690565b5f546001600160a01b0316330362000a6457565b60405163118cdaa760e01b8152336004820152602490fd5b908151915f5b83811062000a93575050015f815290565b806020809284010151818501520162000a82565b620008e162000b379162000b3e612da6916040519262000acb602082018562000930565b80845262000c7160208501396040519060018060a01b0380911660208301527f00000000000000000000000000000000000000000000000000000000000000001660408201523060608201526060815262000b268162000913565b604051948593602085019062000a7c565b9062000a7c565b03601f19810183528262000930565b604051906040820182811067ffffffffffffffff8211176200090d57604052601082526f67363d3d37363d34f03d5260086018f360801b6020830152565b3d1562000bc9573d9067ffffffffffffffff82116200090d576040519162000bbe601f8201601f19166020018462000930565b82523d5f602084013e565b606090565b919062000bda62000b4d565b9262000be68162000995565b93843b62000c5e576020815191015ff56001600160a01b0381161562000c4c57815f92918360208194519301915af162000c1f62000b8b565b5015801562000c42575b62000c3057565b6040516353de54b960e01b8152600490fd5b50813b1562000c29565b60405163bbd2fe8760e01b8152600490fd5b60405163cd43efa160e01b8152600490fdfe60e06040908082523462000259575f60608262002da68038038091620000268285620002c2565b83398101031262000259576200003c82620002fa565b9062000058846200005060208601620002fa565b9401620002fa565b845163313ce56760e01b81526001600160a01b0393841694600494919290919060208487818a5afa938415620002b8575f9462000273575b5081169182156200025d575f80546001600160a01b03198116851782558491908416907f8be0079c531659141344cd1fd0a4f28419497f9722a3daafe3b4186f6b6457e09080a3169081608052813b1562000259575f91602483928951948593849263ca5eb5e160e01b84528a8401525af180156200024f576200021e575b5060ff16600681106200020e576005190160ff8111620001fb5760ff1691604d8311620001e8575050600a0a60a05260c05251612a9690816200031082396080518181816107550152818161083301528181610a4901528181610bc301528181610c190152818161166c015281816118680152611ad6015260a0518181816103b9015281816105fc01528181610927015281816114a6015281816117b701528181611d3e0152612627015260c0518181816101fa015281816104880152818161065b0152818161096a015281816119b30152611c320152f35b634e487b7160e01b825260119052602490fd5b506011602492634e487b7160e01b835252fd5b84516301e9714b60e41b81528390fd5b9091506001600160401b0381116200023c5784525f9060ff6200010f565b604183634e487b7160e01b5f525260245ffd5b86513d5f823e3d90fd5b5f80fd5b8751631e4fbdf760e01b81525f81880152602490fd5b9093506020813d602011620002af575b816200029260209383620002c2565b8101031262000259575160ff811681036200025957928162000090565b3d915062000283565b88513d5f823e3d90fd5b601f909101601f19168101906001600160401b03821190821017620002e657604052565b634e487b7160e01b5f52604160045260245ffd5b51906001600160a01b0382168203620002595756fe6080806040526004361015610012575f80fd5b5f9060e05f35811c9182630d35b41514611f4f57508163111ecdad14611f2757816313137d6514611abd578163134d4f2514611aa2578163156a0d0f14611a7c57816317442b7014611a5b5781631f5e133414611a4057816329dc1467146119805781633400288b146119115781633b6f743b1461174657816352ae28791461172b5781635535d461146116de5781635a0dfe4d1461169b5781635e280f11146116565781636fc1b31e146115e8578163715018a61461158f5781637d25a05e1461156957816382413eac1461150c578163857749b0146114f05781638da5cb5b146114c9578163963efcaa1461148e5781639f68b96414611472578163ac9650d8146112fe578163b731ea0a146112d5578163b98bd07014611007578163bb0b6a5314610fd2578163bc70b35414610f68578163bd815db014610cf1578163c7c7f5b3146108a9578163ca5eb5e114610806578163d045a0dc1461032457508063d4243885146102b6578063f2fde38b14610229578063fc0c546a146101e45763ff7bd03d146101a1575f80fd5b346101e15760603660031901126101e15760043563ffffffff81168091036101dd57816040916020935260018352205460405190602435148152f35b5f80fd5b80fd5b50346101e157806003193601126101e1576040517f00000000000000000000000000000000000000000000000000000000000000006001600160a01b03168152602090f35b50346101e15760203660031901126101e157610243612120565b61024b6125d3565b6001600160a01b0390811690811561029d575f54826bffffffffffffffffffffffff60a01b8216175f55167f8be0079c531659141344cd1fd0a4f28419497f9722a3daafe3b4186f6b6457e05f80a380f35b604051631e4fbdf760e01b815260048101849052602490fd5b50346101e15760203660031901126101e1577fd48d879cef83a1c0bdda516f27b13ddb1b3f8bbac1c9e1511bb2a659c242776060206102f3612120565b6102fb6125d3565b600280546001600160a01b0319166001600160a01b03929092169182179055604051908152a180f35b905061032f36612136565b9396909150949193943033036107f457831590816105c85750805f9161056d5782359160ff60f81b83169260f81c806003109081156105b2575b50610595576004811015610581578061040d575b5050505061038b91506123c8565b92816020116101dd576103df6103af5f80516020612a418339815191529383612918565b6001600160401b037f000000000000000000000000000000000000000000000000000000000000000091166128f1565b6040805163ffffffff9096168652602086019190915290356001600160a01b03169390819081015b0390a380f35b6001810361052857505050826021116101dd576001600160a01b0392600182013584811691908290036101dd57806041116101dd578201602083820360401901126101dd5760418301356001600160401b0381116101dd57830190806060830112156101dd57816061604161048594013591016123f4565b937f000000000000000000000000000000000000000000000000000000000000000016803b156101dd575f92836021936104ef6040519889968795869463fd40baaf60e01b86523060048701526024860152013560448401526080606484015260848301906120ce565b03925af191821561051d5761038b9261050e575b505b5f80808061037d565b6105179061223f565b5f610503565b6040513d5f823e3d90fd5b8092949550600291935003610544575b50505061038b90610505565b6003036105515780610538565b61056d5760249060405190637b5f85ed60e11b82526004820152fd5b634e487b7160e01b5f52603260045260245ffd5b634e487b7160e01b5f52602160045260245ffd5b5061056d5760249060405190637b5f85ed60e11b82526004820152fd5b925090505f91600481101561058157905f610369565b9493505050816020116101dd576001600160a01b0385358116956105ec8482612918565b936106226001600160401b0395867f000000000000000000000000000000000000000000000000000000000000000091166128f1565b9461062c856123c8565b5061067f60405163a9059cbb60e01b60208201528a602482015287604482015260448152610659816122a3565b7f00000000000000000000000000000000000000000000000000000000000000006129cf565b602882116106c5575b505050505f80516020612a4183398151915292506106a5906123c8565b6040805163ffffffff909216825260208201929092529081908101610407565b604085013590811681036101dd576106dc856123c8565b96826028116101dd576106fe604c9361075395602836926027190191016123f4565b906040519889936001600160401b0360c01b9060c01b16602085015263ffffffff60e01b911b16602883015286602c83015261074381518092602086860191016120ad565b810103602c8101875201856122be565b7f000000000000000000000000000000000000000000000000000000000000000016803b156101dd576107ba5f94918592604051968780948193633e5ac80960e11b83528c60048401528b60248401528360448401526080606484015260848301906120ce565b03925af190811561051d575f80516020612a41833981519152936106a5926107e5575b819281610688565b6107ee9061223f565b5f6107dd565b60405163029a949d60e31b8152600490fd5b82346101e15760203660031901126101e15780610821612120565b6108296125d3565b6001600160a01b037f000000000000000000000000000000000000000000000000000000000000000081169190823b156108a4576024849283604051958694859363ca5eb5e160e01b85521660048401525af18015610899576108895750f35b6108929061223f565b6101e15780f35b6040513d84823e3d90fd5b505050fd5b8260031991608083360112610b9157600435926001600160401b038411610ced5783360301126101e15760403660231901126101e1576064356001600160a01b03811690036101dd576108fa61256b565b505f602060405161090a81612210565b8281520152606482013591610921816004016123c8565b506109597f00000000000000000000000000000000000000000000000000000000000000006109548160448501356128d3565b6128f1565b92808410610ccf575061098e8330337f000000000000000000000000000000000000000000000000000000000000000061298d565b61099b8382600401612616565b6109aa836004969396016123c8565b906040516109b781612210565b602435815260443560208201526109cc61256b565b50805191823403610cb757602082015180610ba8575b5090839291610a459860206109f860809761259d565b93015115159263ffffffff60405196610a1088612252565b1686526020860152604085015260608401528383015260405180809881946302637a4560e41b835260643590600484016127d7565b03917f00000000000000000000000000000000000000000000000000000000000000006001600160a01b03165af1928315610b9c578093610b24575b5060c0935060405190610a9382612210565b8082526020820192818452610aac8551916004016123c8565b9163ffffffff6040519316835280602084015260408301527f85496b760a4b7f8d66384b9df21b381f5d1b1e79f229a47aaf4c232edc2fe59a60603393a360206040805194805186526001600160401b03838201511683870152015180516040860152015160608401525160808301525160a0820152f35b90925060803d608011610b95575b610b3c81866122be565b840193608081860312610b915760405191610b568361226d565b815183526020820151906001600160401b03821682036101e15750602083015260c094610b85916040016127af565b60408201529184610a81565b5080fd5b503d610b32565b604051903d90823e3d90fd5b60405163393f876560e21b81529094939291906020816004817f00000000000000000000000000000000000000000000000000000000000000006001600160a01b03165afa908115610cac578991610c66575b506001600160a01b0316988915610c5457610a4599608096610c49917f00000000000000000000000000000000000000000000000000000000000000006001600160a01b031690339061298d565b9850909192936109e2565b6040516329b99a9560e11b8152600490fd5b90506020813d602011610ca4575b81610c81602093836122be565b81010312610ca057516001600160a01b0381168103610ca0578a610bfb565b8880fd5b3d9150610c74565b6040513d8b823e3d90fd5b6040516304fb820960e51b8152346004820152602490fd5b83604491604051916371c4efed60e01b835260048301526024820152fd5b8280fd5b82602090600319928284360112610b91576001600160401b0393600435858111610f6457610d23903690600401612381565b9290845b848110610e0257604051638e9e709960e01b815288908890888082600481335afa938415610df5578194610d7f575b505050610d7b604051928392638351eea760e01b8452600484015260248301906120ce565b0390fd5b90919293503d8083853e610d9381856122be565b8301928481850312610ced578051918211610ced570182601f82011215610b9157805191610dc0836123d9565b93610dce60405195866122be565b8385528584840101116101e1575090610dec918480850191016120ad565b90828080610d56565b50604051903d90823e3d90fd5b8060051b82013561013e1983360301811215610f60578201610e23816123c8565b90610e4389820135809363ffffffff165f52600160205260405f20541490565b15610f5657610e5661010082018261242a565b868301356001600160a01b038116929190839003610f5257610e7c61012085018561242a565b929091303b15610f4e57604051633411683760e21b8152968f9063ffffffff610ea4896121b6565b1660048a015260248901526040870135908116809103610f4a5787958e979587958e610ef28f97899760c099610f069860448b015260a08d013560648b015260848a015260e4890191612470565b9360a48701528584030160c4860152612470565b03920135305af18015610f3f57908791610f27575b50506001905b01610d27565b610f309061223f565b610f3b578589610f1b565b8580fd5b6040513d89823e3d90fd5b8d80fd5b8c80fd5b8a80fd5b5050600190610f21565b8680fd5b8380fd5b82346101e15760603660031901126101e157610f826121a3565b610f8a6121c7565b91604435906001600160401b0382116101e157610fce610fba8585610fb236600488016120f3565b929091612490565b6040519182916020835260208301906120ce565b0390f35b82346101e15760203660031901126101e157604060209163ffffffff610ff66121a3565b168152600183522054604051908152f35b82346101e157602080600319360112610b91576001600160401b03600435818111610f64579161103c84933690600401612381565b9290916110476125d3565b845b84811061113e5750604051938082860183875252604085019160408260051b87010194809488915b8483106110a257897fbe4864a8e820971c0247f5992e2da559595f7bf076a21cb5928d443d2a13b6748a8a038ba180f35b90919293949596603f198982030187528735605e1983360301811215610f5257820160609063ffffffff6110d5826121b6565b1683528681013561ffff81168091036101dd57878401526040810135601e1982360301811215610f4e570190868235920192858311610f4e578236038413610f4e57600193889383838695604061112f9601520191612470565b99019701959493019190611071565b949361116361115d6111538884889698612874565b604081019061242a565b90612896565b611171611153878385612874565b63ffffffff61118c6111878a86889c969c612874565b6123c8565b1687526003865260408720866111a3848688612874565b013561ffff8116809103610ca0575f52865260405f20908581116112c1576111cb82546121d8565b601f90818111611281575b508890821160011461121d578190899a6001969798999a92611212575b50505f19600383901b1c191690841b1790555b01939093929192611049565b013590508a806111f3565b601f19821699838a52888a20918a5b8c811061126a57508360019798999a9b9c10611251575b505050831b83019055611206565b01355f19600384901b60f8161c19169055898080611243565b90928a60018192868601358155019401910161122c565b838a52888a208280850160051c8201928b86106112b8575b0160051c01905b8181106112ad57506111d6565b8a81556001016112a0565b92508192611299565b634e487b7160e01b88526041600452602488fd5b82346101e157806003193601126101e1576002546040516001600160a01b039091168152602090f35b82346101e157602080600319360112610b91576004356001600160401b038111610ced5761133183913690600401612381565b60405161133d81612288565b8381528481019061134d836123b1565b9361135b60405195866122be565b838552611367846123b1565b601f1901865b818110611463575050855b8481106113de5787878760405191838301848452825180915260408401948060408360051b870101940192955b8287106113b25785850386f35b9091929382806113ce600193603f198a820301865288516120ce565b96019201960195929190926113a5565b8061144488808b6114246114306113ff9d9e9d60019860051b8a018a61242a565b8b8d60409693965195838794868601998a37840191858301938a8552519384916120ad565b010380845201826122be565b5190305af461143d612845565b903061292a565b61144e828961245c565b52611459818861245c565b5001969596611378565b60608782018a0152880161136d565b82346101e157806003193601126101e157602060405160018152f35b82346101e157806003193601126101e15760206040517f00000000000000000000000000000000000000000000000000000000000000008152f35b82346101e157806003193601126101e157546040516001600160a01b039091168152602090f35b82346101e157806003193601126101e157602060405160068152f35b82346101e157366003190160a08112610b91576060136101e1576064356001600160401b038111610b91576115459036906004016120f3565b50506084356001600160a01b038116908190036101dd576020906040519030148152f35b82346101e15760403660031901126101e1576020906115866121a3565b50604051908152f35b82346101e157806003193601126101e1576115a86125d3565b5f80546001600160a01b0319811682556001600160a01b03167f8be0079c531659141344cd1fd0a4f28419497f9722a3daafe3b4186f6b6457e08280a380f35b82346101e15760203660031901126101e1577ff0be4f1e87349231d80c36b33f9e8639658eeaf474014dee15a3e6a4d44141976020611625612120565b61162d6125d3565b600480546001600160a01b0319166001600160a01b03929092169182179055604051908152a180f35b82346101e157806003193601126101e1576040517f00000000000000000000000000000000000000000000000000000000000000006001600160a01b03168152602090f35b82346101e15760403660031901126101e15760206116d46116ba6121a3565b6024359063ffffffff165f52600160205260405f20541490565b6040519015158152f35b82346101e15760403660031901126101e15761ffff60406116fd6121a3565b9263ffffffff61170b6121c7565b9416815260036020522091165f52602052610fce610fba60405f206122df565b82346101e157806003193601126101e1576020604051308152f35b905034610b915760031990604036830112610ced57600435906001600160401b038211610f645781600401928236030112610ced5760243590811515809203610f64575f602060405161179881612210565b82815201526117e060446109546064840135936117b4876123c8565b507f000000000000000000000000000000000000000000000000000000000000000092839101356128d3565b908082106118f35750916040916118056117fd6118649584612616565b9190936123c8565b925f6020865161181481612210565b82815201526118228461259d565b63ffffffff86519561183387612252565b16855260208501528484015260608301526080820152815180938192631bb8518b60e31b83523090600484016127d7565b03817f00000000000000000000000000000000000000000000000000000000000000006001600160a01b03165afa9081156108995782916118b5575b60408260208251918051835201516020820152f35b905060403d6040116118ec575b6118cc81836122be565b8101916040828403126101e157506040916118e6916127af565b5f6118a0565b503d6118c2565b60449250604051916371c4efed60e01b835260048301526024820152fd5b82346101e15760403660031901126101e1577f238399d427b947898edb290f5ff0f9109849b1c3ba196a42e35f00c50a54b98b61194c6121a3565b602435906119586125d3565b63ffffffff16808452600160209081526040808620849055805192835290820192909252a180f35b82346101dd5760c03660031901126101dd5761199a612120565b6064359060ff82168092036101dd576001600160a01b037f00000000000000000000000000000000000000000000000000000000000000008116803b156101dd575f928360e492604051968795869463d505accf60e01b865216600485015230602485015260243560448501526044356064850152608484015260843560a484015260a43560c48401525af1801561051d57611a34575080f35b611a3e915061223f565b005b346101dd575f3660031901126101dd57602060405160018152f35b346101dd575f3660031901126101dd57604080516001815260026020820152f35b346101dd575f3660031901126101dd576040805162b9270b60e21b815260016020820152f35b346101dd575f3660031901126101dd57602060405160028152f35b611ac636612136565b949592946001600160a01b0394937f00000000000000000000000000000000000000000000000000000000000000008616935091338403611f0f57611b12611b0d846123c8565b61259d565b986020998a850135809103611ede575082159485611d11575050835f9461056d5781359060ff60f81b82169160f81c80600310908115611cfb575b5061055157600486101561058157858996611bbc575b5050505050611b71906123c8565b95116101dd57611bb7611b956103af5f80516020612a418339815191529584612918565b604051938493351696836020909392919363ffffffff60408201951681520152565b0390a3005b9395929360018103611cca5750505050826021116101dd576001810135928584168094036101dd57806041116101dd5781018860401983830301126101dd5760418201356001600160401b0381116101dd57820190806060830112156101dd578160616041611c2e94013591016123f4565b92857f000000000000000000000000000000000000000000000000000000000000000016803b156101dd575f9283602193611c996040519889968795869463fd40baaf60e01b86523060048701526024860152013560448401526080606484015260848301906120ce565b03925af190811561051d578592611b7192611cbb575b505b9088808080611b63565b611cc49061223f565b88611caf565b6002919396508092945003611ce6575b505050611b7190611cb1565b60039192939450036105515780869392611cda565b915095505f90600481101561058157958c611b4d565b9450959150508588929498116101dd5787351696611d2f8682612918565b611d646001600160401b0391827f000000000000000000000000000000000000000000000000000000000000000091166128f1565b95611d6e866123c8565b50611d9a60405163a9059cbb60e01b868201528b602482015288604482015260448152610659816122a3565b60288811611de1575b50505050505f80516020612a418339815191529250611dc1906123c8565b6040805163ffffffff909216825260208201929092529081908101611bb7565b604086013591821682036101dd57611df8866123c8565b97806028116101dd57611e5e94611e1e61074392604c96602836926027190191016123f4565b926040519a8b956001600160401b0360c01b9060c01b168387015263ffffffff60e01b911b16602885015288602c850152825192839186860191016120ad565b803b156101dd57611ea35f94918592604051968780948193633e5ac80960e11b83528c60048401528b60248401528360448401526080606484015260848301906120ce565b03925af190811561051d575f80516020612a4183398151915293611dc192611ecf575b81928180611da3565b611ed89061223f565b86611ec6565b611ee7856123c8565b60405163309afaf360e21b815263ffffffff9190911660048201526024810191909152604490fd5b6040516391ac5e4f60e01b8152336004820152602490fd5b346101dd575f3660031901126101dd576004546040516001600160a01b039091168152602090f35b346101dd576020916003199183833601126101dd57600435916001600160401b03938484116101dd5783360301126101dd578381611f8d5f93612210565b82815201525f83604051611fa081612210565b828152015260405190611fb282612210565b5f825283820192835260405191611fc883612288565b5f8352611fe560446109546064850135946117b4816004016123c8565b9180831061208f57509360405194611ffc86612210565b8286528186019283526040519460a0860191518652518286015260a06040860152835180915260c08501918060c08360051b8801019501925f905b83821061205257885160608901528551608089015287870388f35b9091929395838061208060019360bf198c82030186526040838c5180518452015191818582015201906120ce565b98019201920190939291612037565b82604491604051916371c4efed60e01b835260048301526024820152fd5b5f5b8381106120be5750505f910152565b81810151838201526020016120af565b906020916120e7815180928185528580860191016120ad565b601f01601f1916010190565b9181601f840112156101dd578235916001600160401b0383116101dd57602083818601950101116101dd57565b600435906001600160a01b03821682036101dd57565b600319810160e081126101dd576060136101dd57600491606435916001600160401b03906084358281116101dd5781612171916004016120f3565b9093909260a4356001600160a01b03811681036101dd579260c4359182116101dd5761219f916004016120f3565b9091565b6004359063ffffffff821682036101dd57565b359063ffffffff821682036101dd57565b6024359061ffff821682036101dd57565b90600182811c92168015612206575b60208310146121f257565b634e487b7160e01b5f52602260045260245ffd5b91607f16916121e7565b604081019081106001600160401b0382111761222b57604052565b634e487b7160e01b5f52604160045260245ffd5b6001600160401b03811161222b57604052565b60a081019081106001600160401b0382111761222b57604052565b606081019081106001600160401b0382111761222b57604052565b602081019081106001600160401b0382111761222b57604052565b608081019081106001600160401b0382111761222b57604052565b90601f801991011681019081106001600160401b0382111761222b57604052565b9060405191825f82546122f1816121d8565b908184526020946001916001811690815f1461235f5750600114612321575b50505061231f925003836122be565b565b5f90815285812095935091905b81831061234757505061231f93508201015f8080612310565b8554888401850152948501948794509183019161232e565b9250505061231f94925060ff191682840152151560051b8201015f8080612310565b9181601f840112156101dd578235916001600160401b0383116101dd576020808501948460051b0101116101dd57565b6001600160401b03811161222b5760051b60200190565b3563ffffffff811681036101dd5790565b6001600160401b03811161222b57601f01601f191660200190565b929192612400826123d9565b9161240e60405193846122be565b8294818452818301116101dd578281602093845f960137010152565b903590601e19813603018212156101dd57018035906001600160401b0382116101dd576020019181360383136101dd57565b805182101561056d5760209160051b010190565b908060209392818452848401375f828201840152601f01601f1916010190565b63ffffffff9094919394165f526020926003845261ffff60405f2091165f5283526124bd60405f206122df565b80511561255d5784156125565760028510156124f8575050610d7b90604051938493639a6d49cd60e01b855260048501526024840191612470565b91926125078585969396612896565b816002116101dd5761255392601e9260011992604051968361253289955180928580890191016120ad565b8401916002868501920190830137015f8482015203908101845201826122be565b90565b9350915050565b5092612553925036916123f4565b604051906125788261226d565b815f81525f6020820152604080519161259083612210565b5f83525f60208401520152565b63ffffffff16805f52600160205260405f20549081156125bb575090565b6024906040519063f6ff4fb760e01b82526004820152fd5b5f546001600160a01b031633036125e657565b60405163118cdaa760e01b8152336004820152602490fd5b908160209103126101dd575180151581036101dd5790565b909160206126e261264c82850135957f0000000000000000000000000000000000000000000000000000000000000000906128d3565b61266361265c60a087018761242a565b36916123f4565b805115801597919061277d576126bd91606891604051948592888401526001600160401b0360c01b9060c01b1660408301523360488301526126ad815180928986860191016120ad565b81010360488101845201826122be565b935b84955f14612775576002905b610fb26126d7826123c8565b91608081019061242a565b6004549093906001600160a01b0316806126fb57505050565b612728839161273a9360405180958194829363043a78eb60e01b84526040600485015260448401906120ce565b8281036003190160248401528a6120ce565b03915afa801561051d5761274c575050565b8161276b92903d1061276e575b61276381836122be565b8101906125fe565b50565b503d612759565b6001906126cb565b509060405191848301526001600160401b0360c01b9060c01b166040820152602881526127a98161226d565b936126bf565b91908260409103126101dd576040516127c781612210565b6020808294805184520151910152565b906020909392936040835263ffffffff8151166040840152818101516060840152608061282b612815604084015160a08488015260e08701906120ce565b6060840151868203603f190160a08801526120ce565b910151151560c08401526001600160a01b03909416910152565b3d1561286f573d90612856826123d9565b9161286460405193846122be565b82523d5f602084013e565b606090565b919081101561056d5760051b81013590605e19813603018212156101dd570190565b90806002116101dd576003823560f01c036128af575050565b610d7b604051928392639a6d49cd60e01b8452602060048501526024840191612470565b81156128dd570490565b634e487b7160e01b5f52601260045260245ffd5b8181029291811591840414171561290457565b634e487b7160e01b5f52601160045260245ffd5b906028116101dd576020013560c01c90565b90612951575080511561293f57805190602001fd5b604051630a12f52160e11b8152600490fd5b81511580612984575b612962575090565b604051639996b31560e01b81526001600160a01b039091166004820152602490fd5b50803b1561295a565b6040516323b872dd60e01b60208201526001600160a01b03928316602482015292909116604483015260648083019390935291815261231f916129cf82612252565b5f806129f79260018060a01b03169360208151910182865af16129f0612845565b908361292a565b8051908115159182612a25575b5050612a0d5750565b60249060405190635274afe760e01b82526004820152fd5b612a3892506020809183010191016125fe565b155f80612a0456feefed6d3500546b29533b128a29e3a94d70788727f0507505ac12eaf2e578fd9ca26469706673582212206875ba61ff8d41e5d3c0f000fc71f5d742d993382def0fea53a2542dd60c461264736f6c63430008180033a2646970667358221220ee9c166d964c760e929a813d7bac6ef28e9e636cfe5eeda587c3c5abea5b788264736f6c63430008180033",
  "devdoc": {
    "errors": {
      "OwnableInvalidOwner(address)": [
        {
          "details": "The owner is not a valid owner account. (eg. `address(0)`)"
        }
      ],
      "OwnableUnauthorizedAccount(address)": [
        {
          "details": "The caller account is not authorized to perform an operation."
        }
      ]
    },
    "kind": "dev",
    "methods": {
      "allowInitializePath((uint32,bytes32,uint64))": {
        "details": "This indicates to the endpoint that the OApp has enabled msgs for this particular path to be received.This defaults to assuming if a peer has been set, its initialized. Can be overridden by the OApp if there is other logic to determine this.",
        "params": {
          "origin": "The origin information containing the source endpoint and sender address."
        },
        "returns": {
          "_0": "Whether the path has been initialized."
        }
      },
      "isComposeMsgSender((uint32,bytes32,uint64),bytes,address)": {
        "details": "_origin The origin information containing the source endpoint and sender address.  - srcEid: The source chain endpoint ID.  - sender: The sender address on the src chain.  - nonce: The nonce of the message._message The lzReceive payload.Applications can optionally choose to implement separate composeMsg senders that are NOT the bridging layer.The default sender IS the OAppReceiver implementer.",
        "params": {
          "_sender": "The sender address."
        },
        "returns": {
          "_0": "isSender Is a valid sender."
        }
      },
      "lzReceive((uint32,bytes32,uint64),bytes32,bytes,address,bytes)": {
        "details": "Entry point for receiving messages or packets from the endpoint.Entry point for receiving msg/packet from the LayerZero endpoint.",
        "params": {
          "_executor": "The address of the executor for the received message.",
          "_extraData": "Additional arbitrary data provided by the corresponding executor.",
          "_guid": "The unique identifier for the received LayerZero message.",
          "_message": "The payload of the received message.",
          "_origin": "The origin information containing the source endpoint and sender address.  - srcEid: The source chain endpoint ID.  - sender: The sender address on the src chain.  - nonce: The nonce of the message."
        }
      },
      "nextNonce(uint32,bytes32)": {
        "details": "_srcEid The source endpoint ID._sender The sender address.The path nonce starts from 1. If 0 is returned it means that there is NO nonce ordered enforcement.Is required by the off-chain executor to determine the OApp expects msg execution is ordered.This is also enforced by the OApp.By default this is NOT enabled. ie. nextNonce is hardcoded to return 0.",
        "returns": {
          "nonce": "The next nonce."
        }
      },
      "oAppVersion()": {
        "returns": {
          "receiverVersion": "The version of the OAppReceiver.sol implementation.",
          "senderVersion": "The version of the OAppSender.sol implementation."
        }
      },
      "owner()": {
        "details": "Returns the address of the current owner."
      },
      "renounceOwnership()": {
        "details": "Leaves the contract without owner. It will not be possible to call `onlyOwner` functions. Can only be called by the current owner. NOTE: Renouncing ownership will leave the contract without an owner, thereby disabling any functionality that is only available to the owner."
      },
      "setDelegate(address)": {
        "details": "Only the owner/admin of the OApp can call this function.Provides the ability for a delegate to set configs, on behalf of the OApp, directly on the Endpoint contract.",
        "params": {
          "_delegate": "The address of the delegate to be set."
        }
      },
      "setPeer(uint32,bytes32)": {
        "details": "Only the owner/admin of the OApp can call this function.Indicates that the peer is trusted to send LayerZero messages to this OApp.Set this to bytes32(0) to remove the peer address.Peer is a bytes32 to accommodate non-evm chains.",
        "params": {
          "_eid": "The endpoint ID.",
          "_peer": "The address of the peer to be associated with the corresponding endpoint."
        }
      },
      "transferOwnership(address)": {
        "details": "Transfers ownership of the contract to a new account (`newOwner`). Can only be called by the current owner."
      }
    },
    "version": 1
  },
  "userdoc": {
    "events": {
      "OFTAdapterCreated(address,address)": {
        "notice": "TODO: docs"
      }
    },
    "kind": "user",
    "methods": {
      "allowInitializePath((uint32,bytes32,uint64))": {
        "notice": "Checks if the path initialization is allowed based on the provided origin."
      },
      "endpoint()": {
        "notice": "Retrieves the LayerZero endpoint associated with the OApp."
      },
      "isComposeMsgSender((uint32,bytes32,uint64),bytes,address)": {
        "notice": "Indicates whether an address is an approved composeMsg sender to the Endpoint."
      },
      "nextNonce(uint32,bytes32)": {
        "notice": "Retrieves the next nonce for a given source endpoint and sender address."
      },
      "oAppVersion()": {
        "notice": "Retrieves the OApp version information."
      },
      "peers(uint32)": {
        "notice": "Retrieves the peer (OApp) associated with a corresponding endpoint."
      },
      "setDelegate(address)": {
        "notice": "Sets the delegate address for the OApp."
      },
      "setPeer(uint32,bytes32)": {
        "notice": "Sets the peer address (OApp instance) for a corresponding endpoint."
      }
    },
    "version": 1
  },
  "storageLayout": {
    "storage": [
      {
        "astId": 5536,
        "contract": "contracts/JasmineHubBridge.sol:JasmineHubBridge",
        "label": "_owner",
        "offset": 0,
        "slot": "0",
        "type": "t_address"
      },
      {
        "astId": 727,
        "contract": "contracts/JasmineHubBridge.sol:JasmineHubBridge",
        "label": "peers",
        "offset": 0,
        "slot": "1",
        "type": "t_mapping(t_uint32,t_bytes32)"
      },
      {
        "astId": 11569,
        "contract": "contracts/JasmineHubBridge.sol:JasmineHubBridge",
        "label": "adapters",
        "offset": 0,
        "slot": "2",
        "type": "t_mapping(t_address,t_address)"
      }
    ],
    "types": {
      "t_address": {
        "encoding": "inplace",
        "label": "address",
        "numberOfBytes": "20"
      },
      "t_bytes32": {
        "encoding": "inplace",
        "label": "bytes32",
        "numberOfBytes": "32"
      },
      "t_mapping(t_address,t_address)": {
        "encoding": "mapping",
        "key": "t_address",
        "label": "mapping(address => address)",
        "numberOfBytes": "32",
        "value": "t_address"
      },
      "t_mapping(t_uint32,t_bytes32)": {
        "encoding": "mapping",
        "key": "t_uint32",
        "label": "mapping(uint32 => bytes32)",
        "numberOfBytes": "32",
        "value": "t_bytes32"
      },
      "t_uint32": {
        "encoding": "inplace",
        "label": "uint32",
        "numberOfBytes": "4"
      }
    }
  }
}